{"abi":[{"type":"constructor","inputs":[{"name":"vat_","type":"address","internalType":"address"},{"name":"spotter_","type":"address","internalType":"address"},{"name":"dog_","type":"address","internalType":"address"},{"name":"ilk_","type":"bytes32","internalType":"bytes32"}],"stateMutability":"nonpayable"},{"type":"function","name":"active","inputs":[{"name":"","type":"uint256","internalType":"uint256"}],"outputs":[{"name":"","type":"uint256","internalType":"uint256"}],"stateMutability":"view"},{"type":"function","name":"buf","inputs":[],"outputs":[{"name":"","type":"uint256","internalType":"uint256"}],"stateMutability":"view"},{"type":"function","name":"calc","inputs":[],"outputs":[{"name":"","type":"address","internalType":"contract AbacusLike"}],"stateMutability":"view"},{"type":"function","name":"chip","inputs":[],"outputs":[{"name":"","type":"uint64","internalType":"uint64"}],"stateMutability":"view"},{"type":"function","name":"chost","inputs":[],"outputs":[{"name":"","type":"uint256","internalType":"uint256"}],"stateMutability":"view"},{"type":"function","name":"count","inputs":[],"outputs":[{"name":"","type":"uint256","internalType":"uint256"}],"stateMutability":"view"},{"type":"function","name":"cusp","inputs":[],"outputs":[{"name":"","type":"uint256","internalType":"uint256"}],"stateMutability":"view"},{"type":"function","name":"deny","inputs":[{"name":"usr","type":"address","internalType":"address"}],"outputs":[],"stateMutability":"nonpayable"},{"type":"function","name":"dog","inputs":[],"outputs":[{"name":"","type":"address","internalType":"contract DogLike"}],"stateMutability":"view"},{"type":"function","name":"file","inputs":[{"name":"what","type":"bytes32","internalType":"bytes32"},{"name":"data","type":"uint256","internalType":"uint256"}],"outputs":[],"stateMutability":"nonpayable"},{"type":"function","name":"file","inputs":[{"name":"what","type":"bytes32","internalType":"bytes32"},{"name":"data","type":"address","internalType":"address"}],"outputs":[],"stateMutability":"nonpayable"},{"type":"function","name":"getStatus","inputs":[{"name":"id","type":"uint256","internalType":"uint256"}],"outputs":[{"name":"needsRedo","type":"bool","internalType":"bool"},{"name":"price","type":"uint256","internalType":"uint256"},{"name":"lot","type":"uint256","internalType":"uint256"},{"name":"tab","type":"uint256","internalType":"uint256"}],"stateMutability":"view"},{"type":"function","name":"ilk","inputs":[],"outputs":[{"name":"","type":"bytes32","internalType":"bytes32"}],"stateMutability":"view"},{"type":"function","name":"kick","inputs":[{"name":"tab","type":"uint256","internalType":"uint256"},{"name":"lot","type":"uint256","internalType":"uint256"},{"name":"usr","type":"address","internalType":"address"},{"name":"kpr","type":"address","internalType":"address"}],"outputs":[{"name":"id","type":"uint256","internalType":"uint256"}],"stateMutability":"nonpayable"},{"type":"function","name":"kicks","inputs":[],"outputs":[{"name":"","type":"uint256","internalType":"uint256"}],"stateMutability":"view"},{"type":"function","name":"list","inputs":[],"outputs":[{"name":"","type":"uint256[]","internalType":"uint256[]"}],"stateMutability":"view"},{"type":"function","name":"redo","inputs":[{"name":"id","type":"uint256","internalType":"uint256"},{"name":"kpr","type":"address","internalType":"address"}],"outputs":[],"stateMutability":"nonpayable"},{"type":"function","name":"rely","inputs":[{"name":"usr","type":"address","internalType":"address"}],"outputs":[],"stateMutability":"nonpayable"},{"type":"function","name":"sales","inputs":[{"name":"","type":"uint256","internalType":"uint256"}],"outputs":[{"name":"pos","type":"uint256","internalType":"uint256"},{"name":"tab","type":"uint256","internalType":"uint256"},{"name":"lot","type":"uint256","internalType":"uint256"},{"name":"usr","type":"address","internalType":"address"},{"name":"tic","type":"uint96","internalType":"uint96"},{"name":"top","type":"uint256","internalType":"uint256"}],"stateMutability":"view"},{"type":"function","name":"spotter","inputs":[],"outputs":[{"name":"","type":"address","internalType":"contract SpotterLike"}],"stateMutability":"view"},{"type":"function","name":"stopped","inputs":[],"outputs":[{"name":"","type":"uint256","internalType":"uint256"}],"stateMutability":"view"},{"type":"function","name":"tail","inputs":[],"outputs":[{"name":"","type":"uint256","internalType":"uint256"}],"stateMutability":"view"},{"type":"function","name":"take","inputs":[{"name":"id","type":"uint256","internalType":"uint256"},{"name":"amt","type":"uint256","internalType":"uint256"},{"name":"max","type":"uint256","internalType":"uint256"},{"name":"who","type":"address","internalType":"address"},{"name":"data","type":"bytes","internalType":"bytes"}],"outputs":[],"stateMutability":"nonpayable"},{"type":"function","name":"tip","inputs":[],"outputs":[{"name":"","type":"uint192","internalType":"uint192"}],"stateMutability":"view"},{"type":"function","name":"upchost","inputs":[],"outputs":[],"stateMutability":"nonpayable"},{"type":"function","name":"vat","inputs":[],"outputs":[{"name":"","type":"address","internalType":"contract VatLike"}],"stateMutability":"view"},{"type":"function","name":"vow","inputs":[],"outputs":[{"name":"","type":"address","internalType":"address"}],"stateMutability":"view"},{"type":"function","name":"wards","inputs":[{"name":"","type":"address","internalType":"address"}],"outputs":[{"name":"","type":"uint256","internalType":"uint256"}],"stateMutability":"view"},{"type":"function","name":"yank","inputs":[{"name":"id","type":"uint256","internalType":"uint256"}],"outputs":[],"stateMutability":"nonpayable"},{"type":"event","name":"Deny","inputs":[{"name":"usr","type":"address","indexed":true,"internalType":"address"}],"anonymous":false},{"type":"event","name":"File","inputs":[{"name":"what","type":"bytes32","indexed":true,"internalType":"bytes32"},{"name":"data","type":"uint256","indexed":false,"internalType":"uint256"}],"anonymous":false},{"type":"event","name":"File","inputs":[{"name":"what","type":"bytes32","indexed":true,"internalType":"bytes32"},{"name":"data","type":"address","indexed":false,"internalType":"address"}],"anonymous":false},{"type":"event","name":"Kick","inputs":[{"name":"id","type":"uint256","indexed":true,"internalType":"uint256"},{"name":"top","type":"uint256","indexed":false,"internalType":"uint256"},{"name":"tab","type":"uint256","indexed":false,"internalType":"uint256"},{"name":"lot","type":"uint256","indexed":false,"internalType":"uint256"},{"name":"usr","type":"address","indexed":true,"internalType":"address"},{"name":"kpr","type":"address","indexed":true,"internalType":"address"},{"name":"coin","type":"uint256","indexed":false,"internalType":"uint256"}],"anonymous":false},{"type":"event","name":"Redo","inputs":[{"name":"id","type":"uint256","indexed":true,"internalType":"uint256"},{"name":"top","type":"uint256","indexed":false,"internalType":"uint256"},{"name":"tab","type":"uint256","indexed":false,"internalType":"uint256"},{"name":"lot","type":"uint256","indexed":false,"internalType":"uint256"},{"name":"usr","type":"address","indexed":true,"internalType":"address"},{"name":"kpr","type":"address","indexed":true,"internalType":"address"},{"name":"coin","type":"uint256","indexed":false,"internalType":"uint256"}],"anonymous":false},{"type":"event","name":"Rely","inputs":[{"name":"usr","type":"address","indexed":true,"internalType":"address"}],"anonymous":false},{"type":"event","name":"Take","inputs":[{"name":"id","type":"uint256","indexed":true,"internalType":"uint256"},{"name":"max","type":"uint256","indexed":false,"internalType":"uint256"},{"name":"price","type":"uint256","indexed":false,"internalType":"uint256"},{"name":"owe","type":"uint256","indexed":false,"internalType":"uint256"},{"name":"tab","type":"uint256","indexed":false,"internalType":"uint256"},{"name":"lot","type":"uint256","indexed":false,"internalType":"uint256"},{"name":"usr","type":"address","indexed":true,"internalType":"address"}],"anonymous":false},{"type":"event","name":"Yank","inputs":[{"name":"id","type":"uint256","indexed":false,"internalType":"uint256"}],"anonymous":false}],"bytecode":{"object":"0x60c0346200014957601f6200223838819003918201601f19168301916001600160401b038311848410176200014e5780849260809460405283398101031262000149576200004d8162000164565b6200005b6020830162000164565b60606200006b6040850162000164565b9301519160009384600e5560018060a01b0380921660a0528160018060a01b03199316836003541617600355169060015416176001556080526b033b2e3c9fd0803ce80000006005553381528060205260016040822055604051907fdd0e34038ac38b2a1ce960229778ac48a8719bc900b6c4f8d0475c6e8b385a60339180a26120be90816200017a823960805181818161060601528181610d0a015281816115e6015281816118540152611c6c015260a05181818161031a015281816109c901528181610cd3015281816113880152818161165d015261188d0152f35b600080fd5b634e487b7160e01b600052604160045260246000fd5b51906001600160a01b0382168203620001495756fe608060408181526004908136101561001657600080fd5b600092833560e01c90816306661abd14611992575080630cbb5862146118355780630f560cd71461178257806313d8c84014611763578063152325151461174457806326e027f11461157a5780632755cd2d1461155a57806329ae8114146113e05780632e77468d146113b757806336569e771461137357806349ed5931146113545780635c622a0e146112cf578063626cb3c5146112a657806365fae35e1461123b57806375f12b211461121c5780638033d581146111e057806381a794cb14610ba2578063898eb267146107c957806396f1b6be146107a15780639c52a7f114610733578063b5f522f7146106d1578063b61500e4146106a8578063ba2cdc7514610689578063bf353dbb14610652578063c3b3ad7f14610629578063c5ce281e146105ee578063cfdd3302146105cf578063d4e8be83146104285763d843416d1461016357600080fd5b34610424578060031936011261042457813561017d6119da565b9161018a600d5415611a82565b6001600d5561019d6002600e5410611ac6565b818552600c6020528085206003810154908501546001600160a01b0380831695909290916101d8916101d0881515611e68565b60a01c611f73565b50156103ea57838752600c60205282872060018101546002820154600390920180546001600160a01b03164260a01b6001600160a01b031916179055939061021e611c59565b916b033b2e3c9fd0803ce800000061023860055485611c1c565b04986102458a1515611b35565b878b52600c6020528981838d2001558a60085467ffffffffffffffff81851c9116829682158015906103e1575b6102d1575b5050505050907f275de7ecdd375b5e8049319f8b350686131c219dd4dc450a08e9cf83b03c865f956102c79392519586951699859094939260609260808301968352602083015260408201520152565b0390a480600d5580f35b600954808c101591826103cc575b50506102ec575b80610277565b61030e9192939650610307670de0b6b3a7640000918b611c1c565b0482611bc6565b9081106103c8578094877f00000000000000000000000000000000000000000000000000000000000000001690886002541691803b156103c457855163f24e23eb60e01b81526001600160a01b03938416928101928352928916602083015260408201939093529091839183919082908490829060600103925af180156103ba5761039c575b8082916102e6565b6103a99094939294611b7a565b6103b65790918938610394565b8980fd5b83513d84823e3d90fd5b8480fd5b5080fd5b6103d891925088611c1c565b101538806102df565b50811515610272565b825162461bcd60e51b8152602081880152601460248201527310db1a5c1c195c8bd8d85b9b9bdd0b5c995cd95d60621b6044820152606490fd5b8280fd5b5090346104245781600319360112610424578035916104456119da565b913385528460205261045c60018387205414611a3d565b610468600d5415611a82565b6639b837ba3a32b960c91b84036104bf5750600380546001600160a01b0319166001600160a01b038416179055600080516020612069833981519152916020915b516001600160a01b039091168152a280600d5580f35b62646f6760e81b84036105005750600180546001600160a01b0319166001600160a01b038416179055600080516020612069833981519152916020916104a9565b62766f7760e81b84036105415750600280546001600160a01b0319166001600160a01b038416179055600080516020612069833981519152916020916104a9565b6363616c6360e01b84036105805780546001600160a01b0319166001600160a01b038416179055600080516020612069833981519152916020916104a9565b6105cb915191829162461bcd60e51b8352820160609060208152601f60208201527f436c69707065722f66696c652d756e7265636f676e697a65642d706172616d0060408201520190565b0390fd5b8382346103c857816003193601126103c857602090600a549051908152f35b8382346103c857816003193601126103c857602090517f00000000000000000000000000000000000000000000000000000000000000008152f35b8382346103c857816003193601126103c85760015490516001600160a01b039091168152602090f35b8382346103c85760203660031901126103c85760209181906001600160a01b0361067a6119ae565b16815280845220549051908152f35b8382346103c857816003193601126103c8576020906009549051908152f35b8382346103c857816003193601126103c85760209067ffffffffffffffff600854169051908152f35b5034610424576020366003190112610424578060c09383358152600c602052208054926001820154926002830154916003840154930154938151958652602086015284015260018060a01b038116606084015260a01c608083015260a0820152f35b8382346103c85760203660031901126103c8578161074f6119ae565b3382528160205261076560018484205414611a3d565b6001600160a01b03168082526020829052918120557f184450df2e323acec0ed3b5c7531b81f9b4cdef7914dfd4c0a4317416bb5251b8280a280f35b5090346104245782600319360112610424575490516001600160a01b03909116815260209150f35b508290346103c85760803660031901126103c85760248035939092908035906001600160a01b036044358181169290839003610b9d576108076119c4565b90338652602098868a526001610821818a8a205414611a3d565b61082d600d5415611a82565b80600d5561083e81600e5410611ac6565b8615610b68578115610b33578515610afe57600a546000199190828114610aec5781019a8b600a558b15610ab857600b5468010000000000000000811015610aa6578c61089382856108ac9401600b556119f0565b90919082549060031b91821b91600019901b1916179055565b600b54928301928311610a9557508a8952600c8c528989209182558101879055600281018290556001600160a01b03194260a01b166001600160a01b0387161760039091015588939291906b033b2e3c9fd0803ce800000061091861090f611c59565b60055490611c1c565b0496610925881515611b35565b858952600c8c5287838b8b2001556008549267ffffffffffffffff848c1c9416938a948115801590610a8c575b61099f575b50508a519889525060208801526040870152606086015216927f7c5bfdc0a5e8192f6cd4972f382cec69116862fb62e6abff8003874c58e064b890608090a4600d5551908152f35b839498506109bd92955061030790670de0b6b3a76400009294611c1c565b908110610a88578092857f00000000000000000000000000000000000000000000000000000000000000001690866002541690823b15610a84578c5163f24e23eb60e01b81526001600160a01b0392831691810191825291871660208201526040810193909352918a91839182908490829060600103925af18015610a7a578b95949392918a91610a55575b80979394959697610957565b610a659192939597949650611b7a565b610a7657918993919492888d610a49565b8780fd5b8a513d8b823e3d90fd5b8b80fd5b8880fd5b50801515610952565b634e487b7160e01b8a526011855289fd5b50634e487b7160e01b8a526041855289fd5b8460106064928f8e519362461bcd60e51b85528401528201526f436c69707065722f6f766572666c6f7760801b6044820152fd5b634e487b7160e01b8a52601185528b8afd5b885162461bcd60e51b81528084018c90526010818c01526f21b634b83832b917bd32b93796bab9b960811b6044820152606490fd5b885162461bcd60e51b81528084018c90526010818c01526f10db1a5c1c195c8bde995c9bcb5b1bdd60821b6044820152606490fd5b885162461bcd60e51b81528084018c90526010818c01526f21b634b83832b917bd32b93796ba30b160811b6044820152606490fd5b600080fd5b5090346104245760a036600319011261042457610bbd6119c4565b6084359167ffffffffffffffff91828411610f9e5736602385011215610f9e5783820135928311610f9e573660248486010111610f9e57610c00600d5415611a82565b6001600d55610c136003600e5410611ac6565b813593848752602091600c8352600387892001549660018060a01b0393610c58858a1699610c428b1515611e68565b898c52600c835287848d2001549060a01c611f73565b97906111a7576044359688881061116c5790888c928b8452600c855285842097600160028a015499015497602435808b1115600014611166575089985b89610ca0868c611c1c565b9a828c1115611094575050610cc1995080610cc9610ccf929b8c9783611bd3565b968792611b12565b9b611b12565b9a807f00000000000000000000000000000000000000000000000000000000000000001692833b15610a76578951633088df1760e11b8082527f00000000000000000000000000000000000000000000000000000000000000008783018181523060208201526001600160a01b0387166040820152606081018a9052909991989192908b90829081906080010381838b5af1801561108a57908b91611076575b5050838060015416958315158061106a575b8061105e575b610fca575b505050505060025416823b15610fc657885163bb35783b60e01b8152338582019081526001600160a01b039092166020830152604082018b905290879082908190606001038183875af18015610fa257908791610fb2575b50508a15908115610fac57610df98a8c611bc6565b813b15610a76578791604483928c51948593849263321c64fd60e21b84528c8b85015260248401525af18015610fa257908791610f8a575b505015610e8d575050505050907f05e309fd6ce72f2ab888a20056bb4210df08daed86f21f95053deb19964d86b19660a09695949392610e708a611eb4565b825196875286015284015260608301526080820152a380600d5580f35b88610f4257803b156103c45786519283529082019283523060208401526001600160a01b038d1660408401526060830189905290918391839182908490829060800103925af18015610f3857610f18575b5050907f05e309fd6ce72f2ab888a20056bb4210df08daed86f21f95053deb19964d86b19660a09695949392610f138a611eb4565b610e70565b610f289097969594939297611b7a565b6103b65790919293948938610ede565b84513d84823e3d90fd5b5050505096829186600260a099989796958b8d7f05e309fd6ce72f2ab888a20056bb4210df08daed86f21f95053deb19964d86b19d52600c8552208760018201550155610e70565b610f9390611b7a565b610f9e578538610e31565b8580fd5b89513d89823e3d90fd5b89610df9565b610fbb90611b7a565b610f9e578538610de4565b8680fd5b16803b1561105a578d8b60a48f86839760248e93519a8b998a988996634229608760e11b885233908801528387015260448601526080606486015282608486015201848401378181018301849052601f01601f191681010301925af180156110505790889161103c575b808381610d8c565b61104590611b7a565b610fc6578638611034565b8a513d8a823e3d90fd5b8a80fd5b50868282161415610d87565b50878282161415610d81565b61107f90611b7a565b6103b6578938610d6f565b8d513d8d823e3d90fd5b8196508b908d848310918261115c575b50506110b8575b610cc990610ccf93611b12565b5050600954806110c88c84611b12565b106110d6575b50848a6110ab565b9295979899508093965082919450111561111957928b928f959280610cc96111076111109c9b9a98610ccf94611b12565b9b8c9788611bd3565b965050906110ce565b875162461bcd60e51b8152808601889052601b60248201527f436c69707065722f6e6f2d7061727469616c2d707572636861736500000000006044820152606490fd5b1090508d386110a4565b98610c95565b835162461bcd60e51b81529081018390526015602482015274436c69707065722f746f6f2d657870656e7369766560581b6044820152606490fd5b825162461bcd60e51b8152808801839052601360248201527210db1a5c1c195c8bdb9959591ccb5c995cd95d606a1b6044820152606490fd5b509034610424576020366003190112610424573591600b54831015611219575061120b6020926119f0565b91905490519160031b1c8152f35b80fd5b8382346103c857816003193601126103c857602090600e549051908152f35b8382346103c85760203660031901126103c85760016112586119ae565b3384528360205261126d828486205414611a3d565b818060a01b031691828452836020528320557fdd0e34038ac38b2a1ce960229778ac48a8719bc900b6c4f8d0475c6e8b385a608280a280f35b8382346103c857816003193601126103c85760025490516001600160a01b039091168152602090f35b50346104245760203660031901126104245791608092823591828152600c6020526113088282209460038601549501548560a01c611f73565b6001600160a01b0390951615159493908561134c575b509082918152600c602052209060016002830154920154928151941515855260208501528301526060820152f35b94508261131e565b8382346103c857816003193601126103c8576020906007549051908152f35b8382346103c857816003193601126103c857517f00000000000000000000000000000000000000000000000000000000000000006001600160a01b03168152602090f35b8382346103c857816003193601126103c85760035490516001600160a01b039091168152602090f35b509034610424578160031936011261042457803591602435913385528460205261140f60018387205414611a3d565b61141b600d5415611a82565b62313ab360e91b840361144d575081602091600080516020612049833981519152936005555b51908152a280600d5580f35b631d185a5b60e21b840361147857508160209160008051602061204983398151915293600655611441565b630637573760e41b84036114a357508160209160008051602061204983398151915293600755611441565b630636869760e41b84036114e757508160209167ffffffffffffffff600080516020612049833981519152941667ffffffffffffffff196008541617600855611441565b6207469760ec1b840361152c57506008805467ffffffffffffffff1683831b67ffffffffffffffff191617905560008051602061204983398151915291602091611441565b661cdd1bdc1c195960ca1b840361058057508160209160008051602061204983398151915293600e55611441565b8382346103c857816003193601126103c8576008548151911c8152602090f35b5090346104245760209081600319360112611715578035903385528483526115a760018587205414611a3d565b6115b3600d5415611a82565b6001600d55818552600c8352838520600301546001600160a01b0391906115dd9083161515611e68565b816001541691867f000000000000000000000000000000000000000000000000000000000000000093858252600c87526001888320015490803b1561042457604483928a51948593849263321c64fd60e21b84528a8a85015260248401525af1801561173a57611723575b50838752600c855285872060020154879392917f000000000000000000000000000000000000000000000000000000000000000016803b156103c4578751633088df1760e11b8152928301938452306020850152336040850152606084019190915290918391839182908490829060800103925af1801561171957611701575b50507f2c5d2826eb5903b8fc201cf48094b858f42f61c7eaac9aaf43ebed490138144e926116f582611eb4565b51908152a180600d5580f35b61170a90611b7a565b6117155783386116c8565b8380fd5b85513d84823e3d90fd5b611731909791939297611b7a565b95909138611648565b87513d8a823e3d90fd5b8382346103c857816003193601126103c8576020906005549051908152f35b8382346103c857816003193601126103c8576020906006549051908152f35b508234611219578060031936011261121957908051918290600b549182855260208095018093600b84527f0175b7a638427703f0dbe7bb9bbf987a2551717b34e79f33b5b1008d1fa01db990845b81811061182157505050816117e6910382611ba4565b83519485948186019282875251809352850193925b82811061180a57505050500390f35b8351855286955093810193928101926001016117fb565b8254845292880192600192830192016117d0565b50346104245782600319360112610424578051636cb1c69b60e11b81527f00000000000000000000000000000000000000000000000000000000000000008184018190529092906001600160a01b0360a085602481897f000000000000000000000000000000000000000000000000000000000000000086165af194851561198857869561194d575b5090602460209260015416938786519586948593631af24ca760e31b85528401525af19182156119445750839161190b575b5061190490670de0b6b3a764000092611c1c565b0460095580f35b90506020813d821161193c575b8161192560209383611ba4565b810103126104245751670de0b6b3a76400006118f0565b3d9150611918565b513d85823e3d90fd5b9190945060a0823d8211611980575b8161196960a09383611ba4565b81010312610f9e57608091909101519360246118be565b3d915061195c565b84513d88823e3d90fd5b8490346103c857816003193601126103c857602090600b548152f35b600435906001600160a01b0382168203610b9d57565b606435906001600160a01b0382168203610b9d57565b602435906001600160a01b0382168203610b9d57565b600b54811015611a2757600b6000527f0175b7a638427703f0dbe7bb9bbf987a2551717b34e79f33b5b1008d1fa01db90190600090565b634e487b7160e01b600052603260045260246000fd5b15611a4457565b60405162461bcd60e51b815260206004820152601660248201527510db1a5c1c195c8bdb9bdd0b585d5d1a1bdc9a5e995960521b6044820152606490fd5b15611a8957565b60405162461bcd60e51b815260206004820152601560248201527410db1a5c1c195c8bdcde5cdd195b4b5b1bd8dad959605a1b6044820152606490fd5b15611acd57565b60405162461bcd60e51b815260206004820152601960248201527f436c69707065722f73746f707065642d696e636f7272656374000000000000006044820152606490fd5b91908203918211611b1f57565b634e487b7160e01b600052601160045260246000fd5b15611b3c57565b60405162461bcd60e51b8152602060048201526016602482015275436c69707065722f7a65726f2d746f702d707269636560501b6044820152606490fd5b67ffffffffffffffff8111611b8e57604052565b634e487b7160e01b600052604160045260246000fd5b90601f8019910116810190811067ffffffffffffffff821117611b8e57604052565b91908201809211611b1f57565b8115611bdd570490565b634e487b7160e01b600052601260045260246000fd5b906b033b2e3c9fd0803ce80000009182810292818404811482151715611b1f57830403610b9d57565b600092918015918215611c33575b505015610b9d57565b80820294509150811582850482141715611b1f57611c519084611bd3565b143880611c2a565b60035460408051636cb1c69b60e11b81527f000000000000000000000000000000000000000000000000000000000000000060048201526000926001600160a01b039190839082906024908290889087165af1908115611e5b5784929184918491611e1e575b5081516359e02dd760e01b8152958691600491839186165af180156103ba5782948391611dde575b5015611da257633b9aca009384810294818604811482151715611d8e578504036103c8576020829160035416600485518095819363495d32cb60e01b83525af1928315611d8457508092611d4c575b5050611d44611d4992611bf3565b611bd3565b90565b9091506020823d8211611d7c575b81611d6760209383611ba4565b81010312611219575051611d44611d49611d36565b3d9150611d5a565b51903d90823e3d90fd5b634e487b7160e01b84526011600452602484fd5b825162461bcd60e51b8152602060048201526015602482015274436c69707065722f696e76616c69642d707269636560581b6044820152606490fd5b809550848092503d8311611e17575b611df78183611ba4565b810103126103c85760208451940151938415158503610424579338611ce7565b503d611ded565b9293505081813d8311611e54575b611e368183611ba4565b81010312611715575181811681036117155783919083906004611cbf565b503d611e2c565b50505051903d90823e3d90fd5b15611e6f57565b60405162461bcd60e51b815260206004820152601b60248201527f436c69707065722f6e6f742d72756e6e696e672d61756374696f6e00000000006044820152606490fd5b600b5460001990818101908111611b1f57611ece906119f0565b90549060031b1c808303611f42575b50600b548015611f2c57810190611ef3826119f0565b909182549160031b1b19169055600b556000908152600c6020526004604082208281558260018201558260028201558260038201550155565b634e487b7160e01b600052603160045260246000fd5b82600052600c60205260406000205490611f5f81610893846119f0565b600052600c60205260406000205538611edd565b6bffffffffffffffffffffffff60018060a01b0360045416911691611f988342611b12565b428111610b9d5760209060446040518095819363487a239560e01b835286600484015260248301525afa91821561203c57600092612009575b50611fdd829342611b12565b428111610b9d5760065410918215611ff457505091565b6120029250611d4490611bf3565b6007541191565b90916020823d8211612034575b8161202360209383611ba4565b810103126112195750519038611fd1565b3d9150612016565b6040513d6000823e3d90fdfee986e40cc8c151830d4f61050f4fb2e4add8567caad2d5f5496f9158e91fe4c78fef588b5fc1afbf5b2f06c1a435d513f208da2e6704c3d8f0e0ec91167066baa2646970667358221220d725393ae1c9bd6ee04a4485abab816ef5015cdc14cbbff10bc7e83df6a0a58064736f6c63430008130033","linkReferences":{}},"methodIdentifiers":{"active(uint256)":"8033d581","buf()":"15232515","calc()":"96f1b6be","chip()":"b61500e4","chost()":"ba2cdc75","count()":"06661abd","cusp()":"49ed5931","deny(address)":"9c52a7f1","dog()":"c3b3ad7f","file(bytes32,address)":"d4e8be83","file(bytes32,uint256)":"29ae8114","getStatus(uint256)":"5c622a0e","ilk()":"c5ce281e","kick(uint256,uint256,address,address)":"898eb267","kicks()":"cfdd3302","list()":"0f560cd7","redo(uint256,address)":"d843416d","rely(address)":"65fae35e","sales(uint256)":"b5f522f7","spotter()":"2e77468d","stopped()":"75f12b21","tail()":"13d8c840","take(uint256,uint256,uint256,address,bytes)":"81a794cb","tip()":"2755cd2d","upchost()":"0cbb5862","vat()":"36569e77","vow()":"626cb3c5","wards(address)":"bf353dbb","yank(uint256)":"26e027f1"},"id":19}