{"abi":[{"type":"constructor","inputs":[],"stateMutability":"nonpayable"},{"type":"function","name":"amt","inputs":[{"name":"","type":"address","internalType":"address"}],"outputs":[{"name":"","type":"uint256","internalType":"uint256"}],"stateMutability":"view"},{"type":"function","name":"cage","inputs":[],"outputs":[],"stateMutability":"nonpayable"},{"type":"function","name":"deny","inputs":[{"name":"usr","type":"address","internalType":"address"}],"outputs":[],"stateMutability":"nonpayable"},{"type":"function","name":"drop","inputs":[{"name":"src","type":"address","internalType":"address"}],"outputs":[],"stateMutability":"nonpayable"},{"type":"function","name":"file","inputs":[{"name":"what","type":"bytes32","internalType":"bytes32"},{"name":"data","type":"uint256","internalType":"uint256"}],"outputs":[],"stateMutability":"nonpayable"},{"type":"function","name":"lCount","inputs":[],"outputs":[{"name":"","type":"uint256","internalType":"uint256"}],"stateMutability":"view"},{"type":"function","name":"lift","inputs":[{"name":"src","type":"address","internalType":"address"}],"outputs":[],"stateMutability":"nonpayable"},{"type":"function","name":"list","inputs":[],"outputs":[{"name":"","type":"address[]","internalType":"address[]"}],"stateMutability":"view"},{"type":"function","name":"live","inputs":[],"outputs":[{"name":"","type":"uint256","internalType":"uint256"}],"stateMutability":"view"},{"type":"function","name":"load","inputs":[{"name":"src","type":"address","internalType":"address"}],"outputs":[],"stateMutability":"nonpayable"},{"type":"function","name":"loaded","inputs":[{"name":"","type":"address","internalType":"address"}],"outputs":[{"name":"","type":"uint256","internalType":"uint256"}],"stateMutability":"view"},{"type":"function","name":"pos","inputs":[{"name":"","type":"address","internalType":"address"}],"outputs":[{"name":"","type":"uint256","internalType":"uint256"}],"stateMutability":"view"},{"type":"function","name":"rely","inputs":[{"name":"usr","type":"address","internalType":"address"}],"outputs":[],"stateMutability":"nonpayable"},{"type":"function","name":"say","inputs":[],"outputs":[{"name":"","type":"uint256","internalType":"uint256"}],"stateMutability":"view"},{"type":"function","name":"srcs","inputs":[{"name":"","type":"uint256","internalType":"uint256"}],"outputs":[{"name":"","type":"address","internalType":"address"}],"stateMutability":"view"},{"type":"function","name":"tCount","inputs":[],"outputs":[{"name":"count_","type":"uint256","internalType":"uint256"}],"stateMutability":"view"},{"type":"function","name":"tell","inputs":[],"outputs":[{"name":"","type":"uint256","internalType":"uint256"}],"stateMutability":"view"},{"type":"function","name":"wait","inputs":[],"outputs":[{"name":"","type":"uint256","internalType":"uint256"}],"stateMutability":"view"},{"type":"function","name":"wards","inputs":[{"name":"","type":"address","internalType":"address"}],"outputs":[{"name":"","type":"uint256","internalType":"uint256"}],"stateMutability":"view"},{"type":"function","name":"when","inputs":[],"outputs":[{"name":"","type":"uint256","internalType":"uint256"}],"stateMutability":"view"},{"type":"event","name":"Cage","inputs":[],"anonymous":false},{"type":"event","name":"Deny","inputs":[{"name":"usr","type":"address","indexed":true,"internalType":"address"}],"anonymous":false},{"type":"event","name":"Drop","inputs":[{"name":"src","type":"address","indexed":true,"internalType":"address"}],"anonymous":false},{"type":"event","name":"File","inputs":[{"name":"what","type":"bytes32","indexed":true,"internalType":"bytes32"},{"name":"data","type":"uint256","indexed":false,"internalType":"uint256"}],"anonymous":false},{"type":"event","name":"Lift","inputs":[{"name":"src","type":"address","indexed":true,"internalType":"address"}],"anonymous":false},{"type":"event","name":"Load","inputs":[{"name":"src","type":"address","indexed":true,"internalType":"address"}],"anonymous":false},{"type":"event","name":"Rely","inputs":[{"name":"usr","type":"address","indexed":true,"internalType":"address"}],"anonymous":false}],"bytecode":{"object":"0x6080806040523461005157600180553360005260006020526001604060002055337fdd0e34038ac38b2a1ce960229778ac48a8719bc900b6c4f8d0475c6e8b385a60600080a2610c5290816100578239f35b600080fdfe6080604081815260048036101561001557600080fd5b600092833560e01c9081630961566214610a32575080630f560cd71461096d57806329ae8114146108b05780632f40e734146107285780633c278bd514610614578063493aa4c7146105f557806353d700e51461055e57806353f9a8731461053f57806364bd70131461052057806365fae35e146104a5578063692450091461043757806391f2700a146102cc57806393d0281c14610293578063954ab4b214610274578063957aa58c14610255578381639c52a7f1146101d557508063bf353dbb1461019d578063e2b0caef14610180578063f381273f1461013d5763ffa9ca9f1461010157600080fd5b3461013957602036600319011261013957356001600160a01b0381169081900361013957828291602094526007845220549051908152f35b8280fd5b503461013957602036600319011261013957359160025483101561017d5750610167602092610a6a565b905491519160018060a01b039160031b1c168152f35b80fd5b503461013957826003193601126101395760209250549051908152f35b503461013957602036600319011261013957356001600160a01b03811690819003610139578282916020945280845220549051908152f35b9190503461025157602036600319011261025157356001600160a01b0381169290839003610251573382528160205261021360018284205414610aef565b6102206001805414610b31565b828252816020528120557f184450df2e323acec0ed3b5c7531b81f9b4cdef7914dfd4c0a4317416bb5251b8280a280f35b5080fd5b5050346102515781600319360112610251576020906001549051908152f35b5050346102515781600319360112610251576020906009549051908152f35b503461013957602036600319011261013957356001600160a01b0381169081900361013957828291602094526005845220549051908152f35b50903461013957602080600319360112610433576001600160a01b038335818116949085900361042f5733865285835261030b60018588205414610aef565b6103186001805414610b31565b848652600583528386205461032e811515610b6d565b6002548082106103b5575b50506002549081156103a2575091600691869493600019019061035b82610a6a565b909182549160031b1b19169055600255848452600581528383812055528120557fdbc628f334a9c7bf46419d864ca89e17415703fa12263f2284d94cc9b75b659e8280a280f35b634e487b7160e01b875260319052602486fd5b6000199080820190811161041c576103cd8591610a6a565b90549060031b1c1690820182811161041c57816103ec61040b92610a6a565b90919082549060031b9160018060a01b03809116831b921b1916179055565b875260058452848720553880610339565b634e487b7160e01b895260118452602489fd5b8580fd5b8380fd5b509034610139578260031936011261013957600161045f913385528460205284205414610aef565b61046c6001805414610b31565b8160015561047c60035442610bb9565b90557f2308ed18a14e800c39b86eb6ea43270105955ca385b603b64eca89f98ae8fbda8180a180f35b503461013957602036600319011261013957356001600160a01b038116919082900361013957600190338452836020526104e3828286205414610aef565b6104ef82805414610b31565b828452836020528320557fdd0e34038ac38b2a1ce960229778ac48a8719bc900b6c4f8d0475c6e8b385a608280a280f35b5050346102515781600319360112610251576020906003549051908152f35b5050346102515781600319360112610251576020906002549051908152f35b50823461017d578060031936011261017d575060015415806105dd575b1561058d576020826009549051908152f35b6020608492519162461bcd60e51b8352820152602560248201527f437572652f6d697373696e672d6c6f61642d616e642d74696d652d6e6f742d70604482015264185cdcd95960da1b6064820152fd5b50600854600254148061057b5750805442101561057b565b5050346102515781600319360112610251576020906008549051908152f35b5090346101395760203660031901126101395781356001600160a01b03811692838203610724573385528460205261065160018487205414610aef565b61065e6001805414610b31565b8385526005602052828520546106e15760025490680100000000000000008210156106ce5750906103ec8260016106989401600255610a6a565b6002549082845260056020528320557f2b07094bdf192088dc9d18c2c3a2b11b7f1df5d6f3460343964c059221e3f0488280a280f35b634e487b7160e01b865260419052602485fd5b606490602084519162461bcd60e51b8352820152601c60248201527f437572652f616c72656164792d6578697374696e672d736f75726365000000006044820152fd5b8480fd5b503461013957602091826003193601126104335781356001600160a01b03811693908490036107245760015461087d578385526005815261076d828620541515610b6d565b8385526006815281852054825163840782ed60e01b81529082828681895afa918215610873578792610840575b5085875260068352818488205560095490810390811161082d57600792916107c191610bb9565b6009558486525283208054156107fb575b50507fe90dfdfab1f4f73aeba2ef47b366c3c4118d3c38cab46bb993f7ed257a61c8c08280a280f35b6001905560085490600019821461081a575060010160085538806107d2565b634e487b7160e01b845260119052602483fd5b634e487b7160e01b875260118552602487fd5b9091508281813d831161086c575b6108588183610ab7565b810103126108685751903861079a565b8680fd5b503d61084e565b84513d89823e3d90fd5b905162461bcd60e51b815291820152600f60248201526e437572652f7374696c6c2d6c69766560881b6044820152606490fd5b503461013957816003193601126101395780359160243591338552846020526108de60018387205414610aef565b6108eb6001805414610b31565b631dd85a5d60e21b840361092b5750816020917fe986e40cc8c151830d4f61050f4fb2e4add8567caad2d5f5496f9158e91fe4c79360035551908152a280f35b6020606492519162461bcd60e51b8352820152601c60248201527f437572652f66696c652d756e7265636f676e697a65642d706172616d000000006044820152fd5b82843461017d578060031936011261017d579080519182906002549182855260208095018093600284527f405787fa12a823e0f2b7631cc41b3ba8828b3321ca811111fa75cd3aa3bb5ace90845b818110610a1557505050816109d1910382610ab7565b83519485948186019282875251809352850193925b8281106109f557505050500390f35b83516001600160a01b0316855286955093810193928101926001016109e6565b82546001600160a01b0316845292880192600192830192016109bb565b929190503461043357602036600319011261043357356001600160a01b03811690819003610433579260209381526006845220548152f35b600254811015610aa15760026000527f405787fa12a823e0f2b7631cc41b3ba8828b3321ca811111fa75cd3aa3bb5ace0190600090565b634e487b7160e01b600052603260045260246000fd5b90601f8019910116810190811067ffffffffffffffff821117610ad957604052565b634e487b7160e01b600052604160045260246000fd5b15610af657565b60405162461bcd60e51b815260206004820152601360248201527210dd5c994bdb9bdd0b585d5d1a1bdc9a5e9959606a1b6044820152606490fd5b15610b3857565b60405162461bcd60e51b815260206004820152600d60248201526c437572652f6e6f742d6c69766560981b6044820152606490fd5b15610b7457565b60405162461bcd60e51b815260206004820152601860248201527f437572652f6e6f6e2d6578697374696e672d736f7572636500000000000000006044820152606490fd5b9190820191828111610c06578210610bcd57565b60405162461bcd60e51b8152602060048201526011602482015270437572652f6164642d6f766572666c6f7760781b6044820152606490fd5b634e487b7160e01b600052601160045260246000fdfea26469706673582212200be257d363d34cebf75690d6e0ff7e405bb3ef30648b993e365000110db0f35f64736f6c63430008130033","linkReferences":{}},"methodIdentifiers":{"amt(address)":"09615662","cage()":"69245009","deny(address)":"9c52a7f1","drop(address)":"91f2700a","file(bytes32,uint256)":"29ae8114","lCount()":"493aa4c7","lift(address)":"3c278bd5","list()":"0f560cd7","live()":"957aa58c","load(address)":"2f40e734","loaded(address)":"ffa9ca9f","pos(address)":"93d0281c","rely(address)":"65fae35e","say()":"954ab4b2","srcs(uint256)":"f381273f","tCount()":"53f9a873","tell()":"53d700e5","wait()":"64bd7013","wards(address)":"bf353dbb","when()":"e2b0caef"},"id":20}