{"abi":[{"type":"constructor","inputs":[{"name":"vat_","type":"address","internalType":"address"}],"stateMutability":"nonpayable"},{"type":"function","name":"Dirt","inputs":[],"outputs":[{"name":"","type":"uint256","internalType":"uint256"}],"stateMutability":"view"},{"type":"function","name":"Hole","inputs":[],"outputs":[{"name":"","type":"uint256","internalType":"uint256"}],"stateMutability":"view"},{"type":"function","name":"bark","inputs":[{"name":"ilk","type":"bytes32","internalType":"bytes32"},{"name":"urn","type":"address","internalType":"address"},{"name":"kpr","type":"address","internalType":"address"}],"outputs":[{"name":"id","type":"uint256","internalType":"uint256"}],"stateMutability":"nonpayable"},{"type":"function","name":"cage","inputs":[],"outputs":[],"stateMutability":"nonpayable"},{"type":"function","name":"chop","inputs":[{"name":"ilk","type":"bytes32","internalType":"bytes32"}],"outputs":[{"name":"","type":"uint256","internalType":"uint256"}],"stateMutability":"view"},{"type":"function","name":"deny","inputs":[{"name":"usr","type":"address","internalType":"address"}],"outputs":[],"stateMutability":"nonpayable"},{"type":"function","name":"digs","inputs":[{"name":"ilk","type":"bytes32","internalType":"bytes32"},{"name":"rad","type":"uint256","internalType":"uint256"}],"outputs":[],"stateMutability":"nonpayable"},{"type":"function","name":"file","inputs":[{"name":"ilk","type":"bytes32","internalType":"bytes32"},{"name":"what","type":"bytes32","internalType":"bytes32"},{"name":"data","type":"uint256","internalType":"uint256"}],"outputs":[],"stateMutability":"nonpayable"},{"type":"function","name":"file","inputs":[{"name":"what","type":"bytes32","internalType":"bytes32"},{"name":"data","type":"uint256","internalType":"uint256"}],"outputs":[],"stateMutability":"nonpayable"},{"type":"function","name":"file","inputs":[{"name":"what","type":"bytes32","internalType":"bytes32"},{"name":"data","type":"address","internalType":"address"}],"outputs":[],"stateMutability":"nonpayable"},{"type":"function","name":"file","inputs":[{"name":"ilk","type":"bytes32","internalType":"bytes32"},{"name":"what","type":"bytes32","internalType":"bytes32"},{"name":"clip","type":"address","internalType":"address"}],"outputs":[],"stateMutability":"nonpayable"},{"type":"function","name":"ilks","inputs":[{"name":"","type":"bytes32","internalType":"bytes32"}],"outputs":[{"name":"clip","type":"address","internalType":"address"},{"name":"chop","type":"uint256","internalType":"uint256"},{"name":"hole","type":"uint256","internalType":"uint256"},{"name":"dirt","type":"uint256","internalType":"uint256"}],"stateMutability":"view"},{"type":"function","name":"live","inputs":[],"outputs":[{"name":"","type":"uint256","internalType":"uint256"}],"stateMutability":"view"},{"type":"function","name":"rely","inputs":[{"name":"usr","type":"address","internalType":"address"}],"outputs":[],"stateMutability":"nonpayable"},{"type":"function","name":"vat","inputs":[],"outputs":[{"name":"","type":"address","internalType":"contract VatLike"}],"stateMutability":"view"},{"type":"function","name":"vow","inputs":[],"outputs":[{"name":"","type":"address","internalType":"contract VowLike"}],"stateMutability":"view"},{"type":"function","name":"wards","inputs":[{"name":"","type":"address","internalType":"address"}],"outputs":[{"name":"","type":"uint256","internalType":"uint256"}],"stateMutability":"view"},{"type":"event","name":"Bark","inputs":[{"name":"ilk","type":"bytes32","indexed":true,"internalType":"bytes32"},{"name":"urn","type":"address","indexed":true,"internalType":"address"},{"name":"ink","type":"uint256","indexed":false,"internalType":"uint256"},{"name":"art","type":"uint256","indexed":false,"internalType":"uint256"},{"name":"due","type":"uint256","indexed":false,"internalType":"uint256"},{"name":"clip","type":"address","indexed":false,"internalType":"address"},{"name":"id","type":"uint256","indexed":true,"internalType":"uint256"}],"anonymous":false},{"type":"event","name":"Cage","inputs":[],"anonymous":false},{"type":"event","name":"Deny","inputs":[{"name":"usr","type":"address","indexed":true,"internalType":"address"}],"anonymous":false},{"type":"event","name":"Digs","inputs":[{"name":"ilk","type":"bytes32","indexed":true,"internalType":"bytes32"},{"name":"rad","type":"uint256","indexed":false,"internalType":"uint256"}],"anonymous":false},{"type":"event","name":"File","inputs":[{"name":"what","type":"bytes32","indexed":true,"internalType":"bytes32"},{"name":"data","type":"uint256","indexed":false,"internalType":"uint256"}],"anonymous":false},{"type":"event","name":"File","inputs":[{"name":"what","type":"bytes32","indexed":true,"internalType":"bytes32"},{"name":"data","type":"address","indexed":false,"internalType":"address"}],"anonymous":false},{"type":"event","name":"File","inputs":[{"name":"ilk","type":"bytes32","indexed":true,"internalType":"bytes32"},{"name":"what","type":"bytes32","indexed":true,"internalType":"bytes32"},{"name":"data","type":"uint256","indexed":false,"internalType":"uint256"}],"anonymous":false},{"type":"event","name":"File","inputs":[{"name":"ilk","type":"bytes32","indexed":true,"internalType":"bytes32"},{"name":"what","type":"bytes32","indexed":true,"internalType":"bytes32"},{"name":"clip","type":"address","indexed":false,"internalType":"address"}],"anonymous":false},{"type":"event","name":"Rely","inputs":[{"name":"usr","type":"address","indexed":true,"internalType":"address"}],"anonymous":false}],"bytecode":{"object":"0x60a0346100c457601f61121238819003918201601f19168301916001600160401b038311848410176100c9578084926020946040528339810103126100c457516001600160a01b038116908190036100c45760805260016003553360005260006020526001604060002055604051337fdd0e34038ac38b2a1ce960229778ac48a8719bc900b6c4f8d0475c6e8b385a60600080a261113290816100e082396080518181816101570152818161020601528181610347015281816103bc0152610dc60152f35b600080fd5b634e487b7160e01b600052604160045260246000fdfe6080604052600436101561001257600080fd5b6000803560e01c80631a0b287e14610e5b57806329ae811414610df557806336569e7714610db0578063626cb3c514610d8757806365fae35e14610d165780636924500914610cc3578063957aa58c14610ca55780639c52a7f114610c35578063af7cfeb114610c17578063bf353dbb14610bdf578063c87193f414610b43578063d4e8be8314610ab5578063d792653814610a89578063d9638d3614610a34578063ebecb39d146108a3578063ed998908146100f85763eda6e121146100d857600080fd5b346100f557806003193601126100f5576020600554604051908152f35b80fd5b50346100f55760603660031901126100f557610112610f9e565b61011a610fb4565b9060016003540361086f57604080516309092f9760e21b815260048035908201526001600160a01b038381166024830152909190829060449082907f0000000000000000000000000000000000000000000000000000000000000000165afa9384156108635780918195610824575b506004358152600160205260408120604051906080820182811067ffffffffffffffff82111761081057604090815281546001600160a01b03908116845260018301546020850152600283015484830152600390920154606084015251636cb1c69b60e11b81526004803590820152969060a090889060249082907f0000000000000000000000000000000000000000000000000000000000000000165afa938415610805578397849085966107bc575b5080151590816107a0575b501561076a5760045460055480821180610759575b156107145761026891611057565b61027b6040850151606086015190611057565b80821161070d57505b80670de0b6b3a7640000810204670de0b6b3a764000014811517156106f95780670de0b6b3a764000080820204036106f5576102cd89670de0b6b3a76400006102d8930261107a565b60208501519061107a565b8083116106ef575081945b8886808511610641575b505050906102fe85610303936110bf565b61107a565b95861561060957600160ff1b8085111590816105fe575b50156105ca5781516002546001600160a01b03918216911661033b8961109a565b6103448761109a565b917f00000000000000000000000000000000000000000000000000000000000000006001600160a01b03163b1561056e57604051936301eeacfd60e61b8552600435600486015260018060a01b038a16602486015260448501526064840152608483015260a4820152838160c4818360018060a01b037f0000000000000000000000000000000000000000000000000000000000000000165af180156105bf576105aa575b506103f490846110bf565b6002549092906001600160a01b0316803b156105a657818091602460405180948193630d2fdf6f60e31b83528960048401525af1801561059b57908291610587575b50506020670de0b6b3a764000061045082850151866110bf565b049661045e886005546110ab565b60055561046f8860608601516110ab565b600480358552600184526040808620600301929092558551915163898eb26760e01b815290810199909952602489018a90526001600160a01b0388811660448b015291821660648a0152889160849183918691165af195861561057a578196610535575b8251604080518a815260208181018990529181018790526001600160a01b0392831660608201529091899182918a1690600435907f85258d09e1e4ef299ff3fc11e74af99563f022d21f3f940db982229dc2a3358c90608090a4604051908152f35b90969391949295506020813d602011610572575b8161055660209383611035565b8101031261056e5751929550919390926020386104d3565b8680fd5b3d9150610549565b50604051903d90823e3d90fd5b6105909061100b565b6100f5578038610436565b6040513d84823e3d90fd5b5080fd5b926105b86103f4929461100b565b92906103e9565b6040513d86823e3d90fd5b60405162461bcd60e51b815260206004820152600c60248201526b446f672f6f766572666c6f7760a01b6044820152606490fd5b90508711153861031a565b60405162461bcd60e51b815260206004820152601060248201526f2237b397b73ab63616b0bab1ba34b7b760811b6044820152606490fd5b826106588361065384899c989c611057565b6110bf565b10156106775750505050806102fe6103039280965b92938a91506102ed565b9061068591979493976110bf565b10610697576102fe856103039361066d565b60405162461bcd60e51b815260206004820152602a60248201527f446f672f64757374792d61756374696f6e2d66726f6d2d7061727469616c2d6c60448201526934b8bab4b230ba34b7b760b11b6064820152608490fd5b946102e3565b8480fd5b634e487b7160e01b85526011600452602485fd5b9050610284565b60405162461bcd60e51b815260206004820152601960248201527f446f672f6c69717569646174696f6e2d6c696d69742d686974000000000000006044820152606490fd5b50604085015160608601511061025a565b60405162461bcd60e51b815260206004820152600e60248201526d446f672f6e6f742d756e7361666560901b6044820152606490fd5b6107ab9150826110bf565b6107b589846110bf565b1138610245565b985050935060a0873d82116107fd575b816107d960a09383611035565b810103126107f9576020870151936080604089015198015194973861023a565b8280fd5b3d91506107cc565b6040513d85823e3d90fd5b634e487b7160e01b84526041600452602484fd5b915093506040813d60401161085b575b8161084160409383611035565b8101031261085757602081519101519338610189565b8380fd5b3d9150610834565b604051903d90823e3d90fd5b60405162461bcd60e51b815260206004820152600c60248201526b446f672f6e6f742d6c69766560a01b6044820152606490fd5b50346100f55760603660031901126100f5576024356004356108c3610fb4565b3384526020908482526108dc6001604087205414610fca565b630636c69760e41b84036109ef576040516362e7140f60e11b81526001600160a01b038216908381600481855afa9081156109e45787916109b7575b5084036109725783865260018352604080872080546001600160a01b031916909217909155516001600160a01b0390911681527f4ff2caaa972a7c6629ea01fae9c93d73cc307d13ea4c369f9bbbb7f9b7e9461d9190a380f35b60405162461bcd60e51b815260048101849052601960248201527f446f672f66696c652d696c6b2d6e65712d636c69702e696c6b000000000000006044820152606490fd5b90508381813d83116109dd575b6109ce8183611035565b8101031261056e575138610918565b503d6109c4565b6040513d89823e3d90fd5b60405162461bcd60e51b815260206004820152601b60248201527f446f672f66696c652d756e7265636f676e697a65642d706172616d00000000006044820152606490fd5b50346100f55760203660031901126100f5576040608091600435815260016020522060018060a01b03815416906001810154906003600282015491015491604051938452602084015260408301526060820152f35b50346100f55760203660031901126100f557600160406020926004358152828452200154604051908152f35b50346100f55760403660031901126100f557600435610ad2610f9e565b33835282602052610ae96001604085205414610fca565b62766f7760e81b82036109ef57600280546001600160a01b0319166001600160a01b0390921691821790556040519081527f8fef588b5fc1afbf5b2f06c1a435d513f208da2e6704c3d8f0e0ec91167066ba90602090a280f35b50346100f557610b5236610f6d565b33835282602052610b696001604085205414610fca565b600554610b768282611057565b9081116108575760055581835260016020526003604084200154610b9a8282611057565b908111610857577f54f095dc7308776bf01e8580e4dd40fd959ea4bf50b069975768320ef8d77d8a91602091848652600183526003604087200155604051908152a280f35b50346100f55760203660031901126100f5576020906040906001600160a01b03610c07610f88565b1681528083522054604051908152f35b50346100f557806003193601126100f5576020600454604051908152f35b50346100f55760203660031901126100f557610c4f610f88565b33825281602052610c666001604084205414610fca565b6001600160a01b03168082526020829052604082208290557f184450df2e323acec0ed3b5c7531b81f9b4cdef7914dfd4c0a4317416bb5251b8280a280f35b50346100f557806003193601126100f5576020600354604051908152f35b50346100f557806003193601126100f55733815280602052610ceb6001604083205414610fca565b806003557f2308ed18a14e800c39b86eb6ea43270105955ca385b603b64eca89f98ae8fbda8180a180f35b50346100f55760203660031901126100f557610d30610f88565b33825281602052610d476001604084205414610fca565b6001600160a01b0316808252602082905260408220600190557fdd0e34038ac38b2a1ce960229778ac48a8719bc900b6c4f8d0475c6e8b385a608280a280f35b50346100f557806003193601126100f5576002546040516001600160a01b039091168152602090f35b50346100f557806003193601126100f5576040517f00000000000000000000000000000000000000000000000000000000000000006001600160a01b03168152602090f35b50346100f557610e0436610f6d565b33835282602052610e1b6001604085205414610fca565b63486f6c6560e01b82036109ef576020817fe986e40cc8c151830d4f61050f4fb2e4add8567caad2d5f5496f9158e91fe4c792600455604051908152a280f35b50346100f55760603660031901126100f5576004356024359060443533845283602052610e8e6001604086205414610fca565b63063686f760e41b8303610f2657670de0b6b3a76400008110610eea5760207f851aa1caf4888170ad8875449d18f0f512fd6deb2a6571ea1a41fb9f95acbcd191838652600182528060016040882001555b604051908152a380f35b60405162461bcd60e51b8152602060048201526014602482015273111bd9cbd99a5b194b58da1bdc0b5b1d0b55d05160621b6044820152606490fd5b63686f6c6560e01b83036109ef5760207f851aa1caf4888170ad8875449d18f0f512fd6deb2a6571ea1a41fb9f95acbcd19183865260018252806002604088200155610ee0565b6040906003190112610f83576004359060243590565b600080fd5b600435906001600160a01b0382168203610f8357565b602435906001600160a01b0382168203610f8357565b604435906001600160a01b0382168203610f8357565b15610fd157565b60405162461bcd60e51b8152602060048201526012602482015271111bd9cbdb9bdd0b585d5d1a1bdc9a5e995960721b6044820152606490fd5b67ffffffffffffffff811161101f57604052565b634e487b7160e01b600052604160045260246000fd5b90601f8019910116810190811067ffffffffffffffff82111761101f57604052565b9190820391821161106457565b634e487b7160e01b600052601160045260246000fd5b8115611084570490565b634e487b7160e01b600052601260045260246000fd5b600160ff1b81146110645760000390565b9190820191828111611064578210610f8357565b6000929180159182156110d6575b505015610f8357565b80820294509150811582850482141715611064576110f4908461107a565b1438806110cd56fea264697066735822122067cebea913d659ebed0880e23e8d848c8aa3c8d7fb86d52f877bd4c3b4bde6ff64736f6c63430008130033","linkReferences":{}},"methodIdentifiers":{"Dirt()":"eda6e121","Hole()":"af7cfeb1","bark(bytes32,address,address)":"ed998908","cage()":"69245009","chop(bytes32)":"d7926538","deny(address)":"9c52a7f1","digs(bytes32,uint256)":"c87193f4","file(bytes32,address)":"d4e8be83","file(bytes32,bytes32,address)":"ebecb39d","file(bytes32,bytes32,uint256)":"1a0b287e","file(bytes32,uint256)":"29ae8114","ilks(bytes32)":"d9638d36","live()":"957aa58c","rely(address)":"65fae35e","vat()":"36569e77","vow()":"626cb3c5","wards(address)":"bf353dbb"},"id":21}