{"abi":[{"type":"constructor","inputs":[],"stateMutability":"nonpayable"},{"type":"function","name":"Art","inputs":[{"name":"","type":"bytes32","internalType":"bytes32"}],"outputs":[{"name":"","type":"uint256","internalType":"uint256"}],"stateMutability":"view"},{"type":"function","name":"bag","inputs":[{"name":"","type":"address","internalType":"address"}],"outputs":[{"name":"","type":"uint256","internalType":"uint256"}],"stateMutability":"view"},{"type":"function","name":"cage","inputs":[],"outputs":[],"stateMutability":"nonpayable"},{"type":"function","name":"cage","inputs":[{"name":"ilk","type":"bytes32","internalType":"bytes32"}],"outputs":[],"stateMutability":"nonpayable"},{"type":"function","name":"cash","inputs":[{"name":"ilk","type":"bytes32","internalType":"bytes32"},{"name":"wad","type":"uint256","internalType":"uint256"}],"outputs":[],"stateMutability":"nonpayable"},{"type":"function","name":"cat","inputs":[],"outputs":[{"name":"","type":"address","internalType":"contract CatLike"}],"stateMutability":"view"},{"type":"function","name":"cure","inputs":[],"outputs":[{"name":"","type":"address","internalType":"contract CureLike"}],"stateMutability":"view"},{"type":"function","name":"debt","inputs":[],"outputs":[{"name":"","type":"uint256","internalType":"uint256"}],"stateMutability":"view"},{"type":"function","name":"deny","inputs":[{"name":"usr","type":"address","internalType":"address"}],"outputs":[],"stateMutability":"nonpayable"},{"type":"function","name":"dog","inputs":[],"outputs":[{"name":"","type":"address","internalType":"contract DogLike"}],"stateMutability":"view"},{"type":"function","name":"file","inputs":[{"name":"what","type":"bytes32","internalType":"bytes32"},{"name":"data","type":"uint256","internalType":"uint256"}],"outputs":[],"stateMutability":"nonpayable"},{"type":"function","name":"file","inputs":[{"name":"what","type":"bytes32","internalType":"bytes32"},{"name":"data","type":"address","internalType":"address"}],"outputs":[],"stateMutability":"nonpayable"},{"type":"function","name":"fix","inputs":[{"name":"","type":"bytes32","internalType":"bytes32"}],"outputs":[{"name":"","type":"uint256","internalType":"uint256"}],"stateMutability":"view"},{"type":"function","name":"flow","inputs":[{"name":"ilk","type":"bytes32","internalType":"bytes32"}],"outputs":[],"stateMutability":"nonpayable"},{"type":"function","name":"free","inputs":[{"name":"ilk","type":"bytes32","internalType":"bytes32"}],"outputs":[],"stateMutability":"nonpayable"},{"type":"function","name":"gap","inputs":[{"name":"","type":"bytes32","internalType":"bytes32"}],"outputs":[{"name":"","type":"uint256","internalType":"uint256"}],"stateMutability":"view"},{"type":"function","name":"live","inputs":[],"outputs":[{"name":"","type":"uint256","internalType":"uint256"}],"stateMutability":"view"},{"type":"function","name":"out","inputs":[{"name":"","type":"bytes32","internalType":"bytes32"},{"name":"","type":"address","internalType":"address"}],"outputs":[{"name":"","type":"uint256","internalType":"uint256"}],"stateMutability":"view"},{"type":"function","name":"pack","inputs":[{"name":"wad","type":"uint256","internalType":"uint256"}],"outputs":[],"stateMutability":"nonpayable"},{"type":"function","name":"pot","inputs":[],"outputs":[{"name":"","type":"address","internalType":"contract PotLike"}],"stateMutability":"view"},{"type":"function","name":"rely","inputs":[{"name":"usr","type":"address","internalType":"address"}],"outputs":[],"stateMutability":"nonpayable"},{"type":"function","name":"skim","inputs":[{"name":"ilk","type":"bytes32","internalType":"bytes32"},{"name":"urn","type":"address","internalType":"address"}],"outputs":[],"stateMutability":"nonpayable"},{"type":"function","name":"skip","inputs":[{"name":"ilk","type":"bytes32","internalType":"bytes32"},{"name":"id","type":"uint256","internalType":"uint256"}],"outputs":[],"stateMutability":"nonpayable"},{"type":"function","name":"snip","inputs":[{"name":"ilk","type":"bytes32","internalType":"bytes32"},{"name":"id","type":"uint256","internalType":"uint256"}],"outputs":[],"stateMutability":"nonpayable"},{"type":"function","name":"spot","inputs":[],"outputs":[{"name":"","type":"address","internalType":"contract SpotLike"}],"stateMutability":"view"},{"type":"function","name":"tag","inputs":[{"name":"","type":"bytes32","internalType":"bytes32"}],"outputs":[{"name":"","type":"uint256","internalType":"uint256"}],"stateMutability":"view"},{"type":"function","name":"thaw","inputs":[],"outputs":[],"stateMutability":"nonpayable"},{"type":"function","name":"vat","inputs":[],"outputs":[{"name":"","type":"address","internalType":"contract VatLike"}],"stateMutability":"view"},{"type":"function","name":"vow","inputs":[],"outputs":[{"name":"","type":"address","internalType":"contract VowLike"}],"stateMutability":"view"},{"type":"function","name":"wait","inputs":[],"outputs":[{"name":"","type":"uint256","internalType":"uint256"}],"stateMutability":"view"},{"type":"function","name":"wards","inputs":[{"name":"","type":"address","internalType":"address"}],"outputs":[{"name":"","type":"uint256","internalType":"uint256"}],"stateMutability":"view"},{"type":"function","name":"when","inputs":[],"outputs":[{"name":"","type":"uint256","internalType":"uint256"}],"stateMutability":"view"},{"type":"event","name":"Cage","inputs":[],"anonymous":false},{"type":"event","name":"Cage","inputs":[{"name":"ilk","type":"bytes32","indexed":true,"internalType":"bytes32"}],"anonymous":false},{"type":"event","name":"Cash","inputs":[{"name":"ilk","type":"bytes32","indexed":true,"internalType":"bytes32"},{"name":"usr","type":"address","indexed":true,"internalType":"address"},{"name":"wad","type":"uint256","indexed":false,"internalType":"uint256"}],"anonymous":false},{"type":"event","name":"Deny","inputs":[{"name":"usr","type":"address","indexed":true,"internalType":"address"}],"anonymous":false},{"type":"event","name":"File","inputs":[{"name":"what","type":"bytes32","indexed":true,"internalType":"bytes32"},{"name":"data","type":"uint256","indexed":false,"internalType":"uint256"}],"anonymous":false},{"type":"event","name":"File","inputs":[{"name":"what","type":"bytes32","indexed":true,"internalType":"bytes32"},{"name":"data","type":"address","indexed":false,"internalType":"address"}],"anonymous":false},{"type":"event","name":"Flow","inputs":[{"name":"ilk","type":"bytes32","indexed":true,"internalType":"bytes32"}],"anonymous":false},{"type":"event","name":"Free","inputs":[{"name":"ilk","type":"bytes32","indexed":true,"internalType":"bytes32"},{"name":"usr","type":"address","indexed":true,"internalType":"address"},{"name":"ink","type":"uint256","indexed":false,"internalType":"uint256"}],"anonymous":false},{"type":"event","name":"Pack","inputs":[{"name":"usr","type":"address","indexed":true,"internalType":"address"},{"name":"wad","type":"uint256","indexed":false,"internalType":"uint256"}],"anonymous":false},{"type":"event","name":"Rely","inputs":[{"name":"usr","type":"address","indexed":true,"internalType":"address"}],"anonymous":false},{"type":"event","name":"Skim","inputs":[{"name":"ilk","type":"bytes32","indexed":true,"internalType":"bytes32"},{"name":"urn","type":"address","indexed":true,"internalType":"address"},{"name":"wad","type":"uint256","indexed":false,"internalType":"uint256"},{"name":"art","type":"uint256","indexed":false,"internalType":"uint256"}],"anonymous":false},{"type":"event","name":"Skip","inputs":[{"name":"ilk","type":"bytes32","indexed":true,"internalType":"bytes32"},{"name":"id","type":"uint256","indexed":true,"internalType":"uint256"},{"name":"usr","type":"address","indexed":true,"internalType":"address"},{"name":"tab","type":"uint256","indexed":false,"internalType":"uint256"},{"name":"lot","type":"uint256","indexed":false,"internalType":"uint256"},{"name":"art","type":"uint256","indexed":false,"internalType":"uint256"}],"anonymous":false},{"type":"event","name":"Snip","inputs":[{"name":"ilk","type":"bytes32","indexed":true,"internalType":"bytes32"},{"name":"id","type":"uint256","indexed":true,"internalType":"uint256"},{"name":"usr","type":"address","indexed":true,"internalType":"address"},{"name":"tab","type":"uint256","indexed":false,"internalType":"uint256"},{"name":"lot","type":"uint256","indexed":false,"internalType":"uint256"},{"name":"art","type":"uint256","indexed":false,"internalType":"uint256"}],"anonymous":false},{"type":"event","name":"Thaw","inputs":[],"anonymous":false}],"bytecode":{"object":"0x608080604052346100525733600052600060205260016040600020556001600855337fdd0e34038ac38b2a1ce960229778ac48a8719bc900b6c4f8d0475c6e8b385a60600080a26122c890816100588239f35b600080fdfe608060408181526004908136101561001657600080fd5b600092833560e01c9081630dca59c114611ee15750806329ae811414611e6b57806336569e7714611e4257806338c6de4014611b035780634a10eaa61461198f5780634ba2363a14611966578063503ecf06146115255780635920375c146112da578063626cb3c5146112b257806363fad85e1461128a57806364bd70131461126b57806365fae35e14611200578381636924500914610fb3575080636ea4255514610ec05780636f265b9314610e97578063840782ed14610e6e5783816389ea45d314610c0f575080639255f80914610bd7578063957aa58c14610bb85780639c52a7f114610b4a578063bf353dbb14610b13578063c3b3ad7f14610aea578063c83062c614610944578063c939ebfc14610903578063d4e8be831461069e578063e1340a3d14610676578063e2702fdc146103e6578063e2b0caef146103c7578063e48818131461039a578063e6ee62aa14610372578063ee6447b51461034a5763fe8507c61461018857600080fd5b346103055761019636611efd565b929091828552602091600f83528186205415610309578560018060a01b0360015416858252600f85526b033b2e3c9fd0803ce80000006101d985842054896120ca565b04813b156103055782916084839287519485938492633088df1760e11b84528c8a85015230602485015233604485015260648401525af180156102fb576102e3575b508490526011835281862033600052835261023a8583600020546121db565b8487526011845282872033600052845282600020558386526011835281862033600052835281600020543387526010845282872054106102a25750907f888c7c01b06fd8004523e2bc9a274be1feaa9f03579ae5f568061dac078793c991519384523393a380f35b82606492519162461bcd60e51b8352820152601c60248201527f456e642f696e73756666696369656e742d6261672d62616c616e6365000000006044820152fd5b6102ec90611fbb565b6102f757853861021b565b8580fd5b84513d84823e3d90fd5b8280fd5b82606492519162461bcd60e51b8352820152601760248201527f456e642f6669782d696c6b2d6e6f742d646566696e65640000000000000000006044820152fd5b509034610305576020366003190112610305576020928291358152600c845220549051908152f35b509034610305576020366003190112610305576020928291358152600d845220549051908152f35b8382346103c357816003193601126103c35760025490516001600160a01b039091168152602090f35b5080fd5b8382346103c357816003193601126103c3576020906009549051908152f35b503461030557602090816003193601126106725782359261040960085415612007565b838552600c8352818520546106315760018060a01b03908160015416835160a0816024818b636cb1c69b60e11b968783528c898401525af19081156105b35788916105ff575b50868852600e8652848820558260065416845191825286838301528482602481845afa9182156105b35783929187918a936105bd575b50865163495d32cb60e01b815293849182905afa9182156105b3579086918993610582575b50838651809681936315f789a960e21b8352165afa928315610578578793610545575b50670de0b6b3a764000080820292828404821483151715610530575082040361052b57600c916104fc9161206b565b92848652528320557f4a9efa0a0e3f548761a6924fe06ac5cb94ecdbc08b10d855bbcc04e37c4910db8280a280f35b600080fd5b601190634e487b7160e01b6000525260246000fd5b9092508481813d8311610571575b61055d8183611fe5565b8101031261056d575191386104cd565b8680fd5b503d610553565b84513d89823e3d90fd5b8281939294503d83116105ac575b61059a8183611fe5565b8101031261052b5785905191386104aa565b503d610590565b85513d8a823e3d90fd5b92509250508481813d83116105f8575b6105d78183611fe5565b810103126105f457519083821682036105f4578583929138610485565b8780fd5b503d6105cd565b610620915060a03d811161062a575b6106188183611fe5565b810190612044565b505050503861044f565b503d61060e565b82606492519162461bcd60e51b8352820152601b60248201527f456e642f7461672d696c6b2d616c72656164792d646566696e656400000000006044820152fd5b8380fd5b509034610305576020366003190112610305576020928291358152600e845220549051908152f35b5090346103055781600319360112610305578035916106bb611f29565b91338552846020526106d260018387205414611f3f565b6106e0600160085414611f80565b621d985d60ea1b840361072f5750600180546001600160a01b0319166001600160a01b038416179055600080516020612273833981519152916020915b516001600160a01b039091168152a280f35b6218d85d60ea1b84036107705750600280546001600160a01b0319166001600160a01b0384161790556000805160206122738339815191529160209161071d565b62646f6760e81b84036107b15750600380546001600160a01b0319166001600160a01b0384161790556000805160206122738339815191529160209161071d565b62766f7760e81b84036107ef5780546001600160a01b0319166001600160a01b0384161790556000805160206122738339815191529160209161071d565b621c1bdd60ea1b84036108305750600580546001600160a01b0319166001600160a01b0384161790556000805160206122738339815191529160209161071d565b631cdc1bdd60e21b84036108725750600680546001600160a01b0319166001600160a01b0384161790556000805160206122738339815191529160209161071d565b636375726560e01b84036108b45750600780546001600160a01b0319166001600160a01b0384161790556000805160206122738339815191529160209161071d565b6108ff915191829162461bcd60e51b8352820160609060208152601b60208201527f456e642f66696c652d756e7265636f676e697a65642d706172616d000000000060408201520190565b0390fd5b50903461030557816003193601126103055781602093610921611f29565b9235815260118552209060018060a01b0316600052825280600020549051908152f35b50346103055760203660031901126103055781359061096560085415612007565b60015481516309092f9760e21b815284810184815233602082015290946001600160a01b03929091849187918290036040019082908a9087165af18015610ae05786958791610aad575b50610a77578591906109c7600160ff1b871115612167565b6001548154831692166109d987612218565b90803b15610a735784928360c4928994895197889687956301eeacfd60e61b8752860152336024860152336044860152606485015260848401528160a48401525af18015610a6957610a55575b5050519182527ff26f2b994a5e16f0960958e62541681f9e3e84d4caac2e487d25e0c75243f0d860203393a380f35b610a5e90611fbb565b610672578338610a26565b83513d84823e3d90fd5b8480fd5b606490602084519162461bcd60e51b8352820152601060248201526f456e642f6172742d6e6f742d7a65726f60801b6044820152fd5b9050610ad0919550833d8511610ad9575b610ac88183611fe5565b810190612202565b949094386109af565b503d610abe565b83513d88823e3d90fd5b8382346103c357816003193601126103c35760035490516001600160a01b039091168152602090f35b8382346103c35760203660031901126103c35760209181906001600160a01b03610b3b611f13565b16815280845220549051908152f35b8382346103c35760203660031901126103c35781610b66611f13565b33825281602052610b7c60018484205414611f3f565b6001600160a01b03168082526020829052918120557f184450df2e323acec0ed3b5c7531b81f9b4cdef7914dfd4c0a4317416bb5251b8280a280f35b8382346103c357816003193601126103c3576020906008549051908152f35b8382346103c35760203660031901126103c35760209181906001600160a01b03610bff611f13565b1681526010845220549051908152f35b92905034610e6a5781600319360112610e6a57803591610c2d611f29565b838552600c602052610c43828620541515612107565b60018060a01b03908560a0836001541660248651809a8193636cb1c69b60e11b83528b8b8401525af1948515610e5e57610cb9978296610e39575b5060015485516309092f9760e21b81528281018981526001600160a01b0386166020820152909987928b929088169183918791839160400190565b03925af1958615610dee5782988397610e0d575b50610cfe610ceb916b033b2e3c9fd0803ce80000009283918a6120ca565b04898552600c60205287852054906120ca565b0497888111610e0357610d2990985b888452600d602052610d238a8886205492612229565b906121db565b878352600d60205285832055610d4e600160ff1b808a11159081610df8575b50612167565b83600154168482541691610d618a612218565b91610d6b89612218565b813b156102f757858b610d97899383978d51998a98899788966301eeacfd60e61b8852309288016121a2565b03925af18015610dee57610dda575b50507fa05b7b56166c25efbac063da905f9ea6aa1dc5101f95b43c7a838aace979ab5993835196875260208701521693a380f35b610de390611fbb565b61056d578638610da6565b85513d84823e3d90fd5b905087111538610d48565b50610d2988610d0d565b610cfe9950610ceb919750610e2e90873d8911610ad957610ac88183611fe5565b999099979150610ccd565b610e5291965060a03d811161062a576106188183611fe5565b50505090509438610c7e565b508351903d90823e3d90fd5b5050fd5b8382346103c357816003193601126103c35760075490516001600160a01b039091168152602090f35b8382346103c357816003193601126103c35760065490516001600160a01b039091168152602090f35b50346103055760203660031901126103055782823592610ee3600b541515612236565b60015481546001600160a01b03908116929116610eff8661208b565b90803b15610a7357855163bb35783b60e01b8152339381019384526001600160a01b0390941660208401526040830191909152839183919082908490829060600103925af18015610a6957610f9f575b50503383526010602052610f6682828520546121db565b338452601060205281842055519081527f47a981d8cbc0f6df64c9be4ce0a423071a088bd46c549bbd11a4d566e031fe0c60203392a280f35b610fa890611fbb565b610305578238610f4f565b80848434610e6a5782600319360112610e6a5733835282602052610fdc60018285205414611f3f565b610fea600160085414611f80565b6008839055426009556001546001600160a01b0390811690813b15610a735782518581868183636924500960e01b978883525af18015611168579086916111ec575b50508060025416806111ae575b508060035416803b156102f757858091868651809481938883525af180156111685790869161119a575b505080845416803b156102f757858091868651809481938883525af1801561116857908691611186575b50508060065416803b156102f757858091868651809481938883525af1801561116857908691611172575b50508060055416803b156102f757858091868651809481938883525af1801561116857908691611154575b505060075416803b15610a7357849384928451958693849283525af190811561114b5750611134575b50807f2308ed18a14e800c39b86eb6ea43270105955ca385b603b64eca89f98ae8fbda91a180f35b61113d90611fbb565b61114857808261110c565b80fd5b513d84823e3d90fd5b61115d90611fbb565b610a735784876110e3565b84513d88823e3d90fd5b61117b90611fbb565b610a735784876110b8565b61118f90611fbb565b610a7357848761108d565b6111a390611fbb565b610a73578487611063565b803b156102f757858091868651809481938883525af18015611168579086916111d8575b50611039565b6111e190611fbb565b610a735784876111d2565b6111f590611fbb565b610a7357848761102c565b8382346103c35760203660031901126103c357600161121d611f13565b33845283602052611232828486205414611f3f565b818060a01b031691828452836020528320557fdd0e34038ac38b2a1ce960229778ac48a8719bc900b6c4f8d0475c6e8b385a608280a280f35b8382346103c357816003193601126103c357602090600a549051908152f35b509034610305576020366003190112610305576020928291358152600f845220549051908152f35b5090346103055782600319360112610305575490516001600160a01b03909116815260209150f35b50346103055782600319360112610305576112f760085415612007565b600b546114ee576001548254825163cc1ad1ff60e01b81526001600160a01b03918216818601526020928216908381602481855afa9081156114e45787916114b7575b5061147d5761134e600954600a54906121db565b421061144257908286939286865180968193630dca59c160e01b83525af1928315611168578693611413575b5060075484516353d700e560e01b815295839287928391165afa92831561140a575084926113d8575b506113ae9250612229565b600b557f4df15159e645ba7d02cadde0bc937abef5ad0134623c00de50a31750b85978b98180a180f35b90915082813d8311611403575b6113ef8183611fe5565b8101031261052b576113ae915190386113a3565b503d6113e5565b513d86823e3d90fd5b9092508181813d831161143b575b61142b8183611fe5565b8101031261052b5751918161137a565b503d611421565b835162461bcd60e51b81528086018490526015602482015274115b990bddd85a5d0b5b9bdd0b599a5b9a5cda1959605a1b6044820152606490fd5b835162461bcd60e51b81528086018490526014602482015273456e642f737572706c75732d6e6f742d7a65726f60601b6044820152606490fd5b90508381813d83116114dd575b6114ce8183611fe5565b8101031261052b57513861133a565b503d6114c4565b85513d89823e3d90fd5b906020606492519162461bcd60e51b83528201526011602482015270456e642f646562742d6e6f742d7a65726f60781b6044820152fd5b50346103055761153436611efd565b91818552600c60205261154b818620541515612107565b60018060a01b0385816002541695835160608160248186636cb1c69b60e11b9c8d83528b888401525af1801561195c5784908490611921575b60a09250169760248560015416918751958693849283528a878401525af19182156119175788926118f2575b50835193634423c5f160e01b85528682860152886101009384876024818d5afa998a15610a69578283988497859d61186e575b5050876001541688875416813b156102f757858e899361163793838b518096819584839563f24e23eb60e01b9b8c8652850160409194939294606082019560018060a01b0380921683521660208201520152565b03925af1801561186457908691611850575b50508860015416908988541691803b1561056d5787519182526001600160a01b039092168189019081523060208201526040810193909352918591839182908490829060600103925af180156118325790849161183c575b50508660015416803b156106725783809160248751809481936328ec8bf160e21b8352878c8401525af180156118325790849161181e575b5050803b156103055782809160248c875194859384926326e027f160e01b84528b8401525af1801561181457908391611800575b5050611719908a61206b565b92878252600e60205261172f84848420546121db565b888352600e6020528383205581871215806117f6575b61174e90612167565b85600154168682541691813b1561067257839187838c6117858a8e8b51998a98899788966301eeacfd60e61b8852309288016121a2565b03925af18015610a69576117da575b5050519687526020870193909352604086019290925216927fbfa2310a8897203a59922debd0db38279196d8de5050df84608e2bb3e7790f699080606081015b0390a480f35b6117e690939293611fbb565b6117f257908838611794565b8880fd5b5081841215611745565b61180990611fbb565b6103c357813861170d565b84513d85823e3d90fd5b61182790611fbb565b6103055782386116d9565b85513d86823e3d90fd5b61184590611fbb565b6103055782386116a1565b61185990611fbb565b610a73578438611649565b87513d88823e3d90fd5b94509850509950935085813d83116118eb575b61188b8183611fe5565b810103126117f257888551936020870151996118a8848901612153565b506118b5606089016121ef565b506118c2608089016121ef565b5060e06118d160a08a01612153565b986118de60c08201612153565b5001519a979538806115e3565b503d611881565b61190b91925060a03d811161062a576106188183611fe5565b505050905090386115b0565b84513d8a823e3d90fd5b50506060813d8211611954575b8161193b60609383611fe5565b81010312610305578361194f60a092612153565b611584565b3d915061192e565b85513d85823e3d90fd5b8382346103c357816003193601126103c35760055490516001600160a01b039091168152602090f35b50346103055760209081600319360112610672578235926119b3600b541515612236565b838552600f835281852054611ac2576001548251636cb1c69b60e11b815291820185905260a0908290602490829089906001600160a01b03165af1908115611ab857600f91611a66918791611a95575b50858752600e8552611a5b611a5685611a448a611a326b033b2e3c9fd0803ce8000000968794859320546120ca565b048a8c52600c8a52888c2054906120ca565b04888a52600d8852868a205490612229565b61208b565b90600b54049061206b565b92848652528320557f8d1d5ae676a6db1f6f14414f8a6c78941bbfb700fe3f3be6d3245f26c2f2d5508280a280f35b611aad915060a03d811161062a576106188183611fe5565b505050905038611a03565b82513d87823e3d90fd5b82606492519162461bcd60e51b8352820152601b60248201527f456e642f6669782d696c6b2d616c72656164792d646566696e656400000000006044820152fd5b503461030557611b1236611efd565b91818552600c602052611b29818620541515612107565b60018060a01b0385816003541695835160808160248186636cb1c69b60e11b9c8d83528b888401525af1801561195c5784908490611e07575b60a09250169760248560015416918751958693849283528a878401525af1918215611917578892611de2575b50835163b5f522f760e01b81528181018790529360c0856024818b5afa928315611dd85789988a968b95611d6d575b5085600154168b87865416823b156103c357855163f24e23eb60e01b81526001600160a01b039091168188018181526020810191909152604081018e90529092839182908490829060600103925af18015611d6357611d4e575b5090818b923b156103055782809160248c875194859384926326e027f160e01b84528b8401525af1801561181457908391611d3a575b5050611c59908a61206b565b92878252600e602052611c6f84848420546121db565b888352600e602052838320558187121580611d30575b611c8e90612167565b85600154168682541691813b1561067257839187838c611cc58a8e8b51998a98899788966301eeacfd60e61b8852309288016121a2565b03925af18015610a6957611d18575b5050519687526020870193909352604086019290925216927ffc67e20caaffa015d51f696df8ea5c273ba269c69bdc2ec31c1334d01286eaa49080606081016117d4565b611d2490939293611fbb565b6117f257908838611cd4565b5081841215611c85565b611d4390611fbb565b6103c3578138611c4d565b611d5b909b91929b611fbb565b999038611c17565b84513d8e823e3d90fd5b96509350975060c0853d8211611dd0575b81611d8b60c09383611fe5565b810103126117f25760208501519781860151986080611dac60608901612153565b9701516bffffffffffffffffffffffff811603611dcc5798959338611bbd565b8a80fd5b3d9150611d7e565b81513d8b823e3d90fd5b611dfb91925060a03d811161062a576106188183611fe5565b50505090509038611b8e565b50506080813d8211611e3a575b81611e2160809383611fe5565b810103126103055783611e3560a092612153565b611b62565b3d9150611e14565b8382346103c357816003193601126103c35760015490516001600160a01b039091168152602090f35b503461030557611e7a36611efd565b91909233855284602052611e9360018387205414611f3f565b611ea1600160085414611f80565b631dd85a5d60e21b84036108b45750816020917fe986e40cc8c151830d4f61050f4fb2e4add8567caad2d5f5496f9158e91fe4c793600a5551908152a280f35b8490346103c357816003193601126103c357602090600b548152f35b604090600319011261052b576004359060243590565b600435906001600160a01b038216820361052b57565b602435906001600160a01b038216820361052b57565b15611f4657565b60405162461bcd60e51b8152602060048201526012602482015271115b990bdb9bdd0b585d5d1a1bdc9a5e995960721b6044820152606490fd5b15611f8757565b60405162461bcd60e51b815260206004820152600c60248201526b456e642f6e6f742d6c69766560a01b6044820152606490fd5b67ffffffffffffffff8111611fcf57604052565b634e487b7160e01b600052604160045260246000fd5b90601f8019910116810190811067ffffffffffffffff821117611fcf57604052565b1561200e57565b60405162461bcd60e51b815260206004820152600e60248201526d456e642f7374696c6c2d6c69766560901b6044820152606490fd5b908160a091031261052b578051916020820151916040810151916080606083015192015190565b8115612075570490565b634e487b7160e01b600052601260045260246000fd5b906b033b2e3c9fd0803ce800000091828102928184048114821517156120b45783040361052b57565b634e487b7160e01b600052601160045260246000fd5b6000929180159182156120e1575b50501561052b57565b808202945091508115828504821417156120b4576120ff908461206b565b1438806120d8565b1561210e57565b60405162461bcd60e51b815260206004820152601760248201527f456e642f7461672d696c6b2d6e6f742d646566696e65640000000000000000006044820152606490fd5b51906001600160a01b038216820361052b57565b1561216e57565b60405162461bcd60e51b815260206004820152600c60248201526b456e642f6f766572666c6f7760a01b6044820152606490fd5b9081526001600160a01b03918216602082015291811660408301529091166060820152608081019190915260a081019190915260c00190565b91908201918281116120b457821061052b57565b519065ffffffffffff8216820361052b57565b919082604091031261052b576020825192015190565b600160ff1b81146120b45760000390565b9081039081116120b45790565b1561223d57565b60405162461bcd60e51b815260206004820152600d60248201526c456e642f646562742d7a65726f60981b6044820152606490fdfe8fef588b5fc1afbf5b2f06c1a435d513f208da2e6704c3d8f0e0ec91167066baa2646970667358221220a8ab24ae2a19def6e90f6460ef17425bbfacf9552dac91657b32a844580e437b64736f6c63430008130033","linkReferences":{}},"methodIdentifiers":{"Art(bytes32)":"e1340a3d","bag(address)":"9255f809","cage()":"69245009","cage(bytes32)":"e2702fdc","cash(bytes32,uint256)":"fe8507c6","cat()":"e4881813","cure()":"840782ed","debt()":"0dca59c1","deny(address)":"9c52a7f1","dog()":"c3b3ad7f","file(bytes32,address)":"d4e8be83","file(bytes32,uint256)":"29ae8114","fix(bytes32)":"63fad85e","flow(bytes32)":"4a10eaa6","free(bytes32)":"c83062c6","gap(bytes32)":"e6ee62aa","live()":"957aa58c","out(bytes32,address)":"c939ebfc","pack(uint256)":"6ea42555","pot()":"4ba2363a","rely(address)":"65fae35e","skim(bytes32,address)":"89ea45d3","skip(bytes32,uint256)":"503ecf06","snip(bytes32,uint256)":"38c6de40","spot()":"6f265b93","tag(bytes32)":"ee6447b5","thaw()":"5920375c","vat()":"36569e77","vow()":"626cb3c5","wait()":"64bd7013","wards(address)":"bf353dbb","when()":"e2b0caef"},"id":22}