{"abi":[{"type":"constructor","inputs":[{"name":"_name","type":"string","internalType":"string"},{"name":"_symbol","type":"string","internalType":"string"},{"name":"__decimals","type":"uint8","internalType":"uint8"}],"stateMutability":"nonpayable"},{"type":"function","name":"allowance","inputs":[{"name":"","type":"address","internalType":"address"},{"name":"","type":"address","internalType":"address"}],"outputs":[{"name":"","type":"uint256","internalType":"uint256"}],"stateMutability":"view"},{"type":"function","name":"approve","inputs":[{"name":"spender","type":"address","internalType":"address"},{"name":"amount","type":"uint256","internalType":"uint256"}],"outputs":[{"name":"","type":"bool","internalType":"bool"}],"stateMutability":"nonpayable"},{"type":"function","name":"approve","inputs":[{"name":"spender","type":"address","internalType":"address"}],"outputs":[{"name":"","type":"bool","internalType":"bool"}],"stateMutability":"nonpayable"},{"type":"function","name":"balanceOf","inputs":[{"name":"","type":"address","internalType":"address"}],"outputs":[{"name":"","type":"uint256","internalType":"uint256"}],"stateMutability":"view"},{"type":"function","name":"burn","inputs":[{"name":"from","type":"address","internalType":"address"},{"name":"amount","type":"uint256","internalType":"uint256"}],"outputs":[],"stateMutability":"nonpayable"},{"type":"function","name":"decimals","inputs":[],"outputs":[{"name":"","type":"uint8","internalType":"uint8"}],"stateMutability":"view"},{"type":"function","name":"mint","inputs":[{"name":"to","type":"address","internalType":"address"},{"name":"amount","type":"uint256","internalType":"uint256"}],"outputs":[],"stateMutability":"nonpayable"},{"type":"function","name":"mint","inputs":[{"name":"amount","type":"uint256","internalType":"uint256"}],"outputs":[],"stateMutability":"nonpayable"},{"type":"function","name":"move","inputs":[{"name":"from","type":"address","internalType":"address"},{"name":"to","type":"address","internalType":"address"},{"name":"amount","type":"uint256","internalType":"uint256"}],"outputs":[],"stateMutability":"nonpayable"},{"type":"function","name":"name","inputs":[],"outputs":[{"name":"","type":"string","internalType":"string"}],"stateMutability":"view"},{"type":"function","name":"owner","inputs":[],"outputs":[{"name":"","type":"address","internalType":"address"}],"stateMutability":"view"},{"type":"function","name":"pull","inputs":[{"name":"from","type":"address","internalType":"address"},{"name":"amount","type":"uint256","internalType":"uint256"}],"outputs":[],"stateMutability":"nonpayable"},{"type":"function","name":"push","inputs":[{"name":"to","type":"address","internalType":"address"},{"name":"amount","type":"uint256","internalType":"uint256"}],"outputs":[],"stateMutability":"nonpayable"},{"type":"function","name":"setOwner","inputs":[{"name":"newOwner","type":"address","internalType":"address"}],"outputs":[],"stateMutability":"nonpayable"},{"type":"function","name":"symbol","inputs":[],"outputs":[{"name":"","type":"string","internalType":"string"}],"stateMutability":"view"},{"type":"function","name":"totalSupply","inputs":[],"outputs":[{"name":"","type":"uint256","internalType":"uint256"}],"stateMutability":"view"},{"type":"function","name":"transfer","inputs":[{"name":"to","type":"address","internalType":"address"},{"name":"amount","type":"uint256","internalType":"uint256"}],"outputs":[{"name":"","type":"bool","internalType":"bool"}],"stateMutability":"nonpayable"},{"type":"function","name":"transferFrom","inputs":[{"name":"from","type":"address","internalType":"address"},{"name":"to","type":"address","internalType":"address"},{"name":"amount","type":"uint256","internalType":"uint256"}],"outputs":[{"name":"","type":"bool","internalType":"bool"}],"stateMutability":"nonpayable"},{"type":"event","name":"Approval","inputs":[{"name":"owner","type":"address","indexed":true,"internalType":"address"},{"name":"spender","type":"address","indexed":true,"internalType":"address"},{"name":"value","type":"uint256","indexed":false,"internalType":"uint256"}],"anonymous":false},{"type":"event","name":"SetOwner","inputs":[{"name":"newOwner","type":"address","indexed":true,"internalType":"address"}],"anonymous":false},{"type":"event","name":"Transfer","inputs":[{"name":"from","type":"address","indexed":true,"internalType":"address"},{"name":"to","type":"address","indexed":true,"internalType":"address"},{"name":"value","type":"uint256","indexed":false,"internalType":"uint256"}],"anonymous":false}],"bytecode":{"object":"0x6080604052346200034f5762000d73803803806200001d8162000354565b9283398101906060818303126200034f5780516001600160401b03908181116200034f57836200004f9184016200037a565b90602093848401518281116200034f576040916200006f9186016200037a565b9301519260ff84168094036200034f57825190828211620003395760008054926001958685811c951680156200032e575b898610146200031a578190601f95868111620002c7575b5089908683116001146200026357849262000257575b5050600019600383901b1c191690861b1781555b8151938411620002435784548581811c9116801562000238575b888210146200022457838111620001dc575b508692841160011462000176578394959650926200016a575b5050600019600383901b1c191690821b1790555b6002805460ff1916919091179055600480546001600160a01b031916331790556040516109869081620003ed8239f35b01519050388062000126565b9190601f1984169685845280842093905b888210620001c45750508385969710620001aa575b505050811b0190556200013a565b015160001960f88460031b161c191690553880806200019c565b80878596829496860151815501950193019062000187565b8582528782208480870160051c8201928a88106200021a575b0160051c019086905b8281106200020e5750506200010d565b838155018690620001fe565b92508192620001f5565b634e487b7160e01b82526022600452602482fd5b90607f1690620000fb565b634e487b7160e01b81526041600452602490fd5b015190503880620000cd565b8480528a85208994509190601f198416865b8d828210620002b0575050841162000296575b505050811b018155620000e1565b015160001960f88460031b161c1916905538808062000288565b8385015186558c9790950194938401930162000275565b9091508380528984208680850160051c8201928c861062000310575b918a91869594930160051c01915b82811062000301575050620000b7565b8681558594508a9101620002f1565b92508192620002e3565b634e487b7160e01b83526022600452602483fd5b94607f1694620000a0565b634e487b7160e01b600052604160045260246000fd5b600080fd5b6040519190601f01601f191682016001600160401b038111838210176200033957604052565b919080601f840112156200034f5782516001600160401b0381116200033957602090620003b0601f8201601f1916830162000354565b928184528282870101116200034f5760005b818110620003d857508260009394955001015290565b8581018301518482018401528201620003c256fe608060408181526004918236101561001657600080fd5b600092833560e01c91826306fdde03146105c257508163095ea7b31461055157816313af4035146104ee57816318160ddd146104cf57816323b872dd146104b9578163313ce5671461049757816340c10f191461047257816370a082311461043a5781638da5cb5b1461040e57816395d89b41146102ee578382639dc29fac1461026c57508163a0712d681461024b57508063a9059cbb14610223578063b753a98c146101fe578063bb35783b146101e6578063daea85c514610170578063dd62ed3e1461011d5763f2d5d56b146100ed57600080fd5b3461011957366003190112610116576101126101076106e1565b6024359033906107ad565b5080f35b80fd5b5080fd5b50346101195780600319360112610119576101366106e1565b6001600160a01b03602435818116929083900361016c579160209491849316825260068552828220908252845220549051908152f35b8480fd5b5034610119576020366003190112610119576020918161018e6106e1565b33808452600686528284206001600160a01b03909216808552918652919092206000199081905583519081527f8c5be1e5ebec7d5bd14f71427d1e84f3dd0314c0f7b2291e5b200ac8c7c3b925908590a35160018152f35b8234610116576101126101f8366106fc565b916107ad565b503461011957366003190112610116576101126102196106e1565b60243590336107ad565b50346101195780600319360112610119576020906102426102196106e1565b90519015158152f35b839034610119576020366003190112610119576102699035336108e3565b80f35b8084346102eb57806003193601126102eb5760008051602061093183398151915260206102976106e1565b6001600160a01b031680855260058252838520549093602435916102bd90831115610731565b848652600583528086206102d283825461077d565b90556102e08260035461077d565b60035551908152a380f35b50fd5b83833461011957816003193601126101195780519082600180549081811c90808316928315610404575b60209384841081146103f1578388529081156103d55750600114610380575b505050829003601f01601f191682019267ffffffffffffffff84118385101761036d5750829182610369925282610698565b0390f35b634e487b7160e01b815260418552602490fd5b8087529192508591837fb10e2d527612073b26eecdfd717e6a320cf44b4afac2b0732d9fcbe2b7fa0cf65b8385106103c15750505050830101858080610337565b8054888601830152930192849082016103ab565b60ff1916878501525050151560051b8401019050858080610337565b634e487b7160e01b895260228a52602489fd5b91607f1691610318565b9050346104365782600319360112610436575490516001600160a01b03909116815260209150f35b8280fd5b5050346101195760203660031901126101195760209181906001600160a01b036104626106e1565b1681526005845220549051908152f35b505034610119573660031901126101165761026961048e6106e1565b602435906108e3565b50503461011957816003193601126101195760209060ff600254169051908152f35b505034610119576020906102426101f8366106fc565b5050346101195781600319360112610119576020906003549051908152f35b839034610119576020366003190112610119576001600160a01b036105116106e1565b1690816bffffffffffffffffffffffff60a01b8254161790557f167d3e9c1016ab80e58802ca9da10ce5c6a0f4debc46a2e7a2cd9e56899a4fb58280a280f35b5050346101195780600319360112610119576020918161056f6106e1565b91602435918291338152600687528181209460018060a01b0316948582528752205582519081527f8c5be1e5ebec7d5bd14f71427d1e84f3dd0314c0f7b2291e5b200ac8c7c3b925843392a35160018152f35b84908434610436578260031936011261043657828354600181811c9080831692831561068e575b60209384841081146103f1578388529081156103d5575060011461063957505050829003601f01601f191682019267ffffffffffffffff84118385101761036d5750829182610369925282610698565b8680529192508591837f290decd9548b62a8d60345a988386fc84ba6bc95484008f6362f93160ef3e5635b83851061067a5750505050830101858080610337565b805488860183015293019284908201610664565b91607f16916105e9565b6020808252825181830181905290939260005b8281106106cd57505060409293506000838284010152601f8019910116010190565b8181018601518482016040015285016106ab565b600435906001600160a01b03821682036106f757565b600080fd5b60609060031901126106f7576001600160a01b039060043582811681036106f7579160243590811681036106f7579060443590565b1561073857565b60405162461bcd60e51b815260206004820152601f60248201527f4d6f636b45524332303a20696e73756666696369656e742062616c616e6365006044820152606490fd5b9190820391821161078a57565b634e487b7160e01b600052601160045260246000fd5b9190820180921161078a57565b92919060018060a01b0380941690600092828452602091600583526040906107da83838820541015610731565b33850361082f575b8596978291866000805160206109318339815191529798526005865282892061080c86825461077d565b9055169687815260058552206108238382546107a0565b905551908152a3600190565b8486526006845281862033875284528186205460018101610851575b506107e2565b838110610895579782916108778560008051602061093183398151915298999a9b61077d565b888a5260068752838a20338b528752838a205591509796959461084b565b825162461bcd60e51b815260048101869052602160248201527f4d6f636b45524332303a20696e73756666696369656e7420616c6c6f77616e636044820152606560f81b6064820152608490fd5b600080516020610931833981519152602060009260018060a01b03169384845260058252604084206109168282546107a0565b9055610924816003546107a0565b600355604051908152a356feddf252ad1be2c89b69c2b068fc378daa952ba7f163c4a11628f55a4df523b3efa26469706673582212202573c72d24c151812fbfc3c2a1132bb6886216b62435f685d2e9bd596537e94964736f6c63430008130033","linkReferences":{}},"methodIdentifiers":{"allowance(address,address)":"dd62ed3e","approve(address)":"daea85c5","approve(address,uint256)":"095ea7b3","balanceOf(address)":"70a08231","burn(address,uint256)":"9dc29fac","decimals()":"313ce567","mint(address,uint256)":"40c10f19","mint(uint256)":"a0712d68","move(address,address,uint256)":"bb35783b","name()":"06fdde03","owner()":"8da5cb5b","pull(address,uint256)":"f2d5d56b","push(address,uint256)":"b753a98c","setOwner(address)":"13af4035","symbol()":"95d89b41","totalSupply()":"18160ddd","transfer(address,uint256)":"a9059cbb","transferFrom(address,address,uint256)":"23b872dd"},"id":32}