{"abi":[{"type":"constructor","inputs":[{"name":"vat_","type":"address","internalType":"address"},{"name":"gem_","type":"address","internalType":"address"}],"stateMutability":"nonpayable"},{"type":"function","name":"beg","inputs":[],"outputs":[{"name":"","type":"uint256","internalType":"uint256"}],"stateMutability":"view"},{"type":"function","name":"bids","inputs":[{"name":"","type":"uint256","internalType":"uint256"}],"outputs":[{"name":"bid","type":"uint256","internalType":"uint256"},{"name":"lot","type":"uint256","internalType":"uint256"},{"name":"guy","type":"address","internalType":"address"},{"name":"tic","type":"uint48","internalType":"uint48"},{"name":"end","type":"uint48","internalType":"uint48"}],"stateMutability":"view"},{"type":"function","name":"cage","inputs":[{"name":"rad","type":"uint256","internalType":"uint256"}],"outputs":[],"stateMutability":"nonpayable"},{"type":"function","name":"deal","inputs":[{"name":"id","type":"uint256","internalType":"uint256"}],"outputs":[],"stateMutability":"nonpayable"},{"type":"function","name":"deny","inputs":[{"name":"usr","type":"address","internalType":"address"}],"outputs":[],"stateMutability":"nonpayable"},{"type":"function","name":"file","inputs":[{"name":"what","type":"bytes32","internalType":"bytes32"},{"name":"data","type":"uint256","internalType":"uint256"}],"outputs":[],"stateMutability":"nonpayable"},{"type":"function","name":"fill","inputs":[],"outputs":[{"name":"","type":"uint256","internalType":"uint256"}],"stateMutability":"view"},{"type":"function","name":"gem","inputs":[],"outputs":[{"name":"","type":"address","internalType":"contract GemLike"}],"stateMutability":"view"},{"type":"function","name":"kick","inputs":[{"name":"lot","type":"uint256","internalType":"uint256"},{"name":"bid","type":"uint256","internalType":"uint256"}],"outputs":[{"name":"id","type":"uint256","internalType":"uint256"}],"stateMutability":"nonpayable"},{"type":"function","name":"kicks","inputs":[],"outputs":[{"name":"","type":"uint256","internalType":"uint256"}],"stateMutability":"view"},{"type":"function","name":"lid","inputs":[],"outputs":[{"name":"","type":"uint256","internalType":"uint256"}],"stateMutability":"view"},{"type":"function","name":"live","inputs":[],"outputs":[{"name":"","type":"uint256","internalType":"uint256"}],"stateMutability":"view"},{"type":"function","name":"rely","inputs":[{"name":"usr","type":"address","internalType":"address"}],"outputs":[],"stateMutability":"nonpayable"},{"type":"function","name":"tau","inputs":[],"outputs":[{"name":"","type":"uint48","internalType":"uint48"}],"stateMutability":"view"},{"type":"function","name":"tend","inputs":[{"name":"id","type":"uint256","internalType":"uint256"},{"name":"lot","type":"uint256","internalType":"uint256"},{"name":"bid","type":"uint256","internalType":"uint256"}],"outputs":[],"stateMutability":"nonpayable"},{"type":"function","name":"tick","inputs":[{"name":"id","type":"uint256","internalType":"uint256"}],"outputs":[],"stateMutability":"nonpayable"},{"type":"function","name":"ttl","inputs":[],"outputs":[{"name":"","type":"uint48","internalType":"uint48"}],"stateMutability":"view"},{"type":"function","name":"vat","inputs":[],"outputs":[{"name":"","type":"address","internalType":"contract VatLike"}],"stateMutability":"view"},{"type":"function","name":"wards","inputs":[{"name":"","type":"address","internalType":"address"}],"outputs":[{"name":"","type":"uint256","internalType":"uint256"}],"stateMutability":"view"},{"type":"function","name":"yank","inputs":[{"name":"id","type":"uint256","internalType":"uint256"}],"outputs":[],"stateMutability":"nonpayable"},{"type":"event","name":"AuthorityGranted","inputs":[{"name":"usr","type":"address","indexed":true,"internalType":"address"}],"anonymous":false},{"type":"event","name":"AuthorityRevoked","inputs":[{"name":"usr","type":"address","indexed":true,"internalType":"address"}],"anonymous":false},{"type":"event","name":"Cage","inputs":[{"name":"rad","type":"uint256","indexed":false,"internalType":"uint256"}],"anonymous":false},{"type":"event","name":"Deal","inputs":[{"name":"id","type":"uint256","indexed":true,"internalType":"uint256"}],"anonymous":false},{"type":"event","name":"File","inputs":[{"name":"what","type":"bytes32","indexed":true,"internalType":"bytes32"},{"name":"data","type":"uint256","indexed":false,"internalType":"uint256"}],"anonymous":false},{"type":"event","name":"Kick","inputs":[{"name":"id","type":"uint256","indexed":true,"internalType":"uint256"},{"name":"lot","type":"uint256","indexed":false,"internalType":"uint256"},{"name":"bid","type":"uint256","indexed":false,"internalType":"uint256"}],"anonymous":false},{"type":"event","name":"Tend","inputs":[{"name":"id","type":"uint256","indexed":true,"internalType":"uint256"},{"name":"lot","type":"uint256","indexed":false,"internalType":"uint256"},{"name":"bid","type":"uint256","indexed":false,"internalType":"uint256"}],"anonymous":false},{"type":"event","name":"Tick","inputs":[{"name":"id","type":"uint256","indexed":true,"internalType":"uint256"}],"anonymous":false},{"type":"event","name":"Yank","inputs":[{"name":"id","type":"uint256","indexed":true,"internalType":"uint256"}],"anonymous":false}],"bytecode":{"object":"0x6080346100c857601f61134938819003918201601f19168301916001600160401b038311848410176100cd5780849260409485528339810103126100c857610052602061004b836100e3565b92016100e3565b670e92596fd62900006004556802a300000000002a3060018060601b031960055416176005556000600655336000526000602052600160406000205560018060a01b03908160018060a01b0319931683600254161760025516906003541617600355600160075560405161125190816100f88239f35b600080fd5b634e487b7160e01b600052604160045260246000fd5b51906001600160a01b03821682036100c85756fe608060408181526004908136101561001657600080fd5b600092833560e01c90816326d2addc146110675750806326e027f114610f2157806329ae811414610dcc57806336569e7714610da35780634423c5f114610d445780634b43ed12146108ea5780634e8b1dd5146108c357806365fae35e146108535780637bd2bea71461082a5780637d780d821461080c578063957aa58c146107ed578381639c52a7f11461077e57508063a2f91af2146106bb578063bf353dbb14610682578063c959c42b146104b8578063ca40c41914610276578063cfc4af551461024c578063cfdd33021461022d578063d9c55ce11461020a5763fc7b6aee1461010257600080fd5b346102065760203660031901126102065781359182845260016020526101326002838620015460d01c4211611169565b828452600160205265ffffffffffff90816002848720015460a01c166101c3575090600261016d8361019c9460055460301c16904216611131565b84865260016020529185200180546001600160d01b031660d09290921b6001600160d01b031916919091179055565b7fb8c95b3cea6303a753d912e243354ef08add1085ed07d34191514ef1001ef9d88280a280f35b606490602084519162461bcd60e51b8352820152601a60248201527f466c61707065722f6269642d616c72656164792d706c616365640000000000006044820152fd5b8280fd5b8382346102295781600319360112610229576020906009549051908152f35b5080fd5b8382346102295781600319360112610229576020906006549051908152f35b83823461022957816003193601126102295760209065ffffffffffff60055460301c169051908152f35b503461020657806003193601126102065781356024353385526020948086526001946102a6868684205414611083565b6102b386600754146110c8565b60065460001980821015610482576009548681019081811161046f57811061046b5780600955600854106104355781146104225786610366910196876006558784528089526002878520868155878382015501336bffffffffffffffffffffffff60a01b82541617905561033765ffffffffffff8060055460301c16904216611131565b88855290895286842060020180546001600160d01b031660d09290921b6001600160d01b031916919091179055565b6002546001600160a01b031690813b1561020657855163bb35783b60e01b8152339181019182523060208301526040820186905294939291829186919082908490829060600103925af18015610416579186939186936103f6575b507fe6dde59cbc017becba89714a037778d234a84ce7f0a137487142a007e580d609939450825191825287820152a251908152f35b92509250926104058291611107565b6104135782859285926103c1565b80fd5b508451903d90823e3d90fd5b634e487b7160e01b835260118252602483fd5b865162461bcd60e51b81528084018a9052601060248201526f119b185c1c195c8bdbdd995c8b5b1a5960821b6044820152606490fd5b8480fd5b634e487b7160e01b865260118552602486fd5b865162461bcd60e51b81528084018a9052601060248201526f466c61707065722f6f766572666c6f7760801b6044820152606490fd5b509034610206576020366003190112610206578035916001906104de82600754146110c8565b8385528160205261050d6002828720015465ffffffffffff8160a01c16908115159182610661575b5050611169565b838552816020528481812093838501549460018060a01b0390816002818154169201541690803b1561046b57855163bb35783b60e01b8152308582019081526001600160a01b03909316602084015260408301899052918591839182908490829060600103925af1801561065757908491610643575b505060035416908683528460205283832054823b1561063f57604484928387519586948593632770a7eb60e21b8552309085015260248401525af1801561063557610621575b50916000600292868295528260205287209181835582015501556105f060095491826111ee565b908111610206576009557f71a76872b00dbc7728a966e65795cf08a847d5a061e6f9a666baaf3d601931db8280a280f35b61062a90611107565b61046b5784386105c9565b83513d84823e3d90fd5b8380fd5b61064c90611107565b610206578238610583565b85513d86823e3d90fd5b421191508115610674575b503880610506565b9050429060d01c103861066c565b50903461020657602036600319011261020657356001600160a01b03811690819003610206578282916020945280845220549051908152f35b50346102065760203660031901126102065782823592338252816020526106e760018484205414611083565b60078290556002546001600160a01b0316803b1561020657835163bb35783b60e01b81523092810192835233602084015260408301869052918391839182908490829060600103925af180156106355761076a575b507f8b2f35c645f75532175a00d9b4565154e45c8eb57ee0155e03d0958f3a4d4b896020848451908152a180f35b61077390611107565b61020657823861073c565b8281853461022957602036600319011261022957356001600160a01b038116929083900361022957338252816020526107bc60018284205414611083565b828252816020528120557f568441e3a3b6a2622a0a2ba98496a75dd275b5e7cbe3bf3df35641b93cb9d3988280a280f35b8382346102295781600319360112610229576020906007549051908152f35b50903461020657826003193601126102065760209250549051908152f35b83823461022957816003193601126102295760035490516001600160a01b039091168152602090f35b50903461020657602036600319011261020657356001600160a01b03811691908290036102065760019033845283602052610892828286205414611083565b828452836020528320557fbdd25288242d7a27d9494755ef7f8e5cbcd7f1d8ea73cd139ea251c86c6f27018280a280f35b83823461022957816003193601126102295760209065ffffffffffff600554169051908152f35b503461020657606036600319011261020657808235926024908135916044848135938960019361091d85600754146110c8565b8a825260209585875261094260018060a01b03809460029788912001541615156111ac565b8b8d528587528c8565ffffffffffff9c8d9220015460a01c16428111908115610d3b575b5015610cfb578b8d528587528c858b429220015460d01c1115610cbb57858a8e8e8152828a522001548903610c7b578b8d52858752898d2054881115610c4257670de0b6b3a76400008089029089820481148a151715610c2e578990820403610bdf5784548d8f528789528b8f2054600092918115918215610be4575b505015610bdf5710610b9f575050908a918a8352848652888320818582015416803303610b00575b50506003541690610a1f89842054886111ee565b823b1561063f57895163bb35783b60e01b815233928101928352306020840152604083019190915291839183919082908490829060600103925af18015610af657610ade575b507fa679d55253c3ee26605ebe5dd2fb3b0194579ef2853099b5102c283a4e667ecd9789610aa3925283855285888c20558060055416904216611131565b888a5291835285892001805465ffffffffffff60a01b191660a09290921b65ffffffffffff60a01b169190911790558351928352820152a280f35b610ae790611107565b610af2578838610a65565b8880fd5b88513d84823e3d90fd5b82600354169154823b15610b9b578b5163bb35783b60e01b8152338682019081526001600160a01b039093166020840152604083019190915291859183919082908490829060600103925af18015610b9157908491610b7d575b508b9052848652888320840180546001600160a01b031916331790553880610a0b565b610b8690611107565b610206578238610b5a565b8a513d86823e3d90fd5b8580fd5b7f466c61707065722f696e73756666696369656e742d696e637265617365000000606492601d86938a8e519562461bcd60e51b8752860152840152820152fd5b600080fd5b90919381830290838204831484151715610c1c57508094610c0857041438806109e3565b8560128a634e487b7160e01b600052526000fd5b634e487b7160e01b815260118a528690fd5b82601187634e487b7160e01b600052526000fd5b75233630b83832b917b134b216b737ba16b434b3b432b960511b606492601686938a8e519562461bcd60e51b8752860152840152820152fd5b7f466c61707065722f6c6f742d6e6f742d6d61746368696e670000000000000000606492601886938a8e519562461bcd60e51b8752860152840152820152fd5b7f466c61707065722f616c72656164792d66696e69736865642d656e6400000000606492601c86938a8e519562461bcd60e51b8752860152840152820152fd5b7f466c61707065722f616c72656164792d66696e69736865642d74696300000000606492601c86938a8e519562461bcd60e51b8752860152840152820152fd5b90501538610966565b5090346102065760203660031901126102065760a0928291358152600160205220805491600260018301549201549181519384526020840152600180851b0382169083015265ffffffffffff81841c16606083015260d01c6080820152f35b83823461022957816003193601126102295760025490516001600160a01b039091168152602090f35b5090346102065781600319360112610206578035916024359133855284602052610dfb60018387205414611083565b6262656760e81b8403610e275791602091816000805160206111fc83398151915294555b51908152a280f35b621d1d1b60ea1b8403610e6657508160209165ffffffffffff6000805160206111fc833981519152941665ffffffffffff196005541617600555610e1f565b6274617560e81b8403610eb557506000805160206111fc833981519152916020916005546bffffffffffff0000000000008360301b16906bffffffffffff000000000000191617600555610e1f565b621b1a5960ea1b8403610edf5750816020916000805160206111fc83398151915293600855610e1f565b6020606492519162461bcd60e51b8352820152601f60248201527f466c61707065722f66696c652d756e7265636f676e697a65642d706172616d006044820152fd5b5034610206576020366003190112610206578135916007546110305782845260016020528184206002015484906001600160a01b0390610f6490821615156111ac565b8060035416858352600160205284832091600283015416915491813b1561063f57855163bb35783b60e01b8152309581019586526001600160a01b0390911660208601526040850192909252909283919082908490829060600103925af180156110265761100f575b5060026000918385526001602052842082815582600182015501557f2c5d2826eb5903b8fc201cf48094b858f42f61c7eaac9aaf43ebed490138144e8280a280f35b6000919361101e600292611107565b939150610fcd565b82513d86823e3d90fd5b6020606492519162461bcd60e51b83528201526012602482015271466c61707065722f7374696c6c2d6c69766560701b6044820152fd5b8490346102295781600319360112610229576020906008548152f35b1561108a57565b60405162461bcd60e51b8152602060048201526016602482015275119b185c1c195c8bdb9bdd0b585d5d1a1bdc9a5e995960521b6044820152606490fd5b156110cf57565b60405162461bcd60e51b815260206004820152601060248201526f466c61707065722f6e6f742d6c69766560801b6044820152606490fd5b67ffffffffffffffff811161111b57604052565b634e487b7160e01b600052604160045260246000fd5b919065ffffffffffff80809416911681019280841161115357831610610bdf57565b634e487b7160e01b600052601160045260246000fd5b1561117057565b60405162461bcd60e51b8152602060048201526014602482015273119b185c1c195c8bdb9bdd0b599a5b9a5cda195960621b6044820152606490fd5b156111b357565b60405162461bcd60e51b8152602060048201526013602482015272119b185c1c195c8bd9dd5e4b5b9bdd0b5cd95d606a1b6044820152606490fd5b919082039182116111535756fee986e40cc8c151830d4f61050f4fb2e4add8567caad2d5f5496f9158e91fe4c7a264697066735822122073437696b5dab2683545e8c037d0b25d975793356ca7fda1d42b4ec5763d046d64736f6c63430008130033","linkReferences":{}},"methodIdentifiers":{"beg()":"7d780d82","bids(uint256)":"4423c5f1","cage(uint256)":"a2f91af2","deal(uint256)":"c959c42b","deny(address)":"9c52a7f1","file(bytes32,uint256)":"29ae8114","fill()":"d9c55ce1","gem()":"7bd2bea7","kick(uint256,uint256)":"ca40c419","kicks()":"cfdd3302","lid()":"26d2addc","live()":"957aa58c","rely(address)":"65fae35e","tau()":"cfc4af55","tend(uint256,uint256,uint256)":"4b43ed12","tick(uint256)":"fc7b6aee","ttl()":"4e8b1dd5","vat()":"36569e77","wards(address)":"bf353dbb","yank(uint256)":"26e027f1"},"id":23}