{"abi":[{"type":"constructor","inputs":[{"name":"vat_","type":"address","internalType":"address"},{"name":"gem_","type":"address","internalType":"address"}],"stateMutability":"nonpayable"},{"type":"function","name":"beg","inputs":[],"outputs":[{"name":"","type":"uint256","internalType":"uint256"}],"stateMutability":"view"},{"type":"function","name":"bids","inputs":[{"name":"","type":"uint256","internalType":"uint256"}],"outputs":[{"name":"bid","type":"uint256","internalType":"uint256"},{"name":"lot","type":"uint256","internalType":"uint256"},{"name":"guy","type":"address","internalType":"address"},{"name":"tic","type":"uint48","internalType":"uint48"},{"name":"end","type":"uint48","internalType":"uint48"}],"stateMutability":"view"},{"type":"function","name":"cage","inputs":[],"outputs":[],"stateMutability":"nonpayable"},{"type":"function","name":"deal","inputs":[{"name":"id","type":"uint256","internalType":"uint256"}],"outputs":[],"stateMutability":"nonpayable"},{"type":"function","name":"dent","inputs":[{"name":"id","type":"uint256","internalType":"uint256"},{"name":"lot","type":"uint256","internalType":"uint256"},{"name":"bid","type":"uint256","internalType":"uint256"}],"outputs":[],"stateMutability":"nonpayable"},{"type":"function","name":"deny","inputs":[{"name":"usr","type":"address","internalType":"address"}],"outputs":[],"stateMutability":"nonpayable"},{"type":"function","name":"file","inputs":[{"name":"what","type":"bytes32","internalType":"bytes32"},{"name":"data","type":"uint256","internalType":"uint256"}],"outputs":[],"stateMutability":"nonpayable"},{"type":"function","name":"gem","inputs":[],"outputs":[{"name":"","type":"address","internalType":"contract GemLike"}],"stateMutability":"view"},{"type":"function","name":"kick","inputs":[{"name":"gal","type":"address","internalType":"address"},{"name":"lot","type":"uint256","internalType":"uint256"},{"name":"bid","type":"uint256","internalType":"uint256"}],"outputs":[{"name":"id","type":"uint256","internalType":"uint256"}],"stateMutability":"nonpayable"},{"type":"function","name":"kicks","inputs":[],"outputs":[{"name":"","type":"uint256","internalType":"uint256"}],"stateMutability":"view"},{"type":"function","name":"live","inputs":[],"outputs":[{"name":"","type":"uint256","internalType":"uint256"}],"stateMutability":"view"},{"type":"function","name":"pad","inputs":[],"outputs":[{"name":"","type":"uint256","internalType":"uint256"}],"stateMutability":"view"},{"type":"function","name":"rely","inputs":[{"name":"usr","type":"address","internalType":"address"}],"outputs":[],"stateMutability":"nonpayable"},{"type":"function","name":"tau","inputs":[],"outputs":[{"name":"","type":"uint48","internalType":"uint48"}],"stateMutability":"view"},{"type":"function","name":"tick","inputs":[{"name":"id","type":"uint256","internalType":"uint256"}],"outputs":[],"stateMutability":"nonpayable"},{"type":"function","name":"ttl","inputs":[],"outputs":[{"name":"","type":"uint48","internalType":"uint48"}],"stateMutability":"view"},{"type":"function","name":"vat","inputs":[],"outputs":[{"name":"","type":"address","internalType":"contract VatLike"}],"stateMutability":"view"},{"type":"function","name":"vow","inputs":[],"outputs":[{"name":"","type":"address","internalType":"address"}],"stateMutability":"view"},{"type":"function","name":"wards","inputs":[{"name":"","type":"address","internalType":"address"}],"outputs":[{"name":"","type":"uint256","internalType":"uint256"}],"stateMutability":"view"},{"type":"function","name":"yank","inputs":[{"name":"id","type":"uint256","internalType":"uint256"}],"outputs":[],"stateMutability":"nonpayable"},{"type":"event","name":"AuthorityGranted","inputs":[{"name":"usr","type":"address","indexed":true,"internalType":"address"}],"anonymous":false},{"type":"event","name":"AuthorityRevoked","inputs":[{"name":"usr","type":"address","indexed":true,"internalType":"address"}],"anonymous":false},{"type":"event","name":"Cage","inputs":[],"anonymous":false},{"type":"event","name":"Deal","inputs":[{"name":"id","type":"uint256","indexed":true,"internalType":"uint256"}],"anonymous":false},{"type":"event","name":"Dent","inputs":[{"name":"id","type":"uint256","indexed":true,"internalType":"uint256"},{"name":"lot","type":"uint256","indexed":false,"internalType":"uint256"},{"name":"bid","type":"uint256","indexed":false,"internalType":"uint256"}],"anonymous":false},{"type":"event","name":"File","inputs":[{"name":"what","type":"bytes32","indexed":true,"internalType":"bytes32"},{"name":"data","type":"uint256","indexed":false,"internalType":"uint256"}],"anonymous":false},{"type":"event","name":"Kick","inputs":[{"name":"id","type":"uint256","indexed":true,"internalType":"uint256"},{"name":"lot","type":"uint256","indexed":false,"internalType":"uint256"},{"name":"bid","type":"uint256","indexed":false,"internalType":"uint256"},{"name":"gal","type":"address","indexed":true,"internalType":"address"}],"anonymous":false},{"type":"event","name":"Tick","inputs":[{"name":"id","type":"uint256","indexed":true,"internalType":"uint256"}],"anonymous":false},{"type":"event","name":"Yank","inputs":[{"name":"id","type":"uint256","indexed":true,"internalType":"uint256"}],"anonymous":false}],"bytecode":{"object":"0x6080346100d457601f6111f638819003918201601f19168301916001600160401b038311848410176100d95780849260409485528339810103126100d457610052602061004b836100ef565b92016100ef565b670e92596fd62900006004556714d1120d7b1600006005556802a300000000002a3060018060601b031960065416176006556000600755336000526000602052600160406000205560018060a01b03908160018060a01b031993168360025416176002551690600354161760035560016008556040516110f290816101048239f35b600080fd5b634e487b7160e01b600052604160045260246000fd5b51906001600160a01b03821682036100d45756fe608060408181526004908136101561001657600080fd5b600092833560e01c90816326e027f114610da55750806329ae811414610ca557806336569e7714610c7c5780634423c5f114610c1d5780634e8b1dd514610bf6578381635ff3a3821461072857508063626cb3c5146106ff57806365fae35e14610694578063692450091461064c5780637bd2bea7146106235780637d780d82146106055780639361266c146105e6578063957aa58c146105c75780639c52a7f114610559578063b7e9cd24146103f2578063bf353dbb146103bb578063c959c42b14610288578063cfc4af551461025e578063cfdd33021461023b5763fc7b6aee1461010257600080fd5b346102375760209081600319360112610233578235928385526001908184526101356002848820015460d01c4211610fa5565b84865281845265ffffffffffff90816002858920015460a01c166101f057509160029161019e6101c99594670de0b6b3a76400006101816005548a8c5285895285878d20015490610fe8565b04888a5283875283858b2001558060065460301c16904216610f6d565b868852935285200180546001600160d01b031660d09290921b6001600160d01b031916919091179055565b7fb8c95b3cea6303a753d912e243354ef08add1085ed07d34191514ef1001ef9d88280a280f35b835162461bcd60e51b8152908101859052601a60248201527f466c6f707065722f6269642d616c72656164792d706c616365640000000000006044820152606490fd5b8380fd5b8280fd5b83823461025a578160031936011261025a576020906007549051908152f35b5080fd5b83823461025a578160031936011261025a5760209065ffffffffffff60065460301c169051908152f35b50903461023757602036600319011261023757803591836001926102af8460085414610f2e565b848252836020526102de6002848420015465ffffffffffff8160a01c1690811515918261039a575b5050610fa5565b600354858352602085905283832060028101549086015492916001600160a01b039182169116803b1561039657849283604492885196879586946340c10f1960e01b865285015260248401525af1801561038c57610378575b50916000600292858295528260205286209181835582015501557f71a76872b00dbc7728a966e65795cf08a847d5a061e6f9a666baaf3d601931db8280a280f35b61038190611092565b610233578338610337565b83513d84823e3d90fd5b8480fd5b4211915081156103ad575b5038806102d7565b9050429060d01c10386103a5565b83823461025a57602036600319011261025a5760209181906001600160a01b036103e3610ed3565b16815280845220549051908152f35b5082903461025a57606036600319011261025a5761040e610ed3565b6024359360443594338552602095858752600192610430848789205414610ee9565b61043d8460085414610f2e565b6007549060001980831015610523578214610510575091859161050089600285887f7e8881001566f9f89aedb9c5dc3d856a2b81e5235a8196413ed484be91cc0df698019b8c998a6007558a8252808552838383208881558983820155019b60018060a01b03169b8c6bffffffffffffffffffffffff60a01b8254161790556104d665ffffffffffff8060065460301c16904216610f6d565b8b83529452200180546001600160d01b031660d09290921b6001600160d01b031916919091179055565b825191825288820152a351908152f35b634e487b7160e01b885260119052602487fd5b875162461bcd60e51b81528083018b9052601060248201526f466c6f707065722f6f766572666c6f7760801b6044820152606490fd5b83823461025a57602036600319011261025a5781610575610ed3565b3382528160205261058b60018484205414610ee9565b6001600160a01b03168082526020829052918120557f568441e3a3b6a2622a0a2ba98496a75dd275b5e7cbe3bf3df35641b93cb9d3988280a280f35b83823461025a578160031936011261025a576020906008549051908152f35b83823461025a578160031936011261025a576020906005549051908152f35b50903461023757826003193601126102375760209250549051908152f35b83823461025a578160031936011261025a5760035490516001600160a01b039091168152602090f35b83823461025a578160031936011261025a576001610674913384528360205283205414610ee9565b80600855336bffffffffffffffffffffffff60a01b600954161760095580f35b83823461025a57602036600319011261025a5760016106b1610ed3565b338452836020526106c6828486205414610ee9565b818060a01b031691828452836020528320557fbdd25288242d7a27d9494755ef7f8e5cbcd7f1d8ea73cd139ea251c86c6f27018280a280f35b83823461025a578160031936011261025a5760095490516001600160a01b039091168152602090f35b9190503461025a57606036600319011261025a57823592602490813591604490848083359460019361075d8560085414610f2e565b8a8a5260209585875261078260018060a01b03809c6002978891200154161515611050565b8b8d528587528c8565ffffffffffff95869220015460a01c16428111908115610bed575b5015610bad578b8d528587528c858b429220015460d01c1115610b6d578b8d52858752898d20548803610b2d57858a8e8e8152828a52200154891015610af5578b868b8f6107f58d8854610fe8565b938152828b5220015490670de0b6b3a76400009182810292818404811482151715610ae157830403610adc5711610a9c5750908b918b83528587528a858b85200154168033036108b9575b5050507f1a7c615e2d533f6d4e4ad32750dbd62249b24789379f9ed92f4ce9deab61f2af98509086848961087e942001558060065416904216610f6d565b888a5291835285892001805465ffffffffffff60a01b191660a09290921b65ffffffffffff60a01b169190911790558351928352820152a280f35b8b865416803b15610396578b5163bb35783b60e01b8152338582019081526001600160a01b039093166020840152604083018b9052918591839182908490829060600103925af18015610a9257908491610a7e575b508c9052858752848a842001549a848c60a01c1615610972575b505050899052828452868a20820180546001600160a01b031916331790557f1a7c615e2d533f6d4e4ad32750dbd62249b24789379f9ed92f4ce9deab61f2af975089388080610840565b87818486979e8e519788938492630a874acf60e21b8452165af1938415610a74578594610a12575b508c85528688528a8520860154169280891115610a0a57905b833b15610396578492838c51958694859363128342ad60e11b85528401525af18015610a00576109e8575b9081808a93610928565b6109f190611092565b6109fc5788386109de565b8880fd5b88513d84823e3d90fd5b5087906109b3565b919293509350863d8811610a6d575b601f8101601f1916820167ffffffffffffffff811183821017610a5957828f96959493928a928e52810103126103965751923861099a565b83604186634e487b7160e01b600052526000fd5b503d610a21565b8b513d87823e3d90fd5b610a8790611092565b61023757823861090e565b8b513d86823e3d90fd5b60649350601d7f466c6f707065722f696e73756666696369656e742d646563726561736500000092888c519562461bcd60e51b8752860152840152820152fd5b600080fd5b85601188634e487b7160e01b600052526000fd5b60649350601574233637b83832b917b637ba16b737ba16b637bbb2b960591b92888c519562461bcd60e51b8752860152840152820152fd5b6064935060187f466c6f707065722f6e6f742d6d61746368696e672d626964000000000000000092888c519562461bcd60e51b8752860152840152820152fd5b60649350601c7f466c6f707065722f616c72656164792d66696e69736865642d656e640000000092888c519562461bcd60e51b8752860152840152820152fd5b60649350601c7f466c6f707065722f616c72656164792d66696e69736865642d7469630000000092888c519562461bcd60e51b8752860152840152820152fd5b905015386107a6565b83823461025a578160031936011261025a5760209065ffffffffffff600654169051908152f35b5090346102375760203660031901126102375760a0928291358152600160205220805491600260018301549201549181519384526020840152600180851b0382169083015265ffffffffffff81841c16606083015260d01c6080820152f35b83823461025a578160031936011261025a5760025490516001600160a01b039091168152602090f35b5090346102375781600319360112610237578035916024359233855284602052610cd460018387205414610ee9565b6262656760e81b8103610ce75750505580f35b621c185960ea1b8103610cfd5750505060055580f35b621d1d1b60ea1b8103610d285750505065ffffffffffff1665ffffffffffff19600654161760065580f35b6274617560e81b03610d625750506bffffffffffff0000000000006006549160301b16906bffffffffffff00000000000019161760065580f35b906020606492519162461bcd60e51b8352820152601f60248201527f466c6f707065722f66696c652d756e7265636f676e697a65642d706172616d006044820152fd5b919290503461023357602036600319011261023357803591600854610e9e575081845260016020528284206002015484906001600160a01b0390610dec9082161515611050565b80600254168160095416858452600160205286842092600284015416925494823b1561039657875163f24e23eb60e01b81526001600160a01b039283169181019182529190931660208401526040830194909452839182908490829060600103925af18015610e9157610e78575b50600091600291845260016020528320828155826001820155015580f35b9160029193610e88600094611092565b93915091610e5a565b50505051903d90823e3d90fd5b602060649262461bcd60e51b83528201526012602482015271466c6f707065722f7374696c6c2d6c69766560701b6044820152fd5b600435906001600160a01b0382168203610adc57565b15610ef057565b60405162461bcd60e51b8152602060048201526016602482015275119b1bdc1c195c8bdb9bdd0b585d5d1a1bdc9a5e995960521b6044820152606490fd5b15610f3557565b60405162461bcd60e51b815260206004820152601060248201526f466c6f707065722f6e6f742d6c69766560801b6044820152606490fd5b919065ffffffffffff808094169116810192808411610f8f57831610610adc57565b634e487b7160e01b600052601160045260246000fd5b15610fac57565b60405162461bcd60e51b8152602060048201526014602482015273119b1bdc1c195c8bdb9bdd0b599a5b9a5cda195960621b6044820152606490fd5b6000929183918115918215611005575b5050156110025750565b80fd5b8181929396500282810482148315171561103c5780956110285704143880610ff8565b634e487b7160e01b84526012600452602484fd5b634e487b7160e01b84526011600452602484fd5b1561105757565b60405162461bcd60e51b8152602060048201526013602482015272119b1bdc1c195c8bd9dd5e4b5b9bdd0b5cd95d606a1b6044820152606490fd5b67ffffffffffffffff81116110a657604052565b634e487b7160e01b600052604160045260246000fdfea2646970667358221220e5dc2bd4b18dad4da2f645df475cb9310072063f3deda7fa2bfcb7d90cadca0064736f6c63430008130033","linkReferences":{}},"methodIdentifiers":{"beg()":"7d780d82","bids(uint256)":"4423c5f1","cage()":"69245009","deal(uint256)":"c959c42b","dent(uint256,uint256,uint256)":"5ff3a382","deny(address)":"9c52a7f1","file(bytes32,uint256)":"29ae8114","gem()":"7bd2bea7","kick(address,uint256,uint256)":"b7e9cd24","kicks()":"cfdd3302","live()":"957aa58c","pad()":"9361266c","rely(address)":"65fae35e","tau()":"cfc4af55","tick(uint256)":"fc7b6aee","ttl()":"4e8b1dd5","vat()":"36569e77","vow()":"626cb3c5","wards(address)":"bf353dbb","yank(uint256)":"26e027f1"},"id":24}