{"abi":[{"type":"constructor","inputs":[{"name":"vat_","type":"address","internalType":"address"},{"name":"ilk_","type":"bytes32","internalType":"bytes32"},{"name":"gem_","type":"address","internalType":"address"}],"stateMutability":"nonpayable"},{"type":"function","name":"cage","inputs":[],"outputs":[],"stateMutability":"nonpayable"},{"type":"function","name":"dec","inputs":[],"outputs":[{"name":"","type":"uint256","internalType":"uint256"}],"stateMutability":"view"},{"type":"function","name":"deny","inputs":[{"name":"usr","type":"address","internalType":"address"}],"outputs":[],"stateMutability":"nonpayable"},{"type":"function","name":"exit","inputs":[{"name":"usr","type":"address","internalType":"address"},{"name":"amt","type":"uint256","internalType":"uint256"}],"outputs":[],"stateMutability":"nonpayable"},{"type":"function","name":"gem","inputs":[],"outputs":[{"name":"","type":"address","internalType":"contract GemLike"}],"stateMutability":"view"},{"type":"function","name":"ilk","inputs":[],"outputs":[{"name":"","type":"bytes32","internalType":"bytes32"}],"stateMutability":"view"},{"type":"function","name":"join","inputs":[{"name":"usr","type":"address","internalType":"address"},{"name":"amt","type":"uint256","internalType":"uint256"}],"outputs":[],"stateMutability":"nonpayable"},{"type":"function","name":"live","inputs":[],"outputs":[{"name":"","type":"uint256","internalType":"uint256"}],"stateMutability":"view"},{"type":"function","name":"rely","inputs":[{"name":"usr","type":"address","internalType":"address"}],"outputs":[],"stateMutability":"nonpayable"},{"type":"function","name":"vat","inputs":[],"outputs":[{"name":"","type":"address","internalType":"contract VatLike"}],"stateMutability":"view"},{"type":"function","name":"wards","inputs":[{"name":"","type":"address","internalType":"address"}],"outputs":[{"name":"","type":"uint256","internalType":"uint256"}],"stateMutability":"view"},{"type":"event","name":"Cage","inputs":[],"anonymous":false},{"type":"event","name":"Deny","inputs":[{"name":"usr","type":"address","indexed":true,"internalType":"address"}],"anonymous":false},{"type":"event","name":"Exit","inputs":[{"name":"usr","type":"address","indexed":true,"internalType":"address"},{"name":"wad","type":"uint256","indexed":false,"internalType":"uint256"}],"anonymous":false},{"type":"event","name":"Join","inputs":[{"name":"usr","type":"address","indexed":true,"internalType":"address"},{"name":"wad","type":"uint256","indexed":false,"internalType":"uint256"}],"anonymous":false},{"type":"event","name":"Rely","inputs":[{"name":"usr","type":"address","indexed":true,"internalType":"address"}],"anonymous":false}],"bytecode":{"object":"0x60806040908082523461017d5760608161098f80380380916100218285610182565b83398101031261017d57610034816101bb565b6020828101519290916001600160a01b039182906100539087016101bb565b169260048160018060a01b0319958087600354161760035588519283809263313ce56760e01b82525afa90811561017257600091610133575b5060ff601291168060045510156100f057600090338252526001856000205560016005551690600154161760015560025551337fdd0e34038ac38b2a1ce960229778ac48a8719bc900b6c4f8d0475c6e8b385a60600080a26107bf90816101d08239f35b60649086519062461bcd60e51b82526004820152601e60248201527f47656d4a6f696e352f646563696d616c732d31382d6f722d68696768657200006044820152fd5b8281813d831161016b575b6101488183610182565b8101031261016757519060ff82168203610164575060ff61008c565b80fd5b5080fd5b503d61013e565b87513d6000823e3d90fd5b600080fd5b601f909101601f19168101906001600160401b038211908210176101a557604052565b634e487b7160e01b600052604160045260246000fd5b51906001600160a01b038216820361017d5756fe608060408181526004908136101561001657600080fd5b600092833560e01c90816336569e77146105dc575080633b4da69f1461042657806365fae35e146103bf578063692450091461036d5780637bd2bea714610344578063957aa58c146103255780639c52a7f1146102c0578063b3bcfa82146102a2578063bf353dbb1461026b578063c5ce281e146102485763ef693bed1461009d57600080fd5b346102445780600319360112610244576100b5610601565b9060243591835460120360128111610231576100d36100d99161061c565b84610730565b6100e586821215610640565b6001546002546001600160a01b03929183169190600160ff1b821461021e5790829189933b1561021a578651633e6e9fef60e11b8152808a0191825233602083015291840360408201529091839183919082908490829060600103925af18015610210576101f8575b50508060446020926003541693888651958694859363a9059cbb60e01b855216809a8401528860248401525af19081156101ee57916101b97f22d324652c93739755cf4581508b60875ebdd78c20c0cff5cf8e23452b299631949260209488916101c1575b506106e4565b51908152a280f35b6101e19150853d81116101e7575b6101d981836106aa565b8101906106cc565b386101b3565b503d6101cf565b82513d87823e3d90fd5b61020190610680565b61020c57853861014e565b8580fd5b85513d84823e3d90fd5b8380fd5b634e487b7160e01b895260118852602489fd5b634e487b7160e01b865260118552602486fd5b8280fd5b8382346102675781600319360112610267576020906002549051908152f35b5080fd5b8382346102675760203660031901126102675760209181906001600160a01b03610293610601565b16815280845220549051908152f35b50903461024457826003193601126102445760209250549051908152f35b83823461026757602036600319011261026757816102dc610601565b3382528160205260018383205403610267576001600160a01b0316808252918120557f184450df2e323acec0ed3b5c7531b81f9b4cdef7914dfd4c0a4317416bb5251b8280a280f35b8382346102675781600319360112610267576020906005549051908152f35b83823461026757816003193601126102675760035490516001600160a01b039091168152602090f35b83823461026757816003193601126102675760019033835282602052822054036103bc57806005557f2308ed18a14e800c39b86eb6ea43270105955ca385b603b64eca89f98ae8fbda8180a180f35b80fd5b838234610267576020366003190112610267576103da610601565b3383528260205260018284205403610244576001600160a01b0316808352908220600190557fdd0e34038ac38b2a1ce960229778ac48a8719bc900b6c4f8d0475c6e8b385a608280a280f35b509034610244578160031936011261024457610440610601565b602435926001600554036105a6578254601203601281116105935761046761046d9161061c565b85610730565b9261047a86851215610640565b6001546002546001600160a01b039590918891908716803b15610244578551633e6e9fef60e11b81528581019485526001600160a01b03881660208601526040850192909252909283919082908490829060600103925af1801561058957610577575b50602086916064866003541691855194859384926323b872dd60e01b845233908401523060248401528a60448401525af190811561056d579161054c602094927fb4e09949657f21548b58afe74e7b86cd2295da5ff1598ae1e5faecb1cf19ca959694899161055657506106e4565b519485521692a280f35b6101e19150863d81116101e7576101d981836106aa565b82513d88823e3d90fd5b95610583602097610680565b956104dd565b83513d89823e3d90fd5b634e487b7160e01b865260118452602486fd5b5162461bcd60e51b8152602081840152601160248201527047656d4a6f696e352f6e6f742d6c69766560781b6044820152606490fd5b8490346102675781600319360112610267576001546001600160a01b03168152602090f35b600435906001600160a01b038216820361061757565b600080fd5b604d811161062a57600a0a90565b634e487b7160e01b600052601160045260246000fd5b1561064757565b60405162461bcd60e51b815260206004820152601160248201527047656d4a6f696e352f6f766572666c6f7760781b6044820152606490fd5b67ffffffffffffffff811161069457604052565b634e487b7160e01b600052604160045260246000fd5b90601f8019910116810190811067ffffffffffffffff82111761069457604052565b90816020910312610617575180151581036106175790565b156106eb57565b60405162461bcd60e51b815260206004820152601860248201527f47656d4a6f696e352f6661696c65642d7472616e7366657200000000000000006044820152606490fd5b600091801591821561074b575b505061074890610640565b90565b908092935081029181830481148215171561062a57829361077357610748920414903861073d565b634e487b7160e01b600052601260045260246000fdfea26469706673582212201ca3c3bf509981de2052b370f9538b251e4875cf42f77aa7b4a5bd6f6db0003c64736f6c63430008130033","linkReferences":{}},"methodIdentifiers":{"cage()":"69245009","dec()":"b3bcfa82","deny(address)":"9c52a7f1","exit(address,uint256)":"ef693bed","gem()":"7bd2bea7","ilk()":"c5ce281e","join(address,uint256)":"3b4da69f","live()":"957aa58c","rely(address)":"65fae35e","vat()":"36569e77","wards(address)":"bf353dbb"},"id":25}