{"abi":[{"type":"constructor","inputs":[{"name":"vat_","type":"address","internalType":"address"},{"name":"ilk_","type":"bytes32","internalType":"bytes32"},{"name":"gem_","type":"address","internalType":"address"}],"stateMutability":"nonpayable"},{"type":"function","name":"cage","inputs":[],"outputs":[],"stateMutability":"nonpayable"},{"type":"function","name":"dec","inputs":[],"outputs":[{"name":"","type":"uint256","internalType":"uint256"}],"stateMutability":"view"},{"type":"function","name":"deny","inputs":[{"name":"usr","type":"address","internalType":"address"}],"outputs":[],"stateMutability":"nonpayable"},{"type":"function","name":"exit","inputs":[{"name":"usr","type":"address","internalType":"address"},{"name":"wad","type":"uint256","internalType":"uint256"}],"outputs":[],"stateMutability":"nonpayable"},{"type":"function","name":"gem","inputs":[],"outputs":[{"name":"","type":"address","internalType":"contract GemLike"}],"stateMutability":"view"},{"type":"function","name":"ilk","inputs":[],"outputs":[{"name":"","type":"bytes32","internalType":"bytes32"}],"stateMutability":"view"},{"type":"function","name":"join","inputs":[{"name":"usr","type":"address","internalType":"address"},{"name":"wad","type":"uint256","internalType":"uint256"}],"outputs":[],"stateMutability":"nonpayable"},{"type":"function","name":"live","inputs":[],"outputs":[{"name":"","type":"uint256","internalType":"uint256"}],"stateMutability":"view"},{"type":"function","name":"rely","inputs":[{"name":"usr","type":"address","internalType":"address"}],"outputs":[],"stateMutability":"nonpayable"},{"type":"function","name":"vat","inputs":[],"outputs":[{"name":"","type":"address","internalType":"contract VatLike"}],"stateMutability":"view"},{"type":"function","name":"wards","inputs":[{"name":"","type":"address","internalType":"address"}],"outputs":[{"name":"","type":"uint256","internalType":"uint256"}],"stateMutability":"view"},{"type":"event","name":"Cage","inputs":[],"anonymous":false},{"type":"event","name":"Deny","inputs":[{"name":"usr","type":"address","indexed":true,"internalType":"address"}],"anonymous":false},{"type":"event","name":"Exit","inputs":[{"name":"usr","type":"address","indexed":true,"internalType":"address"},{"name":"wad","type":"uint256","indexed":false,"internalType":"uint256"}],"anonymous":false},{"type":"event","name":"Join","inputs":[{"name":"usr","type":"address","indexed":true,"internalType":"address"},{"name":"wad","type":"uint256","indexed":false,"internalType":"uint256"}],"anonymous":false},{"type":"event","name":"Rely","inputs":[{"name":"usr","type":"address","indexed":true,"internalType":"address"}],"anonymous":false}],"bytecode":{"object":"0x608060408181523461012d576060826108a380380380916100208285610132565b83398101031261012d5760046100358361016b565b602080916100488583880151970161016b565b95600096338852878452600187892055600160055560018060a01b03918260018060a01b03199416846001541617600155600255168091600354161760035584519384809263313ce56760e01b82525afa9081156101205784916100e3575b5060ff91501660045551907fdd0e34038ac38b2a1ce960229778ac48a8719bc900b6c4f8d0475c6e8b385a60339180a261072390816101808239f35b905081813d8311610119575b6100f98183610132565b81010312610115575160ff811681036101155760ff90386100a7565b8280fd5b503d6100ef565b50505051903d90823e3d90fd5b600080fd5b601f909101601f19168101906001600160401b0382119082101761015557604052565b634e487b7160e01b600052604160045260246000fd5b51906001600160a01b038216820361012d5756fe608060408181526004908136101561001657600080fd5b600092833560e01c90816336569e7714610579575080633b4da69f146103fb57806365fae35e14610390578063692450091461033d5780637bd2bea714610314578063957aa58c146102f55780639c52a7f114610287578063b3bcfa8214610269578063bf353dbb14610232578063c5ce281e1461020f5763ef693bed1461009d57600080fd5b346101f857806003193601126101f8576100b561059e565b6024359190600160ff1b6100cb818511156105fe565b6001546002546001600160a01b0392909183169086146101fc57908188923b156101f8578551633e6e9fef60e11b81528089019283523360208401528784036040840152918391839182908490829060600103925af180156101ee576101d6575b50508060446020926003541693888651958694859363a9059cbb60e01b855216809a8401528860248401525af19081156101cc57916101977f22d324652c93739755cf4581508b60875ebdd78c20c0cff5cf8e23452b2996319492602094889161019f575b506106a1565b51908152a280f35b6101bf9150853d81116101c5575b6101b78183610667565b810190610689565b38610191565b503d6101ad565b82513d87823e3d90fd5b6101df9061063d565b6101ea57853861012c565b8580fd5b85513d84823e3d90fd5b8280fd5b634e487b7160e01b885260118752602488fd5b83823461022e578160031936011261022e576020906002549051908152f35b5080fd5b83823461022e57602036600319011261022e5760209181906001600160a01b0361025a61059e565b16815280845220549051908152f35b5090346101f857826003193601126101f85760209250549051908152f35b83823461022e57602036600319011261022e57816102a361059e565b338252816020526102b9600184842054146105b9565b6001600160a01b03168082526020829052918120557f184450df2e323acec0ed3b5c7531b81f9b4cdef7914dfd4c0a4317416bb5251b8280a280f35b83823461022e578160031936011261022e576020906005549051908152f35b83823461022e578160031936011261022e5760035490516001600160a01b039091168152602090f35b83823461022e578160031936011261022e5760016103659133845283602052832054146105b9565b806005557f2308ed18a14e800c39b86eb6ea43270105955ca385b603b64eca89f98ae8fbda8180a180f35b83823461022e57602036600319011261022e5760016103ad61059e565b338452836020526103c28284862054146105b9565b818060a01b031691828452836020528320557fdd0e34038ac38b2a1ce960229778ac48a8719bc900b6c4f8d0475c6e8b385a608280a280f35b5090346101f857816003193601126101f85761041561059e565b602435926001600554036105445761042f858512156105fe565b6001546002546001600160a01b0394918516908790823b1561022e578451633e6e9fef60e11b81528481019182526001600160a01b03871660208301526040820189905292839182908490829060600103925af1801561053a57610528575b50602086916064866003541691855194859384926323b872dd60e01b845233908401523060248401528a60448401525af190811561051e57916104fd602094927fb4e09949657f21548b58afe74e7b86cd2295da5ff1598ae1e5faecb1cf19ca959694899161050757506106a1565b519485521692a280f35b6101bf9150863d81116101c5576101b78183610667565b82513d88823e3d90fd5b9561053460209761063d565b9561048e565b83513d89823e3d90fd5b5162461bcd60e51b8152602081840152601060248201526f47656d4a6f696e2f6e6f742d6c69766560801b6044820152606490fd5b84903461022e578160031936011261022e576001546001600160a01b03168152602090f35b600435906001600160a01b03821682036105b457565b600080fd5b156105c057565b60405162461bcd60e51b815260206004820152601660248201527511d95b529bda5b8bdb9bdd0b585d5d1a1bdc9a5e995960521b6044820152606490fd5b1561060557565b60405162461bcd60e51b815260206004820152601060248201526f47656d4a6f696e2f6f766572666c6f7760801b6044820152606490fd5b67ffffffffffffffff811161065157604052565b634e487b7160e01b600052604160045260246000fd5b90601f8019910116810190811067ffffffffffffffff82111761065157604052565b908160209103126105b4575180151581036105b45790565b156106a857565b60405162461bcd60e51b815260206004820152601760248201527f47656d4a6f696e2f6661696c65642d7472616e736665720000000000000000006044820152606490fdfea2646970667358221220a836ca5d9ef25f0e259819413ef21ed8c186278c70983fff2aec64c2de74ba5c64736f6c63430008130033","linkReferences":{}},"methodIdentifiers":{"cage()":"69245009","dec()":"b3bcfa82","deny(address)":"9c52a7f1","exit(address,uint256)":"ef693bed","gem()":"7bd2bea7","ilk()":"c5ce281e","join(address,uint256)":"3b4da69f","live()":"957aa58c","rely(address)":"65fae35e","vat()":"36569e77","wards(address)":"bf353dbb"},"id":26}