{"abi":[{"type":"constructor","inputs":[{"name":"vat_","type":"address","internalType":"address"}],"stateMutability":"nonpayable"},{"type":"function","name":"base","inputs":[],"outputs":[{"name":"","type":"uint256","internalType":"uint256"}],"stateMutability":"view"},{"type":"function","name":"deny","inputs":[{"name":"usr","type":"address","internalType":"address"}],"outputs":[],"stateMutability":"nonpayable"},{"type":"function","name":"drip","inputs":[{"name":"ilk","type":"bytes32","internalType":"bytes32"}],"outputs":[{"name":"rate","type":"uint256","internalType":"uint256"}],"stateMutability":"nonpayable"},{"type":"function","name":"file","inputs":[{"name":"ilk","type":"bytes32","internalType":"bytes32"},{"name":"what","type":"bytes32","internalType":"bytes32"},{"name":"data","type":"uint256","internalType":"uint256"}],"outputs":[],"stateMutability":"nonpayable"},{"type":"function","name":"file","inputs":[{"name":"what","type":"bytes32","internalType":"bytes32"},{"name":"data","type":"uint256","internalType":"uint256"}],"outputs":[],"stateMutability":"nonpayable"},{"type":"function","name":"file","inputs":[{"name":"what","type":"bytes32","internalType":"bytes32"},{"name":"data","type":"address","internalType":"address"}],"outputs":[],"stateMutability":"nonpayable"},{"type":"function","name":"ilks","inputs":[{"name":"","type":"bytes32","internalType":"bytes32"}],"outputs":[{"name":"duty","type":"uint256","internalType":"uint256"},{"name":"rho","type":"uint256","internalType":"uint256"}],"stateMutability":"view"},{"type":"function","name":"init","inputs":[{"name":"ilk","type":"bytes32","internalType":"bytes32"}],"outputs":[],"stateMutability":"nonpayable"},{"type":"function","name":"rely","inputs":[{"name":"usr","type":"address","internalType":"address"}],"outputs":[],"stateMutability":"nonpayable"},{"type":"function","name":"vat","inputs":[],"outputs":[{"name":"","type":"address","internalType":"contract VatLike"}],"stateMutability":"view"},{"type":"function","name":"vow","inputs":[],"outputs":[{"name":"","type":"address","internalType":"address"}],"stateMutability":"view"},{"type":"function","name":"wards","inputs":[{"name":"","type":"address","internalType":"address"}],"outputs":[{"name":"","type":"uint256","internalType":"uint256"}],"stateMutability":"view"},{"type":"event","name":"AuthorityGranted","inputs":[{"name":"usr","type":"address","indexed":true,"internalType":"address"}],"anonymous":false},{"type":"event","name":"AuthorityRevoked","inputs":[{"name":"usr","type":"address","indexed":true,"internalType":"address"}],"anonymous":false},{"type":"event","name":"Drip","inputs":[{"name":"ilk","type":"bytes32","indexed":true,"internalType":"bytes32"},{"name":"rate","type":"uint256","indexed":false,"internalType":"uint256"}],"anonymous":false},{"type":"event","name":"File","inputs":[{"name":"what","type":"bytes32","indexed":true,"internalType":"bytes32"},{"name":"data","type":"uint256","indexed":false,"internalType":"uint256"}],"anonymous":false},{"type":"event","name":"File","inputs":[{"name":"ilk","type":"bytes32","indexed":true,"internalType":"bytes32"},{"name":"what","type":"bytes32","indexed":true,"internalType":"bytes32"},{"name":"data","type":"uint256","indexed":false,"internalType":"uint256"}],"anonymous":false}],"bytecode":{"object":"0x60803461008157601f610a5138819003918201601f19168301916001600160401b038311848410176100865780849260209460405283398101031261008157516001600160a01b0381169081900361008157336000526000602052600160406000205560018060a01b031960025416176002556040516109b4908161009d8239f35b600080fd5b634e487b7160e01b600052604160045260246000fdfe6080604052600436101561001257600080fd5b60003560e01c80631a0b287e146100d757806329ae8114146100d257806336569e77146100cd5780633b663195146100c857806344e2a5a8146100c35780635001f3b5146100be578063626cb3c5146100b957806365fae35e146100b45780639c52a7f1146100af578063bf353dbb146100aa578063d4e8be83146100a55763d9638d36146100a057600080fd5b6106ce565b61066a565b610630565b6105be565b61054b565b6104f6565b6104d8565b6102d4565b610242565b610219565b6101cb565b346101c65760603660031901126101c657600435600090338252816020526101056001604084205414610703565b80825260016020526001604083200154420361018b57602435636475747960e01b0361014657610142604435916000526001602052604060002090565b5580f35b60405162461bcd60e51b815260206004820152601b60248201527f4a75672f66696c652d756e7265636f676e697a65642d706172616d00000000006044820152606490fd5b60405162461bcd60e51b8152602060048201526013602482015272129d59cbdc9a1bcb5b9bdd0b5d5c19185d1959606a1b6044820152606490fd5b600080fd5b346101c65760403660031901126101c6573360005260006020526101f6600160406000205414610703565b600435636261736560e01b0361014657602435600455005b60009103126101c657565b346101c65760003660031901126101c6576002546040516001600160a01b039091168152602090f35b346101c65760203660031901126101c65760003381528060205261026c6001604083205414610703565b60043581526001602052604081208054610298576b033b2e3c9fd0803ce8000000815560014291015580f35b60405162461bcd60e51b8152602060048201526014602482015273129d59cbda5b1acb585b1c9958591e4b5a5b9a5d60621b6044820152606490fd5b346101c65760203660031901126101c65760043561030b6001610301836000526001602052604060002090565b0154421015610744565b600254610328906001600160a01b03165b6001600160a01b031690565b60408051636cb1c69b60e11b81526004810184905292818480602481010381600080975af193841561049e5783946104a7575b506103b0846103ab61038460045461037d866000526001602052604060002090565b54906108d7565b6103a5600161039d876000526001602052604060002090565b015442610806565b90610818565b610923565b6002549093906103c8906001600160a01b031661031c565b6003546103df906001600160a01b031696866108eb565b90803b156104a357845163b65337df60e01b8152600481018590526001600160a01b0397909716602488015260448701919091528590606490829084905af193841561049e5761048194610485575b50426001610446836000526001602052604060002090565b015581518381527f2fbd8559330c6faf38d4ee435b8463427bd58cd6bc7edd1a4e6f3ab6b57de71e90602090a2519081529081906020820190565b0390f35b8061049261049892610782565b8061020e565b3861042e565b6107e4565b8280fd5b6104c8919450823d84116104d1575b6104c081836107ac565b8101906107ce565b9050923861035b565b503d6104b6565b346101c65760003660031901126101c6576020600454604051908152f35b346101c65760003660031901126101c6576003546040516001600160a01b039091168152602090f35b600435906001600160a01b03821682036101c657565b602435906001600160a01b03821682036101c657565b346101c65760203660031901126101c65761056461051f565b6000903382528160205261057e6001604084205414610703565b6001600160a01b0316808252602082905260408220600190557fbdd25288242d7a27d9494755ef7f8e5cbcd7f1d8ea73cd139ea251c86c6f27018280a280f35b346101c65760203660031901126101c6576105d761051f565b600090338252816020526105f16001604084205414610703565b6001600160a01b03168082526020829052604082208290557f568441e3a3b6a2622a0a2ba98496a75dd275b5e7cbe3bf3df35641b93cb9d3988280a280f35b346101c65760203660031901126101c6576001600160a01b0361065161051f565b1660005260006020526020604060002054604051908152f35b346101c65760403660031901126101c657610683610535565b33600052600060205261069d600160406000205414610703565b60043562766f7760e81b0361014657600380546001600160a01b0319166001600160a01b0392909216919091179055005b346101c65760203660031901126101c65760043560005260016020526040806000206001815491015482519182526020820152f35b1561070a57565b60405162461bcd60e51b8152602060048201526012602482015271129d59cbdb9bdd0b585d5d1a1bdc9a5e995960721b6044820152606490fd5b1561074b57565b60405162461bcd60e51b815260206004820152600f60248201526e4a75672f696e76616c69642d6e6f7760881b6044820152606490fd5b67ffffffffffffffff811161079657604052565b634e487b7160e01b600052604160045260246000fd5b90601f8019910116810190811067ffffffffffffffff82111761079657604052565b91908260409103126101c6576020825192015190565b6040513d6000823e3d90fd5b634e487b7160e01b600052601160045260246000fd5b9190820391821161081357565b6107f0565b90919080156108bb576001838116156108a85781935b811c805b61083b57505050565b82800292808404036101c6576b019d971e4fe8401e74000000928381019081106101c6576b033b2e3c9fd0803ce800000080910493838316610882575b5050811c80610832565b848792939702918583041415851515166101c65781019081106101c65704933880610878565b6b033b2e3c9fd0803ce80000009361082e565b5090156108c757600090565b6b033b2e3c9fd0803ce800000090565b91908201918281116108135782106101c657565b919060008184039112908115918482121684821383161761081357600090931215908161091b575b50156101c657565b905038610913565b9080820291808304821481151715610813578115918215610958575b5050156101c6576b033b2e3c9fd0803ce8000000900490565b909161096857820414388061093f565b634e487b7160e01b600052601260045260246000fdfea26469706673582212203b0e234ae083353d0fee1c893f3d1e51aa7d43352b76f58ae43fdb54dfe5a26364736f6c63430008130033","linkReferences":{}},"methodIdentifiers":{"base()":"5001f3b5","deny(address)":"9c52a7f1","drip(bytes32)":"44e2a5a8","file(bytes32,address)":"d4e8be83","file(bytes32,bytes32,uint256)":"1a0b287e","file(bytes32,uint256)":"29ae8114","ilks(bytes32)":"d9638d36","init(bytes32)":"3b663195","rely(address)":"65fae35e","vat()":"36569e77","vow()":"626cb3c5","wards(address)":"bf353dbb"},"id":27}