{"abi":[{"type":"constructor","inputs":[{"name":"ilk_","type":"bytes32","internalType":"bytes32"},{"name":"gem_","type":"address","internalType":"address"},{"name":"kusdJoin_","type":"address","internalType":"address"},{"name":"pocket_","type":"address","internalType":"address"}],"stateMutability":"nonpayable"},{"type":"function","name":"HALTED","inputs":[],"outputs":[{"name":"","type":"uint256","internalType":"uint256"}],"stateMutability":"view"},{"type":"function","name":"bud","inputs":[{"name":"","type":"address","internalType":"address"}],"outputs":[{"name":"","type":"uint256","internalType":"uint256"}],"stateMutability":"view"},{"type":"function","name":"buf","inputs":[],"outputs":[{"name":"","type":"uint256","internalType":"uint256"}],"stateMutability":"view"},{"type":"function","name":"buyGem","inputs":[{"name":"usr","type":"address","internalType":"address"},{"name":"gemAmt","type":"uint256","internalType":"uint256"}],"outputs":[{"name":"kusdInWad","type":"uint256","internalType":"uint256"}],"stateMutability":"nonpayable"},{"type":"function","name":"buyGemNoFee","inputs":[{"name":"usr","type":"address","internalType":"address"},{"name":"gemAmt","type":"uint256","internalType":"uint256"}],"outputs":[{"name":"kusdInWad","type":"uint256","internalType":"uint256"}],"stateMutability":"nonpayable"},{"type":"function","name":"chug","inputs":[],"outputs":[{"name":"wad","type":"uint256","internalType":"uint256"}],"stateMutability":"nonpayable"},{"type":"function","name":"cut","inputs":[],"outputs":[{"name":"wad","type":"uint256","internalType":"uint256"}],"stateMutability":"view"},{"type":"function","name":"dec","inputs":[],"outputs":[{"name":"","type":"uint256","internalType":"uint256"}],"stateMutability":"view"},{"type":"function","name":"deny","inputs":[{"name":"usr","type":"address","internalType":"address"}],"outputs":[],"stateMutability":"nonpayable"},{"type":"function","name":"diss","inputs":[{"name":"usr","type":"address","internalType":"address"}],"outputs":[],"stateMutability":"nonpayable"},{"type":"function","name":"file","inputs":[{"name":"what","type":"bytes32","internalType":"bytes32"},{"name":"data","type":"uint256","internalType":"uint256"}],"outputs":[],"stateMutability":"nonpayable"},{"type":"function","name":"file","inputs":[{"name":"what","type":"bytes32","internalType":"bytes32"},{"name":"data","type":"address","internalType":"address"}],"outputs":[],"stateMutability":"nonpayable"},{"type":"function","name":"fill","inputs":[],"outputs":[{"name":"wad","type":"uint256","internalType":"uint256"}],"stateMutability":"nonpayable"},{"type":"function","name":"gem","inputs":[],"outputs":[{"name":"","type":"address","internalType":"contract GemLike"}],"stateMutability":"view"},{"type":"function","name":"gemJoin","inputs":[],"outputs":[{"name":"","type":"address","internalType":"address"}],"stateMutability":"view"},{"type":"function","name":"gush","inputs":[],"outputs":[{"name":"wad","type":"uint256","internalType":"uint256"}],"stateMutability":"view"},{"type":"function","name":"ilk","inputs":[],"outputs":[{"name":"","type":"bytes32","internalType":"bytes32"}],"stateMutability":"view"},{"type":"function","name":"kiss","inputs":[{"name":"usr","type":"address","internalType":"address"}],"outputs":[],"stateMutability":"nonpayable"},{"type":"function","name":"kusd","inputs":[],"outputs":[{"name":"","type":"address","internalType":"contract GemLike"}],"stateMutability":"view"},{"type":"function","name":"kusdJoin","inputs":[],"outputs":[{"name":"","type":"address","internalType":"contract KusdJoinLike"}],"stateMutability":"view"},{"type":"function","name":"live","inputs":[],"outputs":[{"name":"","type":"uint256","internalType":"uint256"}],"stateMutability":"view"},{"type":"function","name":"pocket","inputs":[],"outputs":[{"name":"","type":"address","internalType":"address"}],"stateMutability":"view"},{"type":"function","name":"rely","inputs":[{"name":"usr","type":"address","internalType":"address"}],"outputs":[],"stateMutability":"nonpayable"},{"type":"function","name":"rush","inputs":[],"outputs":[{"name":"wad","type":"uint256","internalType":"uint256"}],"stateMutability":"view"},{"type":"function","name":"sellGem","inputs":[{"name":"usr","type":"address","internalType":"address"},{"name":"gemAmt","type":"uint256","internalType":"uint256"}],"outputs":[{"name":"kusdOutWad","type":"uint256","internalType":"uint256"}],"stateMutability":"nonpayable"},{"type":"function","name":"sellGemNoFee","inputs":[{"name":"usr","type":"address","internalType":"address"},{"name":"gemAmt","type":"uint256","internalType":"uint256"}],"outputs":[{"name":"kusdOutWad","type":"uint256","internalType":"uint256"}],"stateMutability":"nonpayable"},{"type":"function","name":"tin","inputs":[],"outputs":[{"name":"","type":"uint256","internalType":"uint256"}],"stateMutability":"view"},{"type":"function","name":"to18ConversionFactor","inputs":[],"outputs":[{"name":"","type":"uint256","internalType":"uint256"}],"stateMutability":"view"},{"type":"function","name":"tout","inputs":[],"outputs":[{"name":"","type":"uint256","internalType":"uint256"}],"stateMutability":"view"},{"type":"function","name":"trim","inputs":[],"outputs":[{"name":"wad","type":"uint256","internalType":"uint256"}],"stateMutability":"nonpayable"},{"type":"function","name":"vat","inputs":[],"outputs":[{"name":"","type":"address","internalType":"contract VatLike"}],"stateMutability":"view"},{"type":"function","name":"vow","inputs":[],"outputs":[{"name":"","type":"address","internalType":"address"}],"stateMutability":"view"},{"type":"function","name":"wards","inputs":[{"name":"","type":"address","internalType":"address"}],"outputs":[{"name":"","type":"uint256","internalType":"uint256"}],"stateMutability":"view"},{"type":"event","name":"BuyGem","inputs":[{"name":"owner","type":"address","indexed":true,"internalType":"address"},{"name":"value","type":"uint256","indexed":false,"internalType":"uint256"},{"name":"fee","type":"uint256","indexed":false,"internalType":"uint256"}],"anonymous":false},{"type":"event","name":"Chug","inputs":[{"name":"wad","type":"uint256","indexed":false,"internalType":"uint256"}],"anonymous":false},{"type":"event","name":"Deny","inputs":[{"name":"usr","type":"address","indexed":true,"internalType":"address"}],"anonymous":false},{"type":"event","name":"Diss","inputs":[{"name":"usr","type":"address","indexed":true,"internalType":"address"}],"anonymous":false},{"type":"event","name":"File","inputs":[{"name":"what","type":"bytes32","indexed":true,"internalType":"bytes32"},{"name":"data","type":"address","indexed":false,"internalType":"address"}],"anonymous":false},{"type":"event","name":"File","inputs":[{"name":"what","type":"bytes32","indexed":true,"internalType":"bytes32"},{"name":"data","type":"uint256","indexed":false,"internalType":"uint256"}],"anonymous":false},{"type":"event","name":"Fill","inputs":[{"name":"wad","type":"uint256","indexed":false,"internalType":"uint256"}],"anonymous":false},{"type":"event","name":"Kiss","inputs":[{"name":"usr","type":"address","indexed":true,"internalType":"address"}],"anonymous":false},{"type":"event","name":"Rely","inputs":[{"name":"usr","type":"address","indexed":true,"internalType":"address"}],"anonymous":false},{"type":"event","name":"SellGem","inputs":[{"name":"owner","type":"address","indexed":true,"internalType":"address"},{"name":"value","type":"uint256","indexed":false,"internalType":"uint256"},{"name":"fee","type":"uint256","indexed":false,"internalType":"uint256"}],"anonymous":false},{"type":"event","name":"Trim","inputs":[{"name":"wad","type":"uint256","indexed":false,"internalType":"uint256"}],"anonymous":false}],"bytecode":{"object":"0x6101606040523480156200001257600080fd5b5060405162002714380380620027148339810160408190526200003591620002fb565b60808490526001600160a01b0380841661010052821660c0819052604080516336569e7760e01b815290516336569e77916004808201926020929091908290030181865afa1580156200008c573d6000803e3d6000fd5b505050506040513d601f19601f82011682018060405250810190620000b291906200034f565b6001600160a01b031660a0816001600160a01b03168152505060c0516001600160a01b0316632398a4d76040518163ffffffff1660e01b8152600401602060405180830381865afa1580156200010c573d6000803e3d6000fd5b505050506040513d601f19601f820116820180604052508101906200013291906200034f565b6001600160a01b0390811660e05281811661014052610100516040805163313ce56760e01b81529051919092169163313ce5679160048083019260209291908290030181865afa1580156200018b573d6000803e3d6000fd5b505050506040513d601f19601f82011682018060405250810190620001b1919062000374565b620001be906012620003af565b620001cb90600a620004ce565b6101205260e05160405163095ea7b360e01b81526001600160a01b03848116600483015260001960248301529091169063095ea7b390604401600060405180830381600087803b1580156200021f57600080fd5b505af115801562000234573d6000803e3d6000fd5b505060a0516040516328ec8bf160e21b81526001600160a01b038681166004830152909116925063a3b22fc49150602401600060405180830381600087803b1580156200028057600080fd5b505af115801562000295573d6000803e3d6000fd5b50503360008181526020819052604080822060019055519193507fdd0e34038ac38b2a1ce960229778ac48a8719bc900b6c4f8d0475c6e8b385a60925090a250505050620004df565b80516001600160a01b0381168114620002f657600080fd5b919050565b600080600080608085870312156200031257600080fd5b845193506200032460208601620002de565b92506200033460408601620002de565b91506200034460608601620002de565b905092959194509250565b6000602082840312156200036257600080fd5b6200036d82620002de565b9392505050565b6000602082840312156200038757600080fd5b815160ff811681146200036d57600080fd5b634e487b7160e01b600052601160045260246000fd5b60ff8281168282160390811115620003cb57620003cb62000399565b92915050565b600181815b8085111562000412578160001904821115620003f657620003f662000399565b808516156200040457918102915b93841c9390800290620003d6565b509250929050565b6000826200042b57506001620003cb565b816200043a57506000620003cb565b81600181146200045357600281146200045e576200047e565b6001915050620003cb565b60ff84111562000472576200047262000399565b50506001821b620003cb565b5060208310610133831016604e8410600b8410161715620004a3575081810a620003cb565b620004af8383620003d1565b8060001904821115620004c657620004c662000399565b029392505050565b60006200036d60ff8416836200041a565b60805160a05160c05160e0516101005161012051610140516120de620006366000396000818161045401528181610c170152818161129f015281816118d001528181611af30152611cb00152600081816102b101528181610c43015281816112cb01528181611880015281816119fd0152611c3f01526000818161034b01528181610c65015281816110eb015281816112ed015281816118a101528181611b2a0152611cdf01526000818161024e01528181610d2f0152818161180c01528181611a7a0152611d5f0152600081816103d6015281816107c101528181610fdb015261169f01526000818161028a0152818161082701528181610af301528181610e190152818161117b015281816113af01528181611431015281816115ab015261177e0152600081816104250152818161085601528181610b22015281816111aa015281816115da015261174501526120de6000f3fe608060405234801561001057600080fd5b50600436106101fb5760003560e01c8063881eb14e1161011a578063bf353dbb116100ad578063d4e8be831161007c578063d4e8be8314610476578063d9c55ce114610489578063e6fd604c14610491578063f29c29c414610499578063fae036d5146104ac57600080fd5b8063bf353dbb14610400578063c5ce281e14610420578063cbf0bfac14610447578063cccef9e21461044f57600080fd5b80639b652df6116100e95780639b652df6146103b65780639c52a7f1146103be578063a4ed12a1146103d1578063b3bcfa82146103f857600080fd5b8063881eb14e146103805780638d7ef9bb14610388578063957aa58c1461039b57806395991276146103a357600080fd5b80634fce7a2a1161019257806365fae35e1161016157806365fae35e1461032a578063678d77321461033d5780637bd2bea71461034657806386c34f421461036d57600080fd5b80634fce7a2a146102db578063568d4b6f146102fb578063626cb3c51461030457806365c4ce7a1461031757600080fd5b806329ae8114116101ce57806329ae81141461027057806336569e77146102855780634010f777146102ac57806340d9c0e3146102d357600080fd5b806301664f6614610200578063067d92741461021f57806315232515146102405780632398a4d714610249575b600080fd5b305b6040516001600160a01b0390911681526020015b60405180910390f35b61023261022d366004611e57565b6104b5565b604051908152602001610216565b61023260055481565b6102027f000000000000000000000000000000000000000000000000000000000000000081565b61028361027e366004611e81565b61057b565b005b6102027f000000000000000000000000000000000000000000000000000000000000000081565b6102327f000000000000000000000000000000000000000000000000000000000000000081565b610232610749565b6102326102e9366004611ea3565b60016020526000908152604090205481565b61023260035481565b600254610202906001600160a01b031681565b610283610325366004611ea3565b610946565b610283610338366004611ea3565b6109b9565b61023260001981565b6102027f000000000000000000000000000000000000000000000000000000000000000081565b61023261037b366004611e57565b610a2d565b610232610aeb565b610232610396366004611e57565b610db0565b610232610e15565b6102326103b1366004611e57565b610e9e565b610232610eff565b6102836103cc366004611ea3565b611074565b6102027f000000000000000000000000000000000000000000000000000000000000000081565b6102326110e7565b61023261040e366004611ea3565b60006020819052908152604090205481565b6102327f000000000000000000000000000000000000000000000000000000000000000081565b610232611173565b6102027f000000000000000000000000000000000000000000000000000000000000000081565b610283610484366004611ebe565b6114bb565b61023261154d565b610232611736565b6102836104a7366004611ea3565b611980565b61023260045481565b336000908152600160208190526040822054146105195760405162461bcd60e51b815260206004820152601a60248201527f4b73734c69746550736d2f6e6f742d77686974656c697374656400000000000060448201526064015b60405180910390fd5b600019600454036105685760405162461bcd60e51b815260206004820152601960248201527812dcdcd31a5d19541cdb4bd89d5e4b59d95b4b5a185b1d1959603a1b6044820152606401610510565b610574838360006119f6565b9392505050565b336000908152602081905260409020546001146105aa5760405162461bcd60e51b815260040161051090611eea565b81623a34b760e91b03610625576000198114806105cf5750670de0b6b3a76400008111155b61061b5760405162461bcd60e51b815260206004820152601b60248201527f4b73734c69746550736d2f74696e2d6f75742d6f662d72616e676500000000006044820152606401610510565b600381905561070b565b81631d1bdd5d60e21b036106a15760001981148061064b5750670de0b6b3a76400008111155b6106975760405162461bcd60e51b815260206004820152601c60248201527f4b73734c69746550736d2f746f75742d6f75742d6f662d72616e6765000000006044820152606401610510565b600481905561070b565b8162313ab360e91b036106b857600581905561070b565b60405162461bcd60e51b815260206004820152602260248201527f4b73734c69746550736d2f66696c652d756e7265636f676e697a65642d706172604482015261616d60f01b6064820152608401610510565b817fe986e40cc8c151830d4f61050f4fb2e4add8567caad2d5f5496f9158e91fe4c78260405161073d91815260200190565b60405180910390a25050565b6000610753610aeb565b9050600081116107a55760405162461bcd60e51b815260206004820152601a60248201527f4b73734c69746550736d2f6e6f7468696e672d746f2d7472696d0000000000006044820152606401610510565b604051633b4da69f60e01b8152306004820152602481018290527f00000000000000000000000000000000000000000000000000000000000000006001600160a01b031690633b4da69f90604401600060405180830381600087803b15801561080d57600080fd5b505af1158015610821573d6000803e3d6000fd5b505050507f00000000000000000000000000000000000000000000000000000000000000006001600160a01b031663760887037f000000000000000000000000000000000000000000000000000000000000000030600030600061088488611bd5565b61088d90611f37565b6040516001600160e01b031960e089901b16815260048101969096526001600160a01b039485166024870152928416604486015292166064840152608483019190915260a482015260c401600060405180830381600087803b1580156108f257600080fd5b505af1158015610906573d6000803e3d6000fd5b505050507fc73c16902381a37c21b07e127e3d0c092955b9fedb2b23e7e9b91ca527545ae68160405161093b91815260200190565b60405180910390a190565b336000908152602081905260409020546001146109755760405162461bcd60e51b815260040161051090611eea565b6001600160a01b038116600081815260016020526040808220829055517f12fdafd291eb287a54e3416070923d22aa5072f5ee04c4fb8361615e7508a37c9190a250565b336000908152602081905260409020546001146109e85760405162461bcd60e51b815260040161051090611eea565b6001600160a01b03811660008181526020819052604080822060019055517fdd0e34038ac38b2a1ce960229778ac48a8719bc900b6c4f8d0475c6e8b385a609190a250565b33600090815260016020819052604082205414610a8c5760405162461bcd60e51b815260206004820152601a60248201527f4b73734c69746550736d2f6e6f742d77686974656c69737465640000000000006044820152606401610510565b60001960035403610adf5760405162461bcd60e51b815260206004820152601a60248201527f4b73734c69746550736d2f73656c6c2d67656d2d68616c7465640000000000006044820152606401610510565b61057483836000611c38565b6000806000807f00000000000000000000000000000000000000000000000000000000000000006001600160a01b031663d9638d367f00000000000000000000000000000000000000000000000000000000000000006040518263ffffffff1660e01b8152600401610b5f91815260200190565b60a060405180830381865afa158015610b7c573d6000803e3d6000fd5b505050506040513d601f19601f82011682018060405250810190610ba09190611f53565b50935050925092506b033b2e3c9fd0803ce80000008214610bfd5760405162461bcd60e51b81526020600482015260176024820152764b73734c69746550736d2f726174652d6e6f742d52415960481b6044820152606401610510565b6005546040516370a0823160e01b81526001600160a01b037f000000000000000000000000000000000000000000000000000000000000000081166004830152600092917f0000000000000000000000000000000000000000000000000000000000000000917f000000000000000000000000000000000000000000000000000000000000000016906370a0823190602401602060405180830381865afa158015610cac573d6000803e3d6000fd5b505050506040513d601f19601f82011682018060405250810190610cd09190611f93565b610cda9190611fac565b610ce49190611fcb565b9050610da7610d1a610cf68684611dfe565b610d1587610d106b033b2e3c9fd0803ce800000088611fde565b611dfe565b611e14565b6040516370a0823160e01b81523060048201527f00000000000000000000000000000000000000000000000000000000000000006001600160a01b0316906370a0823190602401602060405180830381865afa158015610d7e573d6000803e3d6000fd5b505050506040513d601f19601f82011682018060405250810190610da29190611f93565b611e2c565b94505050505090565b60045460009060018101610e025760405162461bcd60e51b815260206004820152601960248201527812dcdcd31a5d19541cdb4bd89d5e4b59d95b4b5a185b1d1959603a1b6044820152606401610510565b610e0d8484836119f6565b949350505050565b60007f00000000000000000000000000000000000000000000000000000000000000006001600160a01b031663957aa58c6040518163ffffffff1660e01b8152600401602060405180830381865afa158015610e75573d6000803e3d6000fd5b505050506040513d601f19601f82011682018060405250810190610e999190611f93565b905090565b60035460009060018101610ef45760405162461bcd60e51b815260206004820152601a60248201527f4b73734c69746550736d2f73656c6c2d67656d2d68616c7465640000000000006044820152606401610510565b610e0d848483611c38565b6002546000906001600160a01b031680610f5b5760405162461bcd60e51b815260206004820152601b60248201527f4b73734c69746550736d2f636875672d6d697373696e672d766f7700000000006044820152606401610510565b610f63611736565b915060008211610fb55760405162461bcd60e51b815260206004820152601a60248201527f4b73734c69746550736d2f6e6f7468696e672d746f2d636875670000000000006044820152606401610510565b604051633b4da69f60e01b81526001600160a01b038281166004830152602482018490527f00000000000000000000000000000000000000000000000000000000000000001690633b4da69f90604401600060405180830381600087803b15801561101f57600080fd5b505af1158015611033573d6000803e3d6000fd5b505050507fbaf40fa9da797753c7837b8bae01a8ee6009597a3de9665c6fdf70e8706649938260405161106891815260200190565b60405180910390a15090565b336000908152602081905260409020546001146110a35760405162461bcd60e51b815260040161051090611eea565b6001600160a01b038116600081815260208190526040808220829055517f184450df2e323acec0ed3b5c7531b81f9b4cdef7914dfd4c0a4317416bb5251b9190a250565b60007f00000000000000000000000000000000000000000000000000000000000000006001600160a01b031663313ce5676040518163ffffffff1660e01b8152600401602060405180830381865afa158015611147573d6000803e3d6000fd5b505050506040513d601f19601f8201168201806040525081019061116b9190612000565b60ff16905090565b6000806000807f00000000000000000000000000000000000000000000000000000000000000006001600160a01b031663d9638d367f00000000000000000000000000000000000000000000000000000000000000006040518263ffffffff1660e01b81526004016111e791815260200190565b60a060405180830381865afa158015611204573d6000803e3d6000fd5b505050506040513d601f19601f820116820180604052508101906112289190611f53565b50935050925092506b033b2e3c9fd0803ce800000082146112855760405162461bcd60e51b81526020600482015260176024820152764b73734c69746550736d2f726174652d6e6f742d52415960481b6044820152606401610510565b6005546040516370a0823160e01b81526001600160a01b037f000000000000000000000000000000000000000000000000000000000000000081166004830152600092917f0000000000000000000000000000000000000000000000000000000000000000917f000000000000000000000000000000000000000000000000000000000000000016906370a0823190602401602060405180830381865afa158015611334573d6000803e3d6000fd5b505050506040513d601f19601f820116820180604052508101906113589190611f93565b6113629190611fac565b61136c9190611fcb565b9050610da761139d61137e8387611dfe565b610da26113976b033b2e3c9fd0803ce800000087611fde565b88611dfe565b6b033b2e3c9fd0803ce80000006114b17f00000000000000000000000000000000000000000000000000000000000000006001600160a01b031663babe8a3f6040518163ffffffff1660e01b8152600401602060405180830381865afa15801561140b573d6000803e3d6000fd5b505050506040513d601f19601f8201168201806040525081019061142f9190611f93565b7f00000000000000000000000000000000000000000000000000000000000000006001600160a01b0316630dca59c16040518163ffffffff1660e01b8152600401602060405180830381865afa15801561148d573d6000803e3d6000fd5b505050506040513d601f19601f82011682018060405250810190610d109190611f93565b610da29190611fde565b336000908152602081905260409020546001146114ea5760405162461bcd60e51b815260040161051090611eea565b8162766f7760e81b036106b857600280546001600160a01b0319166001600160a01b0383161790556040516001600160a01b038216815282907f8fef588b5fc1afbf5b2f06c1a435d513f208da2e6704c3d8f0e0ec91167066ba9060200161073d565b6000611557611173565b9050600081116115a95760405162461bcd60e51b815260206004820152601a60248201527f4b73734c69746550736d2f6e6f7468696e672d746f2d66696c6c0000000000006044820152606401610510565b7f00000000000000000000000000000000000000000000000000000000000000006001600160a01b031663760887037f000000000000000000000000000000000000000000000000000000000000000030600030600061160888611bd5565b6040516001600160e01b031960e089901b16815260048101969096526001600160a01b039485166024870152928416604486015292166064840152608483019190915260a482015260c401600060405180830381600087803b15801561166d57600080fd5b505af1158015611681573d6000803e3d6000fd5b505060405163ef693bed60e01b8152306004820152602481018490527f00000000000000000000000000000000000000000000000000000000000000006001600160a01b0316925063ef693bed9150604401600060405180830381600087803b1580156116ed57600080fd5b505af1158015611701573d6000803e3d6000fd5b505050507f1293e04cd381a7d781bab7dbc1f14f587c30b893b53af97e704717cc02a102548160405161093b91815260200190565b6040516309092f9760e21b81527f0000000000000000000000000000000000000000000000000000000000000000600482015230602482015260009081906001600160a01b037f00000000000000000000000000000000000000000000000000000000000000001690632424be5c906044016040805180830381865afa1580156117c4573d6000803e3d6000fd5b505050506040513d601f19601f820116820180604052508101906117e89190612023565b6040516370a0823160e01b8152306004820152909250600091506001600160a01b037f000000000000000000000000000000000000000000000000000000000000000016906370a0823190602401602060405180830381865afa158015611853573d6000803e3d6000fd5b505050506040513d601f19601f820116820180604052508101906118779190611f93565b905061197981837f00000000000000000000000000000000000000000000000000000000000000007f00000000000000000000000000000000000000000000000000000000000000006001600160a01b03166370a082317f00000000000000000000000000000000000000000000000000000000000000006040518263ffffffff1660e01b815260040161191a91906001600160a01b0391909116815260200190565b602060405180830381865afa158015611937573d6000803e3d6000fd5b505050506040513d601f19601f8201168201806040525081019061195b9190611f93565b6119659190611fac565b61196f9085611fcb565b610da29190612047565b9250505090565b336000908152602081905260409020546001146119af5760405162461bcd60e51b815260040161051090611eea565b6001600160a01b038116600081815260016020819052604080832091909155517f6ffc0fabf0709270e42087e84a3bfc36041d3b281266d04ae1962185092fb2449190a250565b6000611a227f000000000000000000000000000000000000000000000000000000000000000084611fac565b905060008215611a5857670de0b6b3a7640000611a3f8484611fac565b611a499190611fde565b9050611a558183611fcb565b91505b6040516323b872dd60e01b8152336004820152306024820152604481018390527f00000000000000000000000000000000000000000000000000000000000000006001600160a01b0316906323b872dd90606401600060405180830381600087803b158015611ac657600080fd5b505af1158015611ada573d6000803e3d6000fd5b50506040516323b872dd60e01b81526001600160a01b037f0000000000000000000000000000000000000000000000000000000000000000811660048301528881166024830152604482018890527f00000000000000000000000000000000000000000000000000000000000000001692506323b872dd9150606401600060405180830381600087803b158015611b7057600080fd5b505af1158015611b84573d6000803e3d6000fd5b505060408051878152602081018590526001600160a01b03891693507f085d06ecf4c34b237767a31c0888e121d89546a77f186f1987c6b8715e1a8caa9250015b60405180910390a2509392505050565b60405160116024820152819060008212159060440160408051601f198184030181529190526020810180516001600160e01b0316634e487b7160e01b17905290611c325760405162461bcd60e51b8152600401610510919061205a565b50919050565b6000611c647f000000000000000000000000000000000000000000000000000000000000000084611fac565b905060008215611c9357670de0b6b3a7640000611c818484611fac565b611c8b9190611fde565b905080820391505b6040516323b872dd60e01b81523360048201526001600160a01b037f000000000000000000000000000000000000000000000000000000000000000081166024830152604482018690527f000000000000000000000000000000000000000000000000000000000000000016906323b872dd90606401600060405180830381600087803b158015611d2357600080fd5b505af1158015611d37573d6000803e3d6000fd5b505060405163a9059cbb60e01b81526001600160a01b038881166004830152602482018690527f000000000000000000000000000000000000000000000000000000000000000016925063a9059cbb9150604401600060405180830381600087803b158015611da557600080fd5b505af1158015611db9573d6000803e3d6000fd5b505060408051878152602081018590526001600160a01b03891693507fef75f5a47cc9a929968796ceb84f19e7541617b4577f2c228ea95200e1572081925001611bc5565b6000818311611e0e576000610574565b50900390565b6000818311611e235781610574565b50815b92915050565b6000818310611e235781610574565b80356001600160a01b0381168114611e5257600080fd5b919050565b60008060408385031215611e6a57600080fd5b611e7383611e3b565b946020939093013593505050565b60008060408385031215611e9457600080fd5b50508035926020909101359150565b600060208284031215611eb557600080fd5b61057482611e3b565b60008060408385031215611ed157600080fd5b82359150611ee160208401611e3b565b90509250929050565b60208082526019908201527f4b73734c69746550736d2f6e6f742d617574686f72697a656400000000000000604082015260600190565b634e487b7160e01b600052601160045260246000fd5b6000600160ff1b8201611f4c57611f4c611f21565b5060000390565b600080600080600060a08688031215611f6b57600080fd5b5050835160208501516040860151606087015160809097015192989197509594509092509050565b600060208284031215611fa557600080fd5b5051919050565b6000816000190483118215151615611fc657611fc6611f21565b500290565b80820180821115611e2657611e26611f21565b600082611ffb57634e487b7160e01b600052601260045260246000fd5b500490565b60006020828403121561201257600080fd5b815160ff8116811461057457600080fd5b6000806040838503121561203657600080fd5b505080516020909101519092909150565b81810381811115611e2657611e26611f21565b600060208083528351808285015260005b818110156120875785810183015185820160400152820161206b565b506000604082860101526040601f19601f830116850101925050509291505056fea2646970667358221220448eb6d0992013aba818b7724f9575082f6d9d182f05ec0a2abbed1f3162f5b564736f6c63430008100033","linkReferences":{}},"methodIdentifiers":{"HALTED()":"678d7732","bud(address)":"4fce7a2a","buf()":"15232515","buyGem(address,uint256)":"8d7ef9bb","buyGemNoFee(address,uint256)":"067d9274","chug()":"9b652df6","cut()":"e6fd604c","dec()":"b3bcfa82","deny(address)":"9c52a7f1","diss(address)":"65c4ce7a","file(bytes32,address)":"d4e8be83","file(bytes32,uint256)":"29ae8114","fill()":"d9c55ce1","gem()":"7bd2bea7","gemJoin()":"01664f66","gush()":"881eb14e","ilk()":"c5ce281e","kiss(address)":"f29c29c4","kusd()":"2398a4d7","kusdJoin()":"a4ed12a1","live()":"957aa58c","pocket()":"cccef9e2","rely(address)":"65fae35e","rush()":"cbf0bfac","sellGem(address,uint256)":"95991276","sellGemNoFee(address,uint256)":"86c34f42","tin()":"568d4b6f","to18ConversionFactor()":"4010f777","tout()":"fae036d5","trim()":"40d9c0e3","vat()":"36569e77","vow()":"626cb3c5","wards(address)":"bf353dbb"},"id":16}