{"abi":[{"type":"constructor","inputs":[{"name":"vat_","type":"address","internalType":"address"},{"name":"kusd_","type":"address","internalType":"address"}],"stateMutability":"nonpayable"},{"type":"function","name":"cage","inputs":[],"outputs":[],"stateMutability":"nonpayable"},{"type":"function","name":"deny","inputs":[{"name":"usr","type":"address","internalType":"address"}],"outputs":[],"stateMutability":"nonpayable"},{"type":"function","name":"exit","inputs":[{"name":"usr","type":"address","internalType":"address"},{"name":"wad","type":"uint256","internalType":"uint256"}],"outputs":[],"stateMutability":"nonpayable"},{"type":"function","name":"join","inputs":[{"name":"usr","type":"address","internalType":"address"},{"name":"wad","type":"uint256","internalType":"uint256"}],"outputs":[],"stateMutability":"nonpayable"},{"type":"function","name":"kusd","inputs":[],"outputs":[{"name":"","type":"address","internalType":"contract DSTokenLike"}],"stateMutability":"view"},{"type":"function","name":"live","inputs":[],"outputs":[{"name":"","type":"uint256","internalType":"uint256"}],"stateMutability":"view"},{"type":"function","name":"rely","inputs":[{"name":"usr","type":"address","internalType":"address"}],"outputs":[],"stateMutability":"nonpayable"},{"type":"function","name":"vat","inputs":[],"outputs":[{"name":"","type":"address","internalType":"contract VatLike"}],"stateMutability":"view"},{"type":"function","name":"wards","inputs":[{"name":"","type":"address","internalType":"address"}],"outputs":[{"name":"","type":"uint256","internalType":"uint256"}],"stateMutability":"view"},{"type":"event","name":"Cage","inputs":[],"anonymous":false},{"type":"event","name":"Deny","inputs":[{"name":"usr","type":"address","indexed":true,"internalType":"address"}],"anonymous":false},{"type":"event","name":"Exit","inputs":[{"name":"usr","type":"address","indexed":true,"internalType":"address"},{"name":"wad","type":"uint256","indexed":false,"internalType":"uint256"}],"anonymous":false},{"type":"event","name":"Join","inputs":[{"name":"usr","type":"address","indexed":true,"internalType":"address"},{"name":"wad","type":"uint256","indexed":false,"internalType":"uint256"}],"anonymous":false},{"type":"event","name":"Rely","inputs":[{"name":"usr","type":"address","indexed":true,"internalType":"address"}],"anonymous":false}],"bytecode":{"object":"0x60803461009d57601f61071b38819003918201601f19168301916001600160401b038311848410176100a257808492604094855283398101031261009d57610052602061004b836100b8565b92016100b8565b3360005260006020526001604060002055600160035560018060a01b03908160018060a01b031993168360015416176001551690600254161760025560405161064e90816100cd8239f35b600080fd5b634e487b7160e01b600052604160045260246000fd5b51906001600160a01b038216820361009d5756fe6080604081815260048036101561001557600080fd5b600092833560e01c9081632398a4d7146104f25750806336569e77146104c95780633b4da69f1461039757806365fae35e1461032c57806369245009146102d9578063957aa58c146102ba5780639c52a7f11461024c578063bf353dbb146102155763ef693bed1461008657600080fd5b346101b457816003193601126101b45761009e610517565b90602435926001600354036101de576001546001600160a01b0392869184166100c6876105a8565b90803b156101da57845163bb35783b60e01b8152338482019081523060208201526040810193909352918491839182908490829060600103925af180156101d0579083916101b8575b50508360025416803b156101b45783516340c10f1960e01b81526001600160a01b03871692810192835260208301889052918391839182908490829060400103925af180156101aa5761018e575b50505192835216907f22d324652c93739755cf4581508b60875ebdd78c20c0cff5cf8e23452b29963190602090a280f35b61019a9093929361057e565b6101a65790843861015d565b8480fd5b83513d84823e3d90fd5b8280fd5b6101c19061057e565b6101cc57813861010f565b5080fd5b84513d85823e3d90fd5b8380fd5b906020606492519162461bcd60e51b835282015260116024820152704b7573644a6f696e2f6e6f742d6c69766560781b6044820152fd5b5050346101cc5760203660031901126101cc5760209181906001600160a01b0361023d610517565b16815280845220549051908152f35b5050346101cc5760203660031901126101cc5781610268610517565b3382528160205261027e60018484205414610532565b6001600160a01b03168082526020829052918120557f184450df2e323acec0ed3b5c7531b81f9b4cdef7914dfd4c0a4317416bb5251b8280a280f35b5050346101cc57816003193601126101cc576020906003549051908152f35b5050346101cc57816003193601126101cc576001610301913384528360205283205414610532565b806003557f2308ed18a14e800c39b86eb6ea43270105955ca385b603b64eca89f98ae8fbda8180a180f35b5050346101cc5760203660031901126101cc576001610349610517565b3384528360205261035e828486205414610532565b818060a01b031691828452836020528320557fdd0e34038ac38b2a1ce960229778ac48a8719bc900b6c4f8d0475c6e8b385a608280a280f35b50346101b457816003193601126101b4576103b0610517565b6001546024359391926001600160a01b039291869084166103d0876105a8565b813b156101b457845163bb35783b60e01b8152308582019081526001600160a01b038916602082015260408101929092529291839182908490829060600103925af180156104bf576104ac575b5085908360025416803b156101b4578351632770a7eb60e21b81523392810192835260208301889052918391839182908490829060400103925af180156101aa57610494575b50505192835216907fb4e09949657f21548b58afe74e7b86cd2295da5ff1598ae1e5faecb1cf19ca9590602090a280f35b6104a09093929361057e565b6101a657908438610463565b6104b89096919661057e565b943861041d565b83513d89823e3d90fd5b5050346101cc57816003193601126101cc5760015490516001600160a01b039091168152602090f35b8490346101cc57816003193601126101cc576002546001600160a01b03168152602090f35b600435906001600160a01b038216820361052d57565b600080fd5b1561053957565b60405162461bcd60e51b815260206004820152601760248201527f4b7573644a6f696e2f6e6f742d617574686f72697a65640000000000000000006044820152606490fd5b67ffffffffffffffff811161059257604052565b634e487b7160e01b600052604160045260246000fd5b9060009160009080159081156105c5575b50156105c25750565b80fd5b9093506b033b2e3c9fd0803ce80000009080820282810482036106045780956105f0570414386105b9565b634e487b7160e01b84526012600452602484fd5b634e487b7160e01b84526011600452602484fdfea26469706673582212200ce675b189348c01906ebbc517f73c8688d4fe422afa3f555fb9b7f80c5f587364736f6c63430008130033","linkReferences":{}},"methodIdentifiers":{"cage()":"69245009","deny(address)":"9c52a7f1","exit(address,uint256)":"ef693bed","join(address,uint256)":"3b4da69f","kusd()":"2398a4d7","live()":"957aa58c","rely(address)":"65fae35e","vat()":"36569e77","wards(address)":"bf353dbb"},"id":26}