{"abi":[{"type":"constructor","inputs":[],"stateMutability":"nonpayable"},{"type":"function","name":"deny","inputs":[{"name":"usr","type":"address","internalType":"address"}],"outputs":[],"stateMutability":"nonpayable"},{"type":"function","name":"file","inputs":[{"name":"what","type":"bytes32","internalType":"bytes32"},{"name":"data","type":"uint256","internalType":"uint256"}],"outputs":[],"stateMutability":"nonpayable"},{"type":"function","name":"price","inputs":[{"name":"top","type":"uint256","internalType":"uint256"},{"name":"dur","type":"uint256","internalType":"uint256"}],"outputs":[{"name":"","type":"uint256","internalType":"uint256"}],"stateMutability":"view"},{"type":"function","name":"rely","inputs":[{"name":"usr","type":"address","internalType":"address"}],"outputs":[],"stateMutability":"nonpayable"},{"type":"function","name":"tau","inputs":[],"outputs":[{"name":"","type":"uint256","internalType":"uint256"}],"stateMutability":"view"},{"type":"function","name":"wards","inputs":[{"name":"","type":"address","internalType":"address"}],"outputs":[{"name":"","type":"uint256","internalType":"uint256"}],"stateMutability":"view"},{"type":"event","name":"Deny","inputs":[{"name":"usr","type":"address","indexed":true,"internalType":"address"}],"anonymous":false},{"type":"event","name":"File","inputs":[{"name":"what","type":"bytes32","indexed":true,"internalType":"bytes32"},{"name":"data","type":"uint256","indexed":false,"internalType":"uint256"}],"anonymous":false},{"type":"event","name":"Rely","inputs":[{"name":"usr","type":"address","indexed":true,"internalType":"address"}],"anonymous":false}],"bytecode":{"object":"0x6080806040523461004d573360005260006020526001604060002055337fdd0e34038ac38b2a1ce960229778ac48a8719bc900b6c4f8d0475c6e8b385a60600080a26103b990816100538239f35b600080fdfe6040608081526004908136101561001557600080fd5b600091823560e01c90816329ae8114146101d0578163487a2395146101a357816365fae35e14610133578382639c52a7f1146100c557508163bf353dbb14610088575063cfc4af551461006757600080fd5b346100845781600319360112610084576020906001549051908152f35b5080fd5b9050346100c15760203660031901126100c157356001600160a01b038116908190036100c1578282916020945280845220549051908152f35b8280fd5b91503461008457602036600319011261008457356001600160a01b038116929083900361008457338252816020526101026001828420541461028f565b828252816020528120557f184450df2e323acec0ed3b5c7531b81f9b4cdef7914dfd4c0a4317416bb5251b8280a280f35b9050346100c15760203660031901126100c157356001600160a01b03811691908290036100c1576001903384528360205261017282828620541461028f565b828452836020528320557fdd0e34038ac38b2a1ce960229778ac48a8719bc900b6c4f8d0475c6e8b385a608280a280f35b8284346101cd57816003193601126101cd57506101c660209260243590356102fb565b9051908152f35b80fd5b9050346100c157816003193601126100c15780359160243591338552846020526101ff6001838720541461028f565b6274617560e81b840361023e5750816020917fe986e40cc8c151830d4f61050f4fb2e4add8567caad2d5f5496f9158e91fe4c79360015551908152a280f35b6020608492519162461bcd60e51b8352820152602660248201527f4c696e65617244656372656173652f66696c652d756e7265636f676e697a65646044820152652d706172616d60d01b6064820152fd5b1561029657565b60405162461bcd60e51b815260206004820152601d60248201527f4c696e65617244656372656173652f6e6f742d617574686f72697a65640000006044820152606490fd5b81156102e5570490565b634e487b7160e01b600052601260045260246000fd5b600154918281101561037b578203828111610365576b033b2e3c9fd0803ce800000092838202918483040361034c57610333916102db565b808202918115918215610351575b50501561034c570490565b600080fd5b61035d919250836102db565b143880610341565b634e487b7160e01b600052601160045260246000fd5b50505060009056fea2646970667358221220249db759da5b7020d99a2db6de28d7332274189b33cb019dab59653c1508cf4f64736f6c63430008130033","linkReferences":{}},"methodIdentifiers":{"deny(address)":"9c52a7f1","file(bytes32,uint256)":"29ae8114","price(uint256,uint256)":"487a2395","rely(address)":"65fae35e","tau()":"cfc4af55","wards(address)":"bf353dbb"},"id":18}