{"abi":[{"type":"constructor","inputs":[{"name":"vat_","type":"address","internalType":"address"}],"stateMutability":"nonpayable"},{"type":"function","name":"Pie","inputs":[],"outputs":[{"name":"","type":"uint256","internalType":"uint256"}],"stateMutability":"view"},{"type":"function","name":"cage","inputs":[],"outputs":[],"stateMutability":"nonpayable"},{"type":"function","name":"chi","inputs":[],"outputs":[{"name":"","type":"uint256","internalType":"uint256"}],"stateMutability":"view"},{"type":"function","name":"deny","inputs":[{"name":"guy","type":"address","internalType":"address"}],"outputs":[],"stateMutability":"nonpayable"},{"type":"function","name":"drip","inputs":[],"outputs":[{"name":"tmp","type":"uint256","internalType":"uint256"}],"stateMutability":"nonpayable"},{"type":"function","name":"dsr","inputs":[],"outputs":[{"name":"","type":"uint256","internalType":"uint256"}],"stateMutability":"view"},{"type":"function","name":"exit","inputs":[{"name":"wad","type":"uint256","internalType":"uint256"}],"outputs":[],"stateMutability":"nonpayable"},{"type":"function","name":"file","inputs":[{"name":"what","type":"bytes32","internalType":"bytes32"},{"name":"data","type":"uint256","internalType":"uint256"}],"outputs":[],"stateMutability":"nonpayable"},{"type":"function","name":"file","inputs":[{"name":"what","type":"bytes32","internalType":"bytes32"},{"name":"addr","type":"address","internalType":"address"}],"outputs":[],"stateMutability":"nonpayable"},{"type":"function","name":"join","inputs":[{"name":"wad","type":"uint256","internalType":"uint256"}],"outputs":[],"stateMutability":"nonpayable"},{"type":"function","name":"live","inputs":[],"outputs":[{"name":"","type":"uint256","internalType":"uint256"}],"stateMutability":"view"},{"type":"function","name":"pie","inputs":[{"name":"","type":"address","internalType":"address"}],"outputs":[{"name":"","type":"uint256","internalType":"uint256"}],"stateMutability":"view"},{"type":"function","name":"rely","inputs":[{"name":"guy","type":"address","internalType":"address"}],"outputs":[],"stateMutability":"nonpayable"},{"type":"function","name":"rho","inputs":[],"outputs":[{"name":"","type":"uint256","internalType":"uint256"}],"stateMutability":"view"},{"type":"function","name":"vat","inputs":[],"outputs":[{"name":"","type":"address","internalType":"contract VatLike"}],"stateMutability":"view"},{"type":"function","name":"vow","inputs":[],"outputs":[{"name":"","type":"address","internalType":"address"}],"stateMutability":"view"},{"type":"function","name":"wards","inputs":[{"name":"","type":"address","internalType":"address"}],"outputs":[{"name":"","type":"uint256","internalType":"uint256"}],"stateMutability":"view"}],"bytecode":{"object":"0x60803461009e57601f610aba38819003918201601f19168301916001600160401b038311848410176100a35780849260209460405283398101031261009e57516001600160a01b0381169081900361009e57336000526000602052600160406000205560018060a01b031960055416176005556b033b2e3c9fd0803ce800000080600355600455426007556001600855604051610a0090816100ba8239f35b600080fd5b634e487b7160e01b600052604160045260246000fdfe6080604052600436101561001257600080fd5b60003560e01c8063049878f3146101275780630bebac861461012257806320aba08b1461011d57806329ae8114146101185780632c69ed581461011357806336569e771461010e578063487bf08214610109578063626cb3c51461010457806365fae35e146100ff57806369245009146100fa5780637f8661a1146100f5578063957aa58c146100f05780639c52a7f1146100eb5780639f678cca146100e6578063bf353dbb146100e1578063c92aecc4146100dc5763d4e8be83146100d757600080fd5b610716565b6106f8565b6106be565b6105a6565b610559565b61053b565b610499565b610456565b610408565b6103df565b6103c1565b610398565b61037a565b6102a5565b610287565b610242565b346102115760203660031901126102115760043561014860075442146107bb565b336000908152600160205260409020610163908290546109b6565b33600090815260016020526040902055610187610182826002546109b6565b600255565b6005546101b1906101a8906001600160a01b03165b6001600160a01b031690565b91600454610965565b90803b156102115760405163bb35783b60e01b815233600482015230602482015260448101839052906000908290818381606481015b03925af1801561020c576101f757005b8061020461020a92610863565b8061027c565b005b61088d565b600080fd5b600435906001600160a01b038216820361021157565b602435906001600160a01b038216820361021157565b34610211576020366003190112610211576001600160a01b03610263610216565b1660005260016020526020604060002054604051908152f35b600091031261021157565b34610211576000366003190112610211576020600754604051908152f35b34610211576040366003190112610211573360005260006020526102d060016040600020541461077a565b600160085403610346576102e760075442146107bb565b600435623239b960e91b036103015761020a602435600355565b60405162461bcd60e51b815260206004820152601b60248201527f506f742f66696c652d756e7265636f676e697a65642d706172616d00000000006044820152606490fd5b60405162461bcd60e51b815260206004820152600c60248201526b506f742f6e6f742d6c69766560a01b6044820152606490fd5b34610211576000366003190112610211576020600254604051908152f35b34610211576000366003190112610211576005546040516001600160a01b039091168152602090f35b34610211576000366003190112610211576020600354604051908152f35b34610211576000366003190112610211576006546040516001600160a01b039091168152602090f35b3461021157602036600319011261021157610421610216565b6000903382528160205261043b600160408420541461077a565b6001600160a01b031681526020819052604081206001905580f35b3461021157600080600319360112610496573381528060205261047f600160408320541461077a565b806008556b033b2e3c9fd0803ce800000060035580f35b80fd5b3461021157602036600319011261021157336000908152600160205260409020600435906104c990829054610958565b336000908152600160205260409020556104e861018282600254610958565b600554610501906101a8906001600160a01b031661019c565b90803b156102115760405163bb35783b60e01b815230600482015233602482015260448101839052906000908290818381606481016101e7565b34610211576000366003190112610211576020600854604051908152f35b3461021157602036600319011261021157610572610216565b6000903382528160205261058c600160408420541461077a565b6001600160a01b0316815260208190526040812081905580f35b3461021157600080600319360112610496576105dd6007546105ca814210156107fd565b6105d76003549142610851565b90610899565b6106026b033b2e3c9fd0803ce80000006105fa6004548094610965565b049182610958565b9161060c82600455565b61061542600755565b60055461062a906001600160a01b031661019c565b600654610643906001600160a01b031694600254610965565b90803b156106ba5760405163f24e23eb60e01b81526001600160a01b0395909516600486015230602486015260448501919091528390606490829084905af191821561020c576106a3926106a7575b506040519081529081906020820190565b0390f35b806102046106b492610863565b38610692565b8280fd5b34610211576020366003190112610211576001600160a01b036106df610216565b1660005260006020526020604060002054604051908152f35b34610211576000366003190112610211576020600454604051908152f35b346102115760403660031901126102115761072f61022c565b33600052600060205261074960016040600020541461077a565b60043562766f7760e81b0361030157600680546001600160a01b0319166001600160a01b0392909216919091179055005b1561078157565b60405162461bcd60e51b8152602060048201526012602482015271141bdd0bdb9bdd0b585d5d1a1bdc9a5e995960721b6044820152606490fd5b156107c257565b60405162461bcd60e51b8152602060048201526013602482015272141bdd0bdc9a1bcb5b9bdd0b5d5c19185d1959606a1b6044820152606490fd5b1561080457565b60405162461bcd60e51b815260206004820152600f60248201526e506f742f696e76616c69642d6e6f7760881b6044820152606490fd5b634e487b7160e01b600052601160045260246000fd5b9190820391821161085e57565b61083b565b67ffffffffffffffff811161087757604052565b634e487b7160e01b600052604160045260246000fd5b6040513d6000823e3d90fd5b909190801561093c576001838116156109295781935b811c805b6108bc57505050565b8280029280840403610211576b019d971e4fe8401e7400000092838101908110610211576b033b2e3c9fd0803ce800000080910493838316610903575b5050811c806108b3565b8487929397029185830414158515151661021157810190811061021157049338806108f9565b6b033b2e3c9fd0803ce8000000936108af565b50901561094857600090565b6b033b2e3c9fd0803ce800000090565b90810390811161085e5790565b9190600092811591821561097d575b50501561021157565b8181929395500282810482148315171561085e5780946109a05704143880610974565b634e487b7160e01b600052601260045260246000fd5b919082019182811161085e5782106102115756fea26469706673582212200657e9b5cedee9aac15153768bf90cde14fb912ef1b8c7b4ee6f6e864cb6a86664736f6c63430008130033","linkReferences":{}},"methodIdentifiers":{"Pie()":"2c69ed58","cage()":"69245009","chi()":"c92aecc4","deny(address)":"9c52a7f1","drip()":"9f678cca","dsr()":"487bf082","exit(uint256)":"7f8661a1","file(bytes32,address)":"d4e8be83","file(bytes32,uint256)":"29ae8114","join(uint256)":"049878f3","live()":"957aa58c","pie(address)":"0bebac86","rely(address)":"65fae35e","rho()":"20aba08b","vat()":"36569e77","vow()":"626cb3c5","wards(address)":"bf353dbb"},"id":29}