{"abi":[{"type":"constructor","inputs":[],"stateMutability":"nonpayable"},{"type":"receive","stateMutability":"payable"},{"type":"function","name":"allowance","inputs":[{"name":"","type":"address","internalType":"address"},{"name":"","type":"address","internalType":"address"}],"outputs":[{"name":"","type":"uint256","internalType":"uint256"}],"stateMutability":"view"},{"type":"function","name":"approve","inputs":[{"name":"guy","type":"address","internalType":"address"},{"name":"wad","type":"uint256","internalType":"uint256"}],"outputs":[{"name":"","type":"bool","internalType":"bool"}],"stateMutability":"nonpayable"},{"type":"function","name":"approve","inputs":[{"name":"guy","type":"address","internalType":"address"}],"outputs":[{"name":"","type":"bool","internalType":"bool"}],"stateMutability":"nonpayable"},{"type":"function","name":"balanceOf","inputs":[{"name":"","type":"address","internalType":"address"}],"outputs":[{"name":"","type":"uint256","internalType":"uint256"}],"stateMutability":"view"},{"type":"function","name":"burn","inputs":[{"name":"guy","type":"address","internalType":"address"},{"name":"wad","type":"uint256","internalType":"uint256"}],"outputs":[],"stateMutability":"nonpayable"},{"type":"function","name":"decimals","inputs":[],"outputs":[{"name":"","type":"uint8","internalType":"uint8"}],"stateMutability":"view"},{"type":"function","name":"deny","inputs":[{"name":"guy","type":"address","internalType":"address"}],"outputs":[],"stateMutability":"nonpayable"},{"type":"function","name":"depositTreasury","inputs":[],"outputs":[],"stateMutability":"payable"},{"type":"function","name":"getBackingRatio","inputs":[],"outputs":[{"name":"","type":"uint256","internalType":"uint256"}],"stateMutability":"view"},{"type":"function","name":"getReserves","inputs":[],"outputs":[{"name":"","type":"uint256","internalType":"uint256"}],"stateMutability":"view"},{"type":"function","name":"mint","inputs":[{"name":"guy","type":"address","internalType":"address"},{"name":"wad","type":"uint256","internalType":"uint256"}],"outputs":[],"stateMutability":"nonpayable"},{"type":"function","name":"move","inputs":[{"name":"src","type":"address","internalType":"address"},{"name":"dst","type":"address","internalType":"address"},{"name":"wad","type":"uint256","internalType":"uint256"}],"outputs":[],"stateMutability":"nonpayable"},{"type":"function","name":"name","inputs":[],"outputs":[{"name":"","type":"string","internalType":"string"}],"stateMutability":"view"},{"type":"function","name":"pull","inputs":[{"name":"src","type":"address","internalType":"address"},{"name":"wad","type":"uint256","internalType":"uint256"}],"outputs":[],"stateMutability":"nonpayable"},{"type":"function","name":"push","inputs":[{"name":"dst","type":"address","internalType":"address"},{"name":"wad","type":"uint256","internalType":"uint256"}],"outputs":[],"stateMutability":"nonpayable"},{"type":"function","name":"rely","inputs":[{"name":"guy","type":"address","internalType":"address"}],"outputs":[],"stateMutability":"nonpayable"},{"type":"function","name":"symbol","inputs":[],"outputs":[{"name":"","type":"string","internalType":"string"}],"stateMutability":"view"},{"type":"function","name":"totalSupply","inputs":[],"outputs":[{"name":"","type":"uint256","internalType":"uint256"}],"stateMutability":"view"},{"type":"function","name":"transfer","inputs":[{"name":"dst","type":"address","internalType":"address"},{"name":"wad","type":"uint256","internalType":"uint256"}],"outputs":[{"name":"","type":"bool","internalType":"bool"}],"stateMutability":"nonpayable"},{"type":"function","name":"transferFrom","inputs":[{"name":"src","type":"address","internalType":"address"},{"name":"dst","type":"address","internalType":"address"},{"name":"wad","type":"uint256","internalType":"uint256"}],"outputs":[{"name":"","type":"bool","internalType":"bool"}],"stateMutability":"nonpayable"},{"type":"function","name":"unwrap","inputs":[{"name":"wad","type":"uint256","internalType":"uint256"}],"outputs":[],"stateMutability":"nonpayable"},{"type":"function","name":"verifyBacking","inputs":[],"outputs":[{"name":"","type":"bool","internalType":"bool"}],"stateMutability":"view"},{"type":"function","name":"wards","inputs":[{"name":"","type":"address","internalType":"address"}],"outputs":[{"name":"","type":"uint256","internalType":"uint256"}],"stateMutability":"view"},{"type":"function","name":"withdrawTreasury","inputs":[{"name":"wad","type":"uint256","internalType":"uint256"}],"outputs":[],"stateMutability":"nonpayable"},{"type":"function","name":"wrap","inputs":[],"outputs":[],"stateMutability":"payable"},{"type":"event","name":"Approval","inputs":[{"name":"src","type":"address","indexed":true,"internalType":"address"},{"name":"guy","type":"address","indexed":true,"internalType":"address"},{"name":"wad","type":"uint256","indexed":false,"internalType":"uint256"}],"anonymous":false},{"type":"event","name":"Burn","inputs":[{"name":"guy","type":"address","indexed":true,"internalType":"address"},{"name":"wad","type":"uint256","indexed":false,"internalType":"uint256"}],"anonymous":false},{"type":"event","name":"Deny","inputs":[{"name":"guy","type":"address","indexed":true,"internalType":"address"}],"anonymous":false},{"type":"event","name":"DepositTreasury","inputs":[{"name":"from","type":"address","indexed":true,"internalType":"address"},{"name":"amount","type":"uint256","indexed":false,"internalType":"uint256"}],"anonymous":false},{"type":"event","name":"Mint","inputs":[{"name":"guy","type":"address","indexed":true,"internalType":"address"},{"name":"wad","type":"uint256","indexed":false,"internalType":"uint256"}],"anonymous":false},{"type":"event","name":"Rely","inputs":[{"name":"guy","type":"address","indexed":true,"internalType":"address"}],"anonymous":false},{"type":"event","name":"Transfer","inputs":[{"name":"src","type":"address","indexed":true,"internalType":"address"},{"name":"dst","type":"address","indexed":true,"internalType":"address"},{"name":"wad","type":"uint256","indexed":false,"internalType":"uint256"}],"anonymous":false},{"type":"event","name":"Unwrap","inputs":[{"name":"user","type":"address","indexed":true,"internalType":"address"},{"name":"amount","type":"uint256","indexed":false,"internalType":"uint256"}],"anonymous":false},{"type":"event","name":"WithdrawTreasury","inputs":[{"name":"to","type":"address","indexed":true,"internalType":"address"},{"name":"amount","type":"uint256","indexed":false,"internalType":"uint256"}],"anonymous":false},{"type":"event","name":"Wrap","inputs":[{"name":"user","type":"address","indexed":true,"internalType":"address"},{"name":"amount","type":"uint256","indexed":false,"internalType":"uint256"}],"anonymous":false}],"bytecode":{"object":"0x6080806040523461004d573360005260006020526001604060002055337fdd0e34038ac38b2a1ce960229778ac48a8719bc900b6c4f8d0475c6e8b385a60600080a2610e0290816100538239f35b600080fdfe608060408181526004918236101561002a575b505050361561002057600080fd5b610028610983565b005b600092833560e01c91826306fdde0314610815575081630902f1ac146107fa578163095ea7b31461078957816311f1fc99146106e157816318160ddd146106c257816323b872dd146106ac578163313ce5671461069057816340c10f191461063d57816365fae35e146105d257816370a082311461059a5781637e916d1b1461053f57816395d89b41146104db5781639c52a7f11461046d5781639dc29fac14610430578163a9059cbb14610407578163af35ee60146103e5578163b753a98c146103bf578163bb35783b146103a7578163bf353dbb14610370578163d46eb11914610359578163daea85c5146102e2578163dd62ed3e1461028e578163de0e9a3e146101a057508063f2d5d56b146101735763ffa320991461014d5780610012565b3461016f578160031936011261016f57602090610168610da4565b9051908152f35b5080fd5b503461016f5736600319011261019d5761019961018e6108b2565b602435903390610ada565b5080f35b80fd5b9190503461028a57602036600319011261028a578135918215906101c48215610944565b33855260026020526101db848487205410156109c6565b834710610247575083906101ef8433610c80565b83829161023d575b8280929181923390f11561023257519081527f5dd085b6070b4cae004f84daafd199fd55b0bdfa11c3a802baffe89c2419d8c260203392a280f35b51913d9150823e3d90fd5b6108fc91506101f7565b606490602084519162461bcd60e51b8352820152601a60248201527f734b4c432f696e73756666696369656e742d72657365727665730000000000006044820152fd5b8280fd5b50503461016f578060031936011261016f576102a86108b2565b6001600160a01b0360243581811692908390036102de579160209491849316825260038552828220908252845220549051908152f35b8480fd5b50503461016f57602036600319011261016f57602091816103016108b2565b33808452600386528284206001600160a01b03909216808552918652919092206000199081905583519081527f8c5be1e5ebec7d5bd14f71427d1e84f3dd0314c0f7b2291e5b200ac8c7c3b925908590a35160018152f35b838060031936011261019d5761036d610983565b80f35b50503461016f57602036600319011261016f5760209181906001600160a01b036103986108b2565b16815280845220549051908152f35b833461019d576101996103b9366108cd565b91610ada565b50503461016f5736600319011261019d576101996103db6108b2565b6024359033610ada565b50503461016f578160031936011261016f576020904760015411159051908152f35b50503461016f578060031936011261016f576020906104276103db6108b2565b90519015158152f35b50503461016f578060031936011261016f5761036d9061046460016104536108b2565b923386528560205285205414610902565b60243590610c80565b50503461016f57602036600319011261016f57816104896108b2565b3382528160205261049f60018484205414610902565b6001600160a01b03168082526020829052918120557f184450df2e323acec0ed3b5c7531b81f9b4cdef7914dfd4c0a4317416bb5251b8280a280f35b83833461016f578160031936011261016f578051918183019083821067ffffffffffffffff83111761052c575092610528938252825263734b4c4360e01b60208301525191829182610869565b0390f35b634e487b7160e01b815260418552602490fd5b50508160031936011261016f573382528160205261056260018284205414610902565b61056d341515610944565b513481527fe266f64beab7d27163a9299836fe3d9b7824fadb315b030b1de20750208421e160203392a280f35b50503461016f57602036600319011261016f5760209181906001600160a01b036105c26108b2565b1681526002845220549051908152f35b50503461016f57602036600319011261016f5760016105ef6108b2565b33845283602052610604828486205414610902565b818060a01b031691828452836020528320557fdd0e34038ac38b2a1ce960229778ac48a8719bc900b6c4f8d0475c6e8b385a608280a280f35b50503461016f578060031936011261016f5761036d9061065b6108b2565b6106746001602435933387528660205286205414610902565b61068b4761068484600154610acd565b1115610a35565b610bee565b50503461016f578160031936011261016f576020905160128152f35b50503461016f576020906104276103b9366108cd565b50503461016f578160031936011261016f576020906001549051908152f35b90503461028a57602036600319011261028a5735903383528260205261070c60018285205414610902565b8282156107198115610944565b610725844710156109c6565b61073c6107328547610a12565b6001541115610a35565b83829161077f575b8280929181923390f11561023257519081527f905d2a9b2639a94f09720cfd7b061c3b7a9e27921a009e954d67c8aff6e7366760203392a280f35b6108fc9150610744565b50503461016f578060031936011261016f57602091816107a76108b2565b91602435918291338152600387528181209460018060a01b0316948582528752205582519081527f8c5be1e5ebec7d5bd14f71427d1e84f3dd0314c0f7b2291e5b200ac8c7c3b925843392a35160018152f35b50503461016f578160031936011261016f5751478152602090f35b83853461019d578060031936011261019d578183019083821067ffffffffffffffff83111761052c575061052893508152601082526f29ba30b136329025b0b63c9021b7b4b760811b602083015251918291825b6020808252825181830181905290939260005b82811061089e57505060409293506000838284010152601f8019910116010190565b81810186015184820160400152850161087c565b600435906001600160a01b03821682036108c857565b600080fd5b60609060031901126108c8576001600160a01b039060043582811681036108c8579160243590811681036108c8579060443590565b1561090957565b60405162461bcd60e51b81526020600482015260136024820152721cd2d310cbdb9bdd0b585d5d1a1bdc9a5e9959606a1b6044820152606490fd5b1561094b57565b60405162461bcd60e51b815260206004820152601060248201526f1cd2d310cbde995c9bcb585b5bdd5b9d60821b6044820152606490fd5b61098e341515610944565b6109983433610bee565b6040513481527fb61d00fdfee32467c7d81db64c811ae60c104c346debf36a14afe84b8fce59e560203392a2565b156109cd57565b60405162461bcd60e51b815260206004820152601960248201527f734b4c432f696e73756666696369656e742d62616c616e6365000000000000006044820152606490fd5b91908203918211610a1f57565b634e487b7160e01b600052601160045260246000fd5b15610a3c57565b60405162461bcd60e51b815260206004820152601960248201527f734b4c432f696e73756666696369656e742d6261636b696e67000000000000006044820152606490fd5b15610a8857565b60405162461bcd60e51b815260206004820152601b60248201527f734b4c432f696e73756666696369656e742d616c6c6f77616e636500000000006044820152606490fd5b91908201809211610a1f57565b7fddf252ad1be2c89b69c2b068fc378daa952ba7f163c4a11628f55a4df523b3ef9092919260018060a01b038091169260009484865260209260028452604091610b2984848a205410156109c6565b3387141580610bd0575b610b7e575b86885260028552610b4c84848a2054610a12565b8789526002865283892055169586815281610b6a8482842054610acd565b9188815260028652205551908152a3600190565b868852600385528288203389528552610b9c84848a20541015610a81565b868852600385528288203389528552610bb884848a2054610a12565b87895260038652838920338a52865283892055610b38565b50868852600385528288203389528552828820546000191415610b33565b7fddf252ad1be2c89b69c2b068fc378daa952ba7f163c4a11628f55a4df523b3ef602060009260018060a01b03169384845260028252610c32816040862054610acd565b858552600283526040852055610c4a81600154610acd565b600155847f0f6798a560793a54c3bcfe86a93cde1e73087d944c0ea20544137d412139688583604051848152a2604051908152a3565b60018060a01b03167fddf252ad1be2c89b69c2b068fc378daa952ba7f163c4a11628f55a4df523b3ef600092828452602090600282526040610cc7828288205410156109c6565b3385141580610d86575b610d34575b84865260028352610cea8282882054610a12565b8587526002845281872055610d0182600154610a12565b600155847fcc16f5dbb4873280815c1ee09dbd06736cffcc184412cf7a71a0fdb75d397ca5848351858152a251908152a3565b848652600383528086203387528352610d5282828820541015610a81565b848652600383528086203387528352610d6e8282882054610a12565b85875260038452818720338852845281872055610cd6565b50848652600383528086203387528352808620546000191415610cd1565b6001548015610dc55761271047818102918115918304141715610a1f570490565b506127109056fea264697066735822122002ae9938020c7ebb58752d6d892e76d06c9444d70b347f5f1dcdd34e1201965064736f6c63430008130033","linkReferences":{}},"methodIdentifiers":{"allowance(address,address)":"dd62ed3e","approve(address)":"daea85c5","approve(address,uint256)":"095ea7b3","balanceOf(address)":"70a08231","burn(address,uint256)":"9dc29fac","decimals()":"313ce567","deny(address)":"9c52a7f1","depositTreasury()":"7e916d1b","getBackingRatio()":"ffa32099","getReserves()":"0902f1ac","mint(address,uint256)":"40c10f19","move(address,address,uint256)":"bb35783b","name()":"06fdde03","pull(address,uint256)":"f2d5d56b","push(address,uint256)":"b753a98c","rely(address)":"65fae35e","symbol()":"95d89b41","totalSupply()":"18160ddd","transfer(address,uint256)":"a9059cbb","transferFrom(address,address,uint256)":"23b872dd","unwrap(uint256)":"de0e9a3e","verifyBacking()":"af35ee60","wards(address)":"bf353dbb","withdrawTreasury(uint256)":"11f1fc99","wrap()":"d46eb119"},"id":30}