{"abi":[{"type":"constructor","inputs":[{"name":"vat_","type":"address","internalType":"address"}],"stateMutability":"nonpayable"},{"type":"function","name":"cage","inputs":[],"outputs":[],"stateMutability":"nonpayable"},{"type":"function","name":"deny","inputs":[{"name":"guy","type":"address","internalType":"address"}],"outputs":[],"stateMutability":"nonpayable"},{"type":"function","name":"file","inputs":[{"name":"ilk","type":"bytes32","internalType":"bytes32"},{"name":"what","type":"bytes32","internalType":"bytes32"},{"name":"data","type":"uint256","internalType":"uint256"}],"outputs":[],"stateMutability":"nonpayable"},{"type":"function","name":"file","inputs":[{"name":"what","type":"bytes32","internalType":"bytes32"},{"name":"data","type":"uint256","internalType":"uint256"}],"outputs":[],"stateMutability":"nonpayable"},{"type":"function","name":"file","inputs":[{"name":"ilk","type":"bytes32","internalType":"bytes32"},{"name":"what","type":"bytes32","internalType":"bytes32"},{"name":"pip_","type":"address","internalType":"address"}],"outputs":[],"stateMutability":"nonpayable"},{"type":"function","name":"ilks","inputs":[{"name":"","type":"bytes32","internalType":"bytes32"}],"outputs":[{"name":"pip","type":"address","internalType":"contract PipLike"},{"name":"mat","type":"uint256","internalType":"uint256"}],"stateMutability":"view"},{"type":"function","name":"live","inputs":[],"outputs":[{"name":"","type":"uint256","internalType":"uint256"}],"stateMutability":"view"},{"type":"function","name":"par","inputs":[],"outputs":[{"name":"","type":"uint256","internalType":"uint256"}],"stateMutability":"view"},{"type":"function","name":"poke","inputs":[{"name":"ilk","type":"bytes32","internalType":"bytes32"}],"outputs":[],"stateMutability":"nonpayable"},{"type":"function","name":"rely","inputs":[{"name":"guy","type":"address","internalType":"address"}],"outputs":[],"stateMutability":"nonpayable"},{"type":"function","name":"vat","inputs":[],"outputs":[{"name":"","type":"address","internalType":"contract VatLike"}],"stateMutability":"view"},{"type":"function","name":"wards","inputs":[{"name":"","type":"address","internalType":"address"}],"outputs":[{"name":"","type":"uint256","internalType":"uint256"}],"stateMutability":"view"},{"type":"event","name":"AuthorityGranted","inputs":[{"name":"usr","type":"address","indexed":true,"internalType":"address"}],"anonymous":false},{"type":"event","name":"AuthorityRevoked","inputs":[{"name":"usr","type":"address","indexed":true,"internalType":"address"}],"anonymous":false},{"type":"event","name":"Cage","inputs":[],"anonymous":false},{"type":"event","name":"File","inputs":[{"name":"ilk","type":"bytes32","indexed":true,"internalType":"bytes32"},{"name":"what","type":"bytes32","indexed":true,"internalType":"bytes32"},{"name":"pip","type":"address","indexed":false,"internalType":"address"}],"anonymous":false},{"type":"event","name":"File","inputs":[{"name":"ilk","type":"bytes32","indexed":true,"internalType":"bytes32"},{"name":"what","type":"bytes32","indexed":true,"internalType":"bytes32"},{"name":"data","type":"uint256","indexed":false,"internalType":"uint256"}],"anonymous":false},{"type":"event","name":"File","inputs":[{"name":"what","type":"bytes32","indexed":true,"internalType":"bytes32"},{"name":"data","type":"uint256","indexed":false,"internalType":"uint256"}],"anonymous":false},{"type":"event","name":"Poke","inputs":[{"name":"ilk","type":"bytes32","indexed":true,"internalType":"bytes32"},{"name":"val","type":"bytes32","indexed":false,"internalType":"bytes32"},{"name":"spot","type":"uint256","indexed":false,"internalType":"uint256"}],"anonymous":false}],"bytecode":{"object":"0x60803461009657601f61088038819003918201601f19168301916001600160401b0383118484101761009b5780849260209460405283398101031261009657516001600160a01b0381169081900361009657336000526000602052600160406000205560018060a01b031960025416176002556b033b2e3c9fd0803ce800000060035560016004556040516107ce90816100b28239f35b600080fd5b634e487b7160e01b600052604160045260246000fdfe6080604081815260048036101561001557600080fd5b600092833560e01c9081631504460f146104b4575080631a0b287e1461042a57806329ae8114146103b057806336569e7714610387578063495d32cb1461036857806365fae35e146102fd5783816369245009146102a857508063957aa58c1461028b5780639c52a7f11461021d578063bf353dbb146101e2578063d9638d36146101aa5763ebecb39d146100a957600080fd5b346101a65760603660031901126101a657602435918135916044356001600160a01b0381169291908390036101a157338652856020526100ee600183882054146106b5565b6100fb60018254146106fa565b6207069760ec1b850361015157508285526001602090815281862080546001600160a01b0319168417905590519182527f4ff2caaa972a7c6629ea01fae9c93d73cc307d13ea4c369f9bbbb7f9b7e9461d91a380f35b905162461bcd60e51b815290819061019d90820160609060208152601f60208201527f53706f747465722f66696c652d756e7265636f676e697a65642d706172616d0060408201520190565b0390fd5b600080fd5b8280fd5b50346101a65760203660031901126101a6579181923581526001602052206001808060a01b0382541691015482519182526020820152f35b5050346102195760203660031901126102195760209181906001600160a01b0361020a61069f565b16815280845220549051908152f35b5080fd5b505034610219576020366003190112610219578161023961069f565b3382528160205261024f600184842054146106b5565b6001600160a01b03168082526020829052918120557f568441e3a3b6a2622a0a2ba98496a75dd275b5e7cbe3bf3df35641b93cb9d3988280a280f35b50346101a657826003193601126101a65760209250549051908152f35b929050346102f957826003193601126102f95760016102d19133855284602052842054146106b5565b557f2308ed18a14e800c39b86eb6ea43270105955ca385b603b64eca89f98ae8fbda8180a180f35b5050fd5b50503461021957602036600319011261021957600161031a61069f565b3384528360205261032f8284862054146106b5565b818060a01b031691828452836020528320557fbdd25288242d7a27d9494755ef7f8e5cbcd7f1d8ea73cd139ea251c86c6f27018280a280f35b5050346102195781600319360112610219576020906003549051908152f35b50503461021957816003193601126102195760025490516001600160a01b039091168152602090f35b50346101a657816003193601126101a65780359160243591338552846020526103de600183872054146106b5565b6103eb60018254146106fa565b623830b960e91b84036101515750816020917fe986e40cc8c151830d4f61050f4fb2e4add8567caad2d5f5496f9158e91fe4c79360035551908152a280f35b50346101a65760603660031901126101a65780359060243592604435913386528560205261045d600183882054146106b5565b61046a60018254146106fa565b621b585d60ea1b850361015157507f851aa1caf4888170ad8875449d18f0f512fd6deb2a6571ea1a41fb9f95acbcd19160209184875260018352816001828920015551908152a380f35b84915083346101a65760203660031901126101a657833591828452600160205260018060a01b0382828781888585822054166359e02dd760e01b83525af180156106955785928691610628575b501561062157633b9aca008083029083820481148415171561060e57839082040361060a5761053e6105569161053960035491610759565b610739565b85875260016020526105396001868920015491610759565b905b60025416803b1561060a578580916064865180948193630d05943f60e11b83528a8d840152631cdc1bdd60e21b60248401528760448401525af18015610600576105cf575b50825191825260208201527fdfd7467e425a8107cfd368d159957692c25085aacbcf5228ce08f10f2146486e9190a280f35b67ffffffffffffffff81969296116105ed578352939450848661059d565b634e487b7160e01b825260418752602482fd5b84513d88823e3d90fd5b8580fd5b634e487b7160e01b875260118852602487fd5b8490610558565b925050823d841161068e575b601f8101601f1916830167ffffffffffffffff81118482101761067b5784918491835281010312610677576020825192015191821515830361060a579187610501565b8480fd5b634e487b7160e01b875260418852602487fd5b503d610634565b83513d87823e3d90fd5b600435906001600160a01b03821682036101a157565b156106bc57565b60405162461bcd60e51b815260206004820152601660248201527514dc1bdd1d195c8bdb9bdd0b585d5d1a1bdc9a5e995960521b6044820152606490fd5b1561070157565b60405162461bcd60e51b815260206004820152601060248201526f53706f747465722f6e6f742d6c69766560801b6044820152606490fd5b8115610743570490565b634e487b7160e01b600052601260045260246000fd5b906b033b2e3c9fd0803ce80000009182810292818404811482151715610782578304036101a157565b634e487b7160e01b600052601160045260246000fdfea264697066735822122050e06491b2d33ff24d761d8c3d8199b777c05c1e1063461a5c7cab464f9b770e64736f6c63430008130033","linkReferences":{}},"methodIdentifiers":{"cage()":"69245009","deny(address)":"9c52a7f1","file(bytes32,bytes32,address)":"ebecb39d","file(bytes32,bytes32,uint256)":"1a0b287e","file(bytes32,uint256)":"29ae8114","ilks(bytes32)":"d9638d36","live()":"957aa58c","par()":"495d32cb","poke(bytes32)":"1504460f","rely(address)":"65fae35e","vat()":"36569e77","wards(address)":"bf353dbb"},"id":31}