{"abi":[{"type":"constructor","inputs":[],"stateMutability":"nonpayable"},{"type":"function","name":"Line","inputs":[],"outputs":[{"name":"","type":"uint256","internalType":"uint256"}],"stateMutability":"view"},{"type":"function","name":"cage","inputs":[],"outputs":[],"stateMutability":"nonpayable"},{"type":"function","name":"can","inputs":[{"name":"","type":"address","internalType":"address"},{"name":"","type":"address","internalType":"address"}],"outputs":[{"name":"","type":"uint256","internalType":"uint256"}],"stateMutability":"view"},{"type":"function","name":"debt","inputs":[],"outputs":[{"name":"","type":"uint256","internalType":"uint256"}],"stateMutability":"view"},{"type":"function","name":"deny","inputs":[{"name":"usr","type":"address","internalType":"address"}],"outputs":[],"stateMutability":"nonpayable"},{"type":"function","name":"file","inputs":[{"name":"ilk","type":"bytes32","internalType":"bytes32"},{"name":"what","type":"bytes32","internalType":"bytes32"},{"name":"data","type":"uint256","internalType":"uint256"}],"outputs":[],"stateMutability":"nonpayable"},{"type":"function","name":"file","inputs":[{"name":"what","type":"bytes32","internalType":"bytes32"},{"name":"data","type":"uint256","internalType":"uint256"}],"outputs":[],"stateMutability":"nonpayable"},{"type":"function","name":"flux","inputs":[{"name":"ilk","type":"bytes32","internalType":"bytes32"},{"name":"src","type":"address","internalType":"address"},{"name":"dst","type":"address","internalType":"address"},{"name":"wad","type":"uint256","internalType":"uint256"}],"outputs":[],"stateMutability":"nonpayable"},{"type":"function","name":"fold","inputs":[{"name":"i","type":"bytes32","internalType":"bytes32"},{"name":"u","type":"address","internalType":"address"},{"name":"rate","type":"int256","internalType":"int256"}],"outputs":[],"stateMutability":"nonpayable"},{"type":"function","name":"fork","inputs":[{"name":"ilk","type":"bytes32","internalType":"bytes32"},{"name":"src","type":"address","internalType":"address"},{"name":"dst","type":"address","internalType":"address"},{"name":"dink","type":"int256","internalType":"int256"},{"name":"dart","type":"int256","internalType":"int256"}],"outputs":[],"stateMutability":"nonpayable"},{"type":"function","name":"frob","inputs":[{"name":"i","type":"bytes32","internalType":"bytes32"},{"name":"u","type":"address","internalType":"address"},{"name":"v","type":"address","internalType":"address"},{"name":"w","type":"address","internalType":"address"},{"name":"dink","type":"int256","internalType":"int256"},{"name":"dart","type":"int256","internalType":"int256"}],"outputs":[],"stateMutability":"nonpayable"},{"type":"function","name":"gem","inputs":[{"name":"","type":"bytes32","internalType":"bytes32"},{"name":"","type":"address","internalType":"address"}],"outputs":[{"name":"","type":"uint256","internalType":"uint256"}],"stateMutability":"view"},{"type":"function","name":"grab","inputs":[{"name":"i","type":"bytes32","internalType":"bytes32"},{"name":"u","type":"address","internalType":"address"},{"name":"v","type":"address","internalType":"address"},{"name":"w","type":"address","internalType":"address"},{"name":"dink","type":"int256","internalType":"int256"},{"name":"dart","type":"int256","internalType":"int256"}],"outputs":[],"stateMutability":"nonpayable"},{"type":"function","name":"heal","inputs":[{"name":"rad","type":"uint256","internalType":"uint256"}],"outputs":[],"stateMutability":"nonpayable"},{"type":"function","name":"hope","inputs":[{"name":"usr","type":"address","internalType":"address"}],"outputs":[],"stateMutability":"nonpayable"},{"type":"function","name":"ilks","inputs":[{"name":"","type":"bytes32","internalType":"bytes32"}],"outputs":[{"name":"Art","type":"uint256","internalType":"uint256"},{"name":"rate","type":"uint256","internalType":"uint256"},{"name":"spot","type":"uint256","internalType":"uint256"},{"name":"line","type":"uint256","internalType":"uint256"},{"name":"dust","type":"uint256","internalType":"uint256"}],"stateMutability":"view"},{"type":"function","name":"init","inputs":[{"name":"ilk","type":"bytes32","internalType":"bytes32"}],"outputs":[],"stateMutability":"nonpayable"},{"type":"function","name":"kusd","inputs":[{"name":"","type":"address","internalType":"address"}],"outputs":[{"name":"","type":"uint256","internalType":"uint256"}],"stateMutability":"view"},{"type":"function","name":"live","inputs":[],"outputs":[{"name":"","type":"uint256","internalType":"uint256"}],"stateMutability":"view"},{"type":"function","name":"move","inputs":[{"name":"src","type":"address","internalType":"address"},{"name":"dst","type":"address","internalType":"address"},{"name":"rad","type":"uint256","internalType":"uint256"}],"outputs":[],"stateMutability":"nonpayable"},{"type":"function","name":"nope","inputs":[{"name":"usr","type":"address","internalType":"address"}],"outputs":[],"stateMutability":"nonpayable"},{"type":"function","name":"rely","inputs":[{"name":"usr","type":"address","internalType":"address"}],"outputs":[],"stateMutability":"nonpayable"},{"type":"function","name":"sin","inputs":[{"name":"","type":"address","internalType":"address"}],"outputs":[{"name":"","type":"uint256","internalType":"uint256"}],"stateMutability":"view"},{"type":"function","name":"slip","inputs":[{"name":"ilk","type":"bytes32","internalType":"bytes32"},{"name":"usr","type":"address","internalType":"address"},{"name":"wad","type":"int256","internalType":"int256"}],"outputs":[],"stateMutability":"nonpayable"},{"type":"function","name":"suck","inputs":[{"name":"u","type":"address","internalType":"address"},{"name":"v","type":"address","internalType":"address"},{"name":"rad","type":"uint256","internalType":"uint256"}],"outputs":[],"stateMutability":"nonpayable"},{"type":"function","name":"urns","inputs":[{"name":"","type":"bytes32","internalType":"bytes32"},{"name":"","type":"address","internalType":"address"}],"outputs":[{"name":"ink","type":"uint256","internalType":"uint256"},{"name":"art","type":"uint256","internalType":"uint256"}],"stateMutability":"view"},{"type":"function","name":"vice","inputs":[],"outputs":[{"name":"","type":"uint256","internalType":"uint256"}],"stateMutability":"view"},{"type":"function","name":"wards","inputs":[{"name":"","type":"address","internalType":"address"}],"outputs":[{"name":"","type":"uint256","internalType":"uint256"}],"stateMutability":"view"},{"type":"event","name":"AuthorityGranted","inputs":[{"name":"usr","type":"address","indexed":true,"internalType":"address"}],"anonymous":false},{"type":"event","name":"AuthorityRevoked","inputs":[{"name":"usr","type":"address","indexed":true,"internalType":"address"}],"anonymous":false},{"type":"event","name":"Cage","inputs":[],"anonymous":false},{"type":"event","name":"Flux","inputs":[{"name":"ilk","type":"bytes32","indexed":true,"internalType":"bytes32"},{"name":"src","type":"address","indexed":true,"internalType":"address"},{"name":"dst","type":"address","indexed":true,"internalType":"address"},{"name":"wad","type":"uint256","indexed":false,"internalType":"uint256"}],"anonymous":false},{"type":"event","name":"Fold","inputs":[{"name":"ilk","type":"bytes32","indexed":true,"internalType":"bytes32"},{"name":"u","type":"address","indexed":true,"internalType":"address"},{"name":"rate","type":"int256","indexed":false,"internalType":"int256"}],"anonymous":false},{"type":"event","name":"Fork","inputs":[{"name":"ilk","type":"bytes32","indexed":true,"internalType":"bytes32"},{"name":"src","type":"address","indexed":true,"internalType":"address"},{"name":"dst","type":"address","indexed":true,"internalType":"address"},{"name":"dink","type":"int256","indexed":false,"internalType":"int256"},{"name":"dart","type":"int256","indexed":false,"internalType":"int256"}],"anonymous":false},{"type":"event","name":"Frob","inputs":[{"name":"ilk","type":"bytes32","indexed":true,"internalType":"bytes32"},{"name":"usr","type":"address","indexed":true,"internalType":"address"},{"name":"v","type":"address","indexed":false,"internalType":"address"},{"name":"w","type":"address","indexed":false,"internalType":"address"},{"name":"dink","type":"int256","indexed":false,"internalType":"int256"},{"name":"dart","type":"int256","indexed":false,"internalType":"int256"}],"anonymous":false},{"type":"event","name":"Grab","inputs":[{"name":"ilk","type":"bytes32","indexed":true,"internalType":"bytes32"},{"name":"usr","type":"address","indexed":true,"internalType":"address"},{"name":"v","type":"address","indexed":false,"internalType":"address"},{"name":"w","type":"address","indexed":false,"internalType":"address"},{"name":"dink","type":"int256","indexed":false,"internalType":"int256"},{"name":"dart","type":"int256","indexed":false,"internalType":"int256"}],"anonymous":false},{"type":"event","name":"Heal","inputs":[{"name":"rad","type":"uint256","indexed":false,"internalType":"uint256"}],"anonymous":false},{"type":"event","name":"Hope","inputs":[{"name":"usr","type":"address","indexed":true,"internalType":"address"},{"name":"guy","type":"address","indexed":true,"internalType":"address"}],"anonymous":false},{"type":"event","name":"Move","inputs":[{"name":"src","type":"address","indexed":true,"internalType":"address"},{"name":"dst","type":"address","indexed":true,"internalType":"address"},{"name":"rad","type":"uint256","indexed":false,"internalType":"uint256"}],"anonymous":false},{"type":"event","name":"Nope","inputs":[{"name":"usr","type":"address","indexed":true,"internalType":"address"},{"name":"guy","type":"address","indexed":true,"internalType":"address"}],"anonymous":false},{"type":"event","name":"Slip","inputs":[{"name":"ilk","type":"bytes32","indexed":true,"internalType":"bytes32"},{"name":"usr","type":"address","indexed":true,"internalType":"address"},{"name":"wad","type":"int256","indexed":false,"internalType":"int256"}],"anonymous":false},{"type":"event","name":"Suck","inputs":[{"name":"u","type":"address","indexed":true,"internalType":"address"},{"name":"v","type":"address","indexed":true,"internalType":"address"},{"name":"rad","type":"uint256","indexed":false,"internalType":"uint256"}],"anonymous":false}],"bytecode":{"object":"0x6080806040523461002c5733600052600060205260016040600020556001600a556116fb90816100328239f35b600080fdfe608080604052600436101561001357600080fd5b60003560e01c9081630dca59c11461134e575080631a0b287e146112a3578063214414d51461125b5780632424be5c1461120a57806329ae8114146111745780632d61a355146111565780633b663195146110b35780634538c4eb146110625780636111be2e14610fa257806365fae35e14610f205780636924500914610eee5780637608870314610a5c5780637bab3f40146109015780637cdd3fde14610888578063870c616d1461068d578063957aa58c1461066f5780639c52a7f1146105ee578063a3b22fc414610586578063b65337df146104d2578063babe8a3f146104b4578063bb35783b14610435578063bf353dbb146103fb578063cc1ad1ff146103c1578063d9638d3614610369578063dc4d20fa14610302578063f059212a146102c8578063f24e23eb146101fc5763f37ac61c1461015357600080fd5b346101f7576020806003193601126101f7577f917d6982889419f491488c036c2e6abe788b07222064ab462158ec64ca2c4db79060043533600052600682526101a1816040600020546115b2565b3360005260068352604060002055600582526101c2816040600020546115b2565b33600052600583526040600020556101dc816008546115b2565b6008556101eb816007546115b2565b600755604051908152a1005b600080fd5b346101f7577f02d16dda43fd89f02e33ce23ecf0251cdc426807cc72ae74d37e8d3681dae7e561022b3661141e565b929091336000526020906000825261024a600160406000205414611453565b60018060a01b0380911693846000526006835261026c86604060002054611588565b85600052600684526040600020551693846000526005825261029381604060002054611588565b85600052600583526040600020556102ad81600854611588565b6008556102bc81600754611588565b600755604051908152a3005b346101f75760203660031901126101f7576001600160a01b036102e961137f565b1660005260066020526020604060002054604051908152f35b346101f75760203660031901126101f75761031b61137f565b33600052600160205260406000209060018060a01b0316908160005260205260006040812055337f181131ad57ffc99f2486240a094384037710b935bcd941b626ca2856316bb2c5600080a3005b346101f75760203660031901126101f757600435600052600260205260a06040600020805490600181015490600281015460046003830154920154926040519485526020850152604084015260608301526080820152f35b346101f75760203660031901126101f7576001600160a01b036103e261137f565b1660005260056020526020604060002054604051908152f35b346101f75760203660031901126101f7576001600160a01b0361041c61137f565b1660005260006020526020604060002054604051908152f35b346101f7576104a06104463661141e565b92919061045b6104563384611556565b611518565b6001600160a01b039182166000818152600560205260409020546104809086906115b2565b906000526005602052604060002055169182600052604060002054611588565b906000526005602052604060002055600080f35b346101f75760003660031901126101f7576020600954604051908152f35b346101f7577f8e03d1ac49b6d4e90dd1c4e641ecc5ca76b7c07a487690b6897c0e5e374b19d26020610503366113f4565b93919290933360005260008252610521600160406000205414611453565b61052f6001600a5414611494565b83600052600282526102bc61055a826040600020600181016105528382546114cf565b9055546115f5565b9560018060a01b0316958660005260058452604060002061057c8282546114cf565b90556007546114cf565b346101f75760203660031901126101f75761059f61137f565b33600052600160205260406000209060018060a01b031690816000526020526001604060002055337faa731fc3330498a56e191236785be109218ed38365faa8c33965e6de3b78ee4c600080a3005b346101f75760203660031901126101f75761060761137f565b336000526000602052610621600160406000205414611453565b61062f6001600a5414611494565b6001600160a01b031660008181526020819052604081208190557f568441e3a3b6a2622a0a2ba98496a75dd275b5e7cbe3bf3df35641b93cb9d3989080a2005b346101f75760003660031901126101f7576020600a54604051908152f35b346101f75760a03660031901126101f7576004356106a9611369565b6106b1611395565b60008381526003602090815260408083206001600160a01b0386811685529083528184209085168452818420968452600283529220825491959293608435939092606435906107019082906115bf565b865561073060016107238189019361071a8986546115bf565b855585546114cf565b93848155019586546114cf565b809555549461076e600184015494610768610760610758610751898c611661565b988a611661565b9a3390611556565b913390611556565b16611518565b549061077f60028401548093611661565b8411610850579061078f91611661565b8511610818576004015480931591101517156107e4571591101517156107b157005b6064906040519062461bcd60e51b82526004820152600c60248201526b15985d0bd91d5cdd0b591cdd60a21b6044820152fd5b60405162461bcd60e51b815260048101859052600c60248201526b5661742f647573742d73726360a01b6044820152606490fd5b60405162461bcd60e51b815260048101879052601060248201526f15985d0bdb9bdd0b5cd859994b591cdd60821b6044820152606490fd5b60405162461bcd60e51b815260048101899052601060248201526f5661742f6e6f742d736166652d73726360801b6044820152606490fd5b346101f7576108e1610899366113f4565b929091923360005260006020526108b7600160406000205414611453565b83600052600460205260406000209260018060a01b031692836000526020526040600020546114cf565b916000526004602052604060002090600052602052604060002055600080f35b346101f7577f1b2837fd40844c96cf39e52acaae7902fb74257fe20b1b7df5458b97d896c636610a57610933366113ab565b9096949591939633600052610a2560209860008a52610959600160406000205414611453565b8860005260038a52600660406000209a60018060a01b038093169b8c60005281526109c48660018d60406000209060005260028552816040600020916109a08b82546114cf565b8155016109ae8482546114cf565b90556109bb8382546114cf565b815501546115f5565b928b600052600482526040600020818a16908160005283526109eb876040600020546115bf565b908d6000526004845260406000209060005283526040600020558916600052526040600020610a1b8282546115bf565b90556008546115bf565b600855604051948594859092606092959493608083019660018060a01b03809216845216602083015260408201520152565b0390a3005b346101f757610a6a366113ab565b610a7d6001600a97969395975414611494565b846000526003602052604060002060018060a01b038316600052602052604060002090604051946040860167ffffffffffffffff9387821085831117610ed857600191604052805488520154602087015286600052600260205260406000206040519360a085019085821090821117610ed85760405280548452600460018201549182602087015260028101546040870152600381015460608701520154608085015215610ea057610b308187516114cf565b8652610b408260208801516114cf565b6020870152610b508284516114cf565b8352610b608260208501516115f5565b92610b746020820151602089015190611661565b610b80856007546114cf565b80600755610b948351602085015190611661565b606084015110159060095410151660008513151715610e64576000831215600085131516610bc88951604085015190611661565b821115811715610e3057610bdc3388611556565b1715610df757610bec338b611556565b60008413151715610dbe57610c013388611556565b60008512151715610d855760208801511590608083015111151715610d55577fe37707842c8387f7c3c357f1d6c5bf57084e681573bdda024fae70cf0ecde80e96610a5794896000526004602052604060002060018060a01b038c169081600052602052610c74856040600020546115bf565b908b600052600460205260406000209060005260205260406000205560018060a01b0388166000526005602052610cb160406000209182546114cf565b9055886000526003602052604060002060018060a01b038716600052602052600160206040600020928051845501519101558760005260026020526004608060406000209280518455602081015160018501556040810151600285015560608101516003850155015191015560405194859460018060a01b031698859092606092959493608083019660018060a01b03809216845216602083015260408201520152565b60405162461bcd60e51b815260206004820152600860248201526715985d0bd91d5cdd60c21b6044820152606490fd5b60405162461bcd60e51b81526020600482015260116024820152705661742f6e6f742d616c6c6f7765642d7760781b6044820152606490fd5b60405162461bcd60e51b81526020600482015260116024820152702b30ba17b737ba16b0b63637bbb2b216bb60791b6044820152606490fd5b60405162461bcd60e51b81526020600482015260116024820152705661742f6e6f742d616c6c6f7765642d7560781b6044820152606490fd5b60405162461bcd60e51b815260206004820152600c60248201526b5661742f6e6f742d7361666560a01b6044820152606490fd5b60405162461bcd60e51b815260206004820152601460248201527315985d0bd8d95a5b1a5b99cb595e18d95959195960621b6044820152606490fd5b60405162461bcd60e51b815260206004820152601060248201526f15985d0bda5b1acb5b9bdd0b5a5b9a5d60821b6044820152606490fd5b634e487b7160e01b600052604160045260246000fd5b346101f75760003660031901126101f757336000526000602052610f19600160406000205414611453565b6000600a55005b346101f75760203660031901126101f757610f3961137f565b336000526000602052610f53600160406000205414611453565b610f616001600a5414611494565b6001600160a01b03166000818152602081905260408120600190557fbdd25288242d7a27d9494755ef7f8e5cbcd7f1d8ea73cd139ea251c86c6f27019080a2005b346101f75760803660031901126101f757600435610fbe611369565b610fc6611395565b90611045606435610fda6104563385611556565b8460005260209260048452604060002060018060a01b038092169081600052855261100a836040600020546115b2565b908760005260048652604060002090600052855260406000205585600052600484526040600020941693846000528352604060002054611588565b926000526004815260406000209160005252604060002055600080f35b346101f75760403660031901126101f75761107b61137f565b611083611369565b9060018060a01b038091166000526001602052604060002091166000526020526020604060002054604051908152f35b346101f75760203660031901126101f7576004353360005260006020526110e1600160406000205414611453565b80600052600260205260016040600020015461111a5760005260026020526b033b2e3c9fd0803ce8000000600160406000200155600080f35b60405162461bcd60e51b815260206004820152601460248201527315985d0bda5b1acb585b1c9958591e4b5a5b9a5d60621b6044820152606490fd5b346101f75760003660031901126101f7576020600854604051908152f35b346101f75760403660031901126101f75733600052600060205261119f600160406000205414611453565b6111ad6001600a5414611494565b600435634c696e6560e01b036111c557602435600955005b60405162461bcd60e51b815260206004820152601b60248201527f5661742f66696c652d756e7265636f676e697a65642d706172616d00000000006044820152606490fd5b346101f75760403660031901126101f757611223611369565b600435600052600360205260406000209060018060a01b03166000526020526040806000206001815491015482519182526020820152f35b346101f75760403660031901126101f757611274611369565b600435600052600460205260406000209060018060a01b03166000526020526020604060002054604051908152f35b346101f75760603660031901126101f75760043560243590604435913360005260006020526112d9600160406000205414611453565b6112e76001600a5414611494565b631cdc1bdd60e21b810361130957506000526002602052600260406000200155005b636c696e6560e01b810361132e57506000526002602052600360406000200155600080f35b63191d5cdd60e21b036111c5576000526002602052600460406000200155005b346101f75760003660031901126101f7576020906007548152f35b602435906001600160a01b03821682036101f757565b600435906001600160a01b03821682036101f757565b604435906001600160a01b03821682036101f757565b60c09060031901126101f757600435906001600160a01b0360243581811681036101f7579160443582811681036101f7579160643590811681036101f757906084359060a43590565b60609060031901126101f757600435906024356001600160a01b03811681036101f7579060443590565b60609060031901126101f7576001600160a01b039060043582811681036101f7579160243590811681036101f7579060443590565b1561145a57565b60405162461bcd60e51b815260206004820152601260248201527115985d0bdb9bdd0b585d5d1a1bdc9a5e995960721b6044820152606490fd5b1561149b57565b60405162461bcd60e51b815260206004820152600c60248201526b5661742f6e6f742d6c69766560a01b6044820152606490fd5b91908083019260009182811280159061150e575b1561150a578212908115916114ff575b50156114fc5750565b80fd5b9050831015386114f3565b8280fd5b50818511156114e3565b1561151f57565b60405162461bcd60e51b815260206004820152600f60248201526e15985d0bdb9bdd0b585b1b1bddd959608a1b6044820152606490fd5b9060018060a01b0380911691169081600052600160205260406000208160005260205260016040600020541491141790565b919082019182811161159c5782106101f757565b634e487b7160e01b600052601160045260246000fd5b90810390811161159c5790565b9190808303926000918281138015906115eb575b1561150a578213908115916114ff5750156114fc5750565b50818511156115d3565b818102929160009182811261150a578115918215611618575b5050156114fc5750565b909161164d57600160ff1b851460001982141661163957840514388061160e565b634e487b7160e01b83526011600452602483fd5b634e487b7160e01b83526012600452602483fd5b600092918391811591821561167a575050156114fc5750565b818192939650028281048214831517156116b157809561169d570414388061160e565b634e487b7160e01b84526012600452602484fd5b634e487b7160e01b84526011600452602484fdfea2646970667358221220b937f6600ea2a98cc4ed2533a50e4065ebc5b248abdc0c7f88652962d363811e64736f6c63430008130033","linkReferences":{}},"methodIdentifiers":{"Line()":"babe8a3f","cage()":"69245009","can(address,address)":"4538c4eb","debt()":"0dca59c1","deny(address)":"9c52a7f1","file(bytes32,bytes32,uint256)":"1a0b287e","file(bytes32,uint256)":"29ae8114","flux(bytes32,address,address,uint256)":"6111be2e","fold(bytes32,address,int256)":"b65337df","fork(bytes32,address,address,int256,int256)":"870c616d","frob(bytes32,address,address,address,int256,int256)":"76088703","gem(bytes32,address)":"214414d5","grab(bytes32,address,address,address,int256,int256)":"7bab3f40","heal(uint256)":"f37ac61c","hope(address)":"a3b22fc4","ilks(bytes32)":"d9638d36","init(bytes32)":"3b663195","kusd(address)":"cc1ad1ff","live()":"957aa58c","move(address,address,uint256)":"bb35783b","nope(address)":"dc4d20fa","rely(address)":"65fae35e","sin(address)":"f059212a","slip(bytes32,address,int256)":"7cdd3fde","suck(address,address,uint256)":"f24e23eb","urns(bytes32,address)":"2424be5c","vice()":"2d61a355","wards(address)":"bf353dbb"},"id":34}