{"abi":[{"type":"constructor","inputs":[{"name":"vat_","type":"address","internalType":"address"},{"name":"flapper_","type":"address","internalType":"address"},{"name":"flopper_","type":"address","internalType":"address"}],"stateMutability":"nonpayable"},{"type":"function","name":"Ash","inputs":[],"outputs":[{"name":"","type":"uint256","internalType":"uint256"}],"stateMutability":"view"},{"type":"function","name":"Sin","inputs":[],"outputs":[{"name":"","type":"uint256","internalType":"uint256"}],"stateMutability":"view"},{"type":"function","name":"bump","inputs":[],"outputs":[{"name":"","type":"uint256","internalType":"uint256"}],"stateMutability":"view"},{"type":"function","name":"cage","inputs":[],"outputs":[],"stateMutability":"nonpayable"},{"type":"function","name":"deny","inputs":[{"name":"usr","type":"address","internalType":"address"}],"outputs":[],"stateMutability":"nonpayable"},{"type":"function","name":"dump","inputs":[],"outputs":[{"name":"","type":"uint256","internalType":"uint256"}],"stateMutability":"view"},{"type":"function","name":"fess","inputs":[{"name":"tab","type":"uint256","internalType":"uint256"}],"outputs":[],"stateMutability":"nonpayable"},{"type":"function","name":"file","inputs":[{"name":"what","type":"bytes32","internalType":"bytes32"},{"name":"data","type":"uint256","internalType":"uint256"}],"outputs":[],"stateMutability":"nonpayable"},{"type":"function","name":"file","inputs":[{"name":"what","type":"bytes32","internalType":"bytes32"},{"name":"data","type":"address","internalType":"address"}],"outputs":[],"stateMutability":"nonpayable"},{"type":"function","name":"flap","inputs":[],"outputs":[{"name":"id","type":"uint256","internalType":"uint256"}],"stateMutability":"nonpayable"},{"type":"function","name":"flapper","inputs":[],"outputs":[{"name":"","type":"address","internalType":"contract FlapLike"}],"stateMutability":"view"},{"type":"function","name":"flog","inputs":[{"name":"era","type":"uint256","internalType":"uint256"}],"outputs":[],"stateMutability":"nonpayable"},{"type":"function","name":"flop","inputs":[],"outputs":[{"name":"id","type":"uint256","internalType":"uint256"}],"stateMutability":"nonpayable"},{"type":"function","name":"flopper","inputs":[],"outputs":[{"name":"","type":"address","internalType":"contract FlopLike"}],"stateMutability":"view"},{"type":"function","name":"heal","inputs":[{"name":"rad","type":"uint256","internalType":"uint256"}],"outputs":[],"stateMutability":"nonpayable"},{"type":"function","name":"hump","inputs":[],"outputs":[{"name":"","type":"uint256","internalType":"uint256"}],"stateMutability":"view"},{"type":"function","name":"kiss","inputs":[{"name":"rad","type":"uint256","internalType":"uint256"}],"outputs":[],"stateMutability":"nonpayable"},{"type":"function","name":"live","inputs":[],"outputs":[{"name":"","type":"uint256","internalType":"uint256"}],"stateMutability":"view"},{"type":"function","name":"rely","inputs":[{"name":"usr","type":"address","internalType":"address"}],"outputs":[],"stateMutability":"nonpayable"},{"type":"function","name":"sin","inputs":[{"name":"","type":"uint256","internalType":"uint256"}],"outputs":[{"name":"","type":"uint256","internalType":"uint256"}],"stateMutability":"view"},{"type":"function","name":"sump","inputs":[],"outputs":[{"name":"","type":"uint256","internalType":"uint256"}],"stateMutability":"view"},{"type":"function","name":"vat","inputs":[],"outputs":[{"name":"","type":"address","internalType":"contract VatLike"}],"stateMutability":"view"},{"type":"function","name":"wait","inputs":[],"outputs":[{"name":"","type":"uint256","internalType":"uint256"}],"stateMutability":"view"},{"type":"function","name":"wards","inputs":[{"name":"","type":"address","internalType":"address"}],"outputs":[{"name":"","type":"uint256","internalType":"uint256"}],"stateMutability":"view"},{"type":"event","name":"AuthorityGranted","inputs":[{"name":"usr","type":"address","indexed":true,"internalType":"address"}],"anonymous":false},{"type":"event","name":"AuthorityRevoked","inputs":[{"name":"usr","type":"address","indexed":true,"internalType":"address"}],"anonymous":false},{"type":"event","name":"Cage","inputs":[],"anonymous":false},{"type":"event","name":"Fess","inputs":[{"name":"tab","type":"uint256","indexed":true,"internalType":"uint256"}],"anonymous":false},{"type":"event","name":"File","inputs":[{"name":"what","type":"bytes32","indexed":true,"internalType":"bytes32"},{"name":"data","type":"uint256","indexed":false,"internalType":"uint256"}],"anonymous":false},{"type":"event","name":"File","inputs":[{"name":"what","type":"bytes32","indexed":true,"internalType":"bytes32"},{"name":"data","type":"address","indexed":false,"internalType":"address"}],"anonymous":false},{"type":"event","name":"Flap","inputs":[{"name":"id","type":"uint256","indexed":true,"internalType":"uint256"},{"name":"lot","type":"uint256","indexed":false,"internalType":"uint256"},{"name":"bid","type":"uint256","indexed":false,"internalType":"uint256"}],"anonymous":false},{"type":"event","name":"Flog","inputs":[{"name":"era","type":"uint256","indexed":true,"internalType":"uint256"}],"anonymous":false},{"type":"event","name":"Flop","inputs":[{"name":"id","type":"uint256","indexed":true,"internalType":"uint256"},{"name":"lot","type":"uint256","indexed":false,"internalType":"uint256"},{"name":"bid","type":"uint256","indexed":false,"internalType":"uint256"}],"anonymous":false},{"type":"event","name":"Heal","inputs":[{"name":"rad","type":"uint256","indexed":false,"internalType":"uint256"}],"anonymous":false},{"type":"event","name":"Kiss","inputs":[{"name":"rad","type":"uint256","indexed":false,"internalType":"uint256"}],"anonymous":false}],"bytecode":{"object":"0x6080346200012f57601f6200161238819003918201601f1916830192916001600160401b039182851184861017620001345781606092859260409788528339810103126200012f5762000052826200014a565b6200006d8462000065602086016200014a565b94016200014a565b6000933385528460205260018686205560018060a01b03809316928060018060a01b0319928584600154161760015516928383600254161760025516906003541617600355813b156200012b5783929160248492875196879384926328ec8bf160e21b845260048401525af180156200012157620000fa575b836001600c55516114b29081620001608239f35b82116200010d57508152388080620000e6565b634e487b7160e01b81526041600452602490fd5b84513d84823e3d90fd5b8380fd5b600080fd5b634e487b7160e01b600052604160045260246000fd5b51906001600160a01b03821682036200012f5756fe6080604081815260048036101561001557600080fd5b600092833560e01c9081630e01198b1461104a575080631b8e8cfa1461102b5780632506855a14610ea957806329ae811414610da15780632a1d2b3c14610d8257806336569e7714610d595780634081d73a14610d305780635ca0d72314610d0757806364bd701314610ce857806365fae35e14610c7057806368110b2f14610c515783816369245009146109aa57508063697efb7814610900578063957aa58c146108e15780639c52a7f114610873578063bbbb0d7b14610639578063bf353dbb14610602578063c349d362146105e3578063cb5cc109146105bd578063d0adc35f1461059e578063d4e8be83146103b7578063d7ee674b146102f6578063e4330545146102d35763f37ac61c1461012d57600080fd5b34610251576020908160031936011261024357600154835163cc1ad1ff60e01b815230838201528235926001600160a01b0390921691908481602481865afa801561029a5787906102a4575b61018691508411156113cc565b845163782c909560e11b815230828201528481602481865afa90811561029a578791610268575b50600554810390811161025557600654810390811161025557906101d5879392851115611418565b813b156102515783602484928389519586948593633cdeb18760e21b85528401525af180156102475761022f575b50507f917d6982889419f491488c036c2e6abe788b07222064ab462158ec64ca2c4db79251908152a180f35b61023890611380565b610243578338610203565b8380fd5b85513d84823e3d90fd5b8280fd5b634e487b7160e01b875260118252602487fd5b90508481813d8311610293575b61027f81836113aa565b8101031261028e5751386101ad565b600080fd5b503d610275565b86513d89823e3d90fd5b508481813d83116102cc575b6102ba81836113aa565b8101031261028e576101869051610179565b503d6102b0565b5050346102f257816003193601126102f2576020906008549051908152f35b5080fd5b50903461025157602036600319011261025157813591600754830180841161036a57421061037d576005548385528160205282852054810390811161036a5760055582845260205282208290557f5aa14c9b66239d17e56d0724b7e90d8d82f28fcbdfb0d39e60614bd1d01dc7538280a280f35b634e487b7160e01b855260118252602485fd5b6020606492519162461bcd60e51b83528201526015602482015274159bddcbddd85a5d0b5b9bdd0b599a5b9a5cda1959605a1b6044820152fd5b50346102515781600319360112610251578035916001600160a01b03602435818116939084900361028e578591338352826020526103fa60018585205414611304565b66333630b83832b960c91b86036104fe5780600154168160025416813b156104fa5784916024839288519485938492636e26907d60e11b8452898401525af180156104f0579084916104dc575b5050600280546001600160a01b031916861790556001541690813b1561025157846024849283875195869485936328ec8bf160e21b85528401525af180156104d2576104be575b50507f8fef588b5fc1afbf5b2f06c1a435d513f208da2e6704c3d8f0e0ec91167066ba916020915b51908152a280f35b6104c790611380565b61024357833861048e565b83513d84823e3d90fd5b6104e590611380565b610251578238610447565b85513d86823e3d90fd5b8480fd5b50905066333637b83832b960c91b840361054f5750600380546001600160a01b031916831790557f8fef588b5fc1afbf5b2f06c1a435d513f208da2e6704c3d8f0e0ec91167066ba916020916104b6565b61059a915191829162461bcd60e51b8352820160609060208152601b60208201527f566f772f66696c652d756e7265636f676e697a65642d706172616d000000000060408201520190565b0390fd5b5050346102f257816003193601126102f2576020906005549051908152f35b503461025157602036600319011261025157602092818392358252845220549051908152f35b5050346102f257816003193601126102f2576020906009549051908152f35b5050346102f25760203660031901126102f25760209181906001600160a01b0361062a6112ee565b16815280845220549051908152f35b509190346102f257816003193601126102f257600954600154825163782c909560e11b8152308187015260209560249290916001600160a01b0391821688828681845afa918215610816578892610844575b50600554820391821161083257600654918281039081116108205785916106b58b92891115611418565b885163cc1ad1ff60e01b8152308782015292839182905afa9081156108165788916107e9575b506107b05784810180911161079e579186606492899594600655600354166008549688519788968795632dfa734960e21b8752309087015285015260448401525af19283156107935792610764575b50817f71220da0d6a18fdcb119b93d05387ffc264a73b9a1fda95000aeeae4ca846a5f82600854600954825191825287820152a251908152f35b9091508281813d831161078c575b61077c81836113aa565b8101031261028e5751903861072a565b503d610772565b8251903d90823e3d90fd5b634e487b7160e01b8752601183528387fd5b855162461bcd60e51b815280840189905260148186015273566f772f737572706c75732d6e6f742d7a65726f60601b6044820152606490fd5b90508881813d831161080f575b61080081836113aa565b8101031261028e5751386106db565b503d6107f6565b87513d8a823e3d90fd5b634e487b7160e01b8952601185528589fd5b634e487b7160e01b8852601184528488fd5b9091508881813d831161086c575b61085c81836113aa565b8101031261028e5751903861068b565b503d610852565b5050346102f25760203660031901126102f2578161088f6112ee565b338252816020526108a560018484205414611304565b6001600160a01b03168082526020829052918120557f568441e3a3b6a2622a0a2ba98496a75dd275b5e7cbe3bf3df35641b93cb9d3988280a280f35b5050346102f257816003193601126102f257602090600c549051908152f35b5034610251576020366003190112610251578035913384528360205261092b60018286205414611304565b42845281602052808420549083820180921161099757428552826020528420556005549082820180921161098457506005557f7a3f1a1ebf14b193365bc7468b58eb3b80ae1638635424aae4eec386da2f02ba8280a280f35b634e487b7160e01b845260119052602483fd5b634e487b7160e01b855260118352602485fd5b92905034610c4d5782600319360112610c4d573383526020918383526109d560018386205414611304565b6109e36001600c5414611345565b83600c55836005558360065560018060a01b038060025416908060015416918451868160248163cc1ad1ff60e01b97888252868a8301525afa908115610c43578891610c12575b50813b15610c0e578791602483928851948593849263517c8d7960e11b84528a8401525af18015610b9857908791610bfa575b50508060035416803b15610bf65786809185875180948193636924500960e01b83525af18015610b9857908791610bde575b50506001541693835191825230838301528082602481885afa918215610bd4578692610ba2575b50835163782c909560e11b815230848201528181602481895afa918215610b98578792610b67575b5050808211610b6057505b833b156104fa57602485928385519687948593633cdeb18760e21b85528401525af1908115610b575750610b40575b50807f2308ed18a14e800c39b86eb6ea43270105955ca385b603b64eca89f98ae8fbda91a180f35b610b4990611380565b610b54578038610b18565b80fd5b513d84823e3d90fd5b9050610ae9565b8197508092503d8311610b91575b610b7f81836113aa565b8101031261028e578594513880610ade565b503d610b75565b85513d89823e3d90fd5b809650818093503d8311610bcd575b610bbb81836113aa565b8101031261028e578594519038610ab6565b503d610bb1565b84513d88823e3d90fd5b610be790611380565b610bf2578538610a8f565b8580fd5b8680fd5b610c0390611380565b610bf2578538610a5d565b8780fd5b809850878092503d8311610c3c575b610c2b81836113aa565b8101031261028e5787965138610a2a565b503d610c21565b86513d8a823e3d90fd5b5050fd5b5050346102f257816003193601126102f257602090600a549051908152f35b5050346102f25760203660031901126102f2576001610c8d6112ee565b33845283602052610ca2828486205414611304565b610caf82600c5414611345565b818060a01b031691828452836020528320557fbdd25288242d7a27d9494755ef7f8e5cbcd7f1d8ea73cd139ea251c86c6f27018280a280f35b5050346102f257816003193601126102f2576020906007549051908152f35b5050346102f257816003193601126102f25760025490516001600160a01b039091168152602090f35b5050346102f257816003193601126102f25760035490516001600160a01b039091168152602090f35b5050346102f257816003193601126102f25760015490516001600160a01b039091168152602090f35b5050346102f257816003193601126102f2576020906006549051908152f35b50346102515781600319360112610251578035916024359133855284602052610dcf60018387205414611304565b631dd85a5d60e21b8403610dfd57508160209160008051602061145d8339815191529360075551908152a280f35b63062756d760e41b8403610e2857508160209160008051602061145d83398151915293600a556104b6565b63073756d760e41b8403610e5357508160209160008051602061145d833981519152936009556104b6565b63064756d760e41b8403610e7e57508160209160008051602061145d833981519152936008556104b6565b63068756d760e41b840361054f57508160209160008051602061145d83398151915293600b556104b6565b508290346102f2576020908160031936011261025157600654813591818311610ff357600154865163cc1ad1ff60e01b815230838201526001600160a01b0390911692908581602481875afa8015610fe9578790610fba575b610f0f91508511156113cc565b838103908111610fa757600655813b156104fa5782602486928389519586948593633cdeb18760e21b85528401525af180156104f057610f76575b507fdf1d0254f949dd4607095c8a45ed43a96d548776dbb1d6e8347513d07b109e9b929351908152a180f35b92610fa17fdf1d0254f949dd4607095c8a45ed43a96d548776dbb1d6e8347513d07b109e9b94611380565b92610f4a565b634e487b7160e01b865260118252602486fd5b508581813d8311610fe2575b610fd081836113aa565b81010312610bf657610f0f9051610f02565b503d610fc6565b88513d89823e3d90fd5b855162461bcd60e51b815290810184905260126024820152710acdeee5edcdee85acadcdeeaced05ac2e6d60731b6044820152606490fd5b5050346102f257816003193601126102f257602090600b549051908152f35b82848634610b545780600319360112610b545760015463cc1ad1ff60e01b8552308486015260209460249490916001600160a01b0390811687848881845afa9384156112765785946112bf575b50855163782c909560e11b80825230858301529089818a81865afa908115610fe9578791611292575b50600a549586820180921161128057600b548201809211611280578a92916110e99110156113cc565b88885180948193825230888301525afa908115611276578591611249575b5060055481039081116112375760065490808281031161122557036111ef578692918460449260025416818851998a96879563ca40c41960e01b87528601528401525af19283156111e3578193611192575b507fbdddd1971eeec114baaa6f1eb123c0f9f9a713ff6374b8d93f711205d472ecc3828492600a5490825191825287820152a251908152f35b909192508381813d83116111dc575b6111ab81836113aa565b810103126102f2575191907fbdddd1971eeec114baaa6f1eb123c0f9f9a713ff6374b8d93f711205d472ecc3611159565b503d6111a1565b509051903d90823e3d90fd5b845162461bcd60e51b815280830188905260118188015270566f772f646562742d6e6f742d7a65726f60781b6044820152606490fd5b634e487b7160e01b8652601184528786fd5b634e487b7160e01b8552601183528685fd5b90508781813d831161126f575b61126081836113aa565b810103126104fa575188611107565b503d611256565b86513d87823e3d90fd5b634e487b7160e01b8852601186528988fd5b90508981813d83116112b8575b6112a981836113aa565b81010312610bf657518a6110c0565b503d61129f565b9093508781813d83116112e7575b6112d781836113aa565b810103126104fa57519288611097565b503d6112cd565b600435906001600160a01b038216820361028e57565b1561130b57565b60405162461bcd60e51b8152602060048201526012602482015271159bddcbdb9bdd0b585d5d1a1bdc9a5e995960721b6044820152606490fd5b1561134c57565b60405162461bcd60e51b815260206004820152600c60248201526b566f772f6e6f742d6c69766560a01b6044820152606490fd5b67ffffffffffffffff811161139457604052565b634e487b7160e01b600052604160045260246000fd5b90601f8019910116810190811067ffffffffffffffff82111761139457604052565b156113d357565b60405162461bcd60e51b815260206004820152601860248201527f566f772f696e73756666696369656e742d737572706c757300000000000000006044820152606490fd5b1561141f57565b60405162461bcd60e51b8152602060048201526015602482015274159bddcbda5b9cdd59999a58da595b9d0b5919589d605a1b6044820152606490fdfee986e40cc8c151830d4f61050f4fb2e4add8567caad2d5f5496f9158e91fe4c7a26469706673582212207cf838a10fcc6cd8bcf2c2cbfc3f399af9b29465790aa10b23c12bbebe5d5f9f64736f6c63430008130033","linkReferences":{}},"methodIdentifiers":{"Ash()":"2a1d2b3c","Sin()":"d0adc35f","bump()":"68110b2f","cage()":"69245009","deny(address)":"9c52a7f1","dump()":"e4330545","fess(uint256)":"697efb78","file(bytes32,address)":"d4e8be83","file(bytes32,uint256)":"29ae8114","flap()":"0e01198b","flapper()":"5ca0d723","flog(uint256)":"d7ee674b","flop()":"bbbb0d7b","flopper()":"4081d73a","heal(uint256)":"f37ac61c","hump()":"1b8e8cfa","kiss(uint256)":"2506855a","live()":"957aa58c","rely(address)":"65fae35e","sin(uint256)":"cb5cc109","sump()":"c349d362","vat()":"36569e77","wait()":"64bd7013","wards(address)":"bf353dbb"},"id":35}